:020000040800F2
:10000000108E002031030008390300083B0300086C
:100010003D0300083F030008410300080000000002
:10002000000000000000000000000000990200082D
:100030004503000800000000DD02000895330008B9
:100040004B0300084B0300084B0300084B03000858
:100050004B0300084B0300084B0300084B03000848
:100060004B0300084B0300084B0300084B03000838
:100070004B0300084B0300084B0300084B03000828
:100080004B0300084B0300084B0300084B03000818
:100090004B0300084B0300084B0300084B03000808
:1000A0004B0300084B0300084B0300084B030008F8
:1000B00075360008213900084B0300084B0300087F
:1000C0004B0300084B0300084B0300084B030008D8
:1000D0004B030008A14000084B0300084B03000835
:1000E0004B0300084B0300084B030008000000000E
:1000F0000000000000000000000000000000000000
:1001000000000000000000004B0300084B03000843
:100110004B0300084B0300084B0300084B03000887
:100120004B0300084B0300084B0300084B03000877
:100130004B0300084B0300084B0300084B03000867
:100140004B0300084B0300084B0300084B03000857
:1001500000F002F800F090F80AA090E8000C824449
:100160008344AAF10107DA4501D100F085F8AFF226
:10017000090EBAE80F0013F0010F18BFFB1A43F085
:1001800001031847446F0000646F0000103A24BF59
:1001900078C878C1FAD8520724BF30C830C144BFEC
:1001A00004680C607047000000230024002500262E
:1001B000103A28BF78C1FBD8520728BF30C148BFCA
:1001C0000B6070476E2900F0BD81702900F0078335
:1001D000662905F01183652905F00E83672905F06E
:1001E0000B83612905F00A8303681B0A28BF41F0CD
:1001F0008001692900F06A81642900F0678175290E
:1002000000F064816F2900F09482782900F0D38295
:10021000E92900F02F82E42900F02C82F52900F072
:100220002982EF2900F09182F82900F0D282036838
:10023000DB0928BF41F08001632900F0F7877329AB
:1002400000F0FC87E32901F00780F32901F00C801E
:10025000002070471FB501F059F80400002000216C
:1002600005F0DAF8401C60600020002105F0BEF8BF
:10027000E0601FBD10B510BD01F01AF81146FFF780
:10028000E9FF04F04DF901F0F7F803B4FFF7F2FFCE
:1002900003BC01F03FF90000224B19680868B0E880
:1002A000F00F80F30988BFF36F8F4FF0000080F3E9
:1002B00011884EF00D0E70470000000006480068DF
:1002C000006880F3088862B661B6BFF34F8FBFF352
:1002D0006F8F00DF00BF00BF08ED00E0EFF3098083
:1002E000BFF36F8F0F4B1A6820E9F00F106008B54D
:1002F0004FF0BF0080F31188BFF34F8FBFF36F8FB4
:1003000004F072FE4FF0000080F31188BDE8084051
:1003100019680868B0E8F00F80F30988BFF36F8FA1
:10032000704700BF58000020EFF3058070470000C1
:100330000948804709480047FEE7FEE7FEE7FEE779
:10034000FEE7FEE7FEE7FEE7FEE7FEE704480549B5
:10035000054A064B70470000C933000851010008E8
:1003600010880020108E0020108A0020108A0020A3
:100370007CB51D4616460C00009001D02044401E5E
:10038000074B7B442A4669460190304600F0F3F85B
:1003900005461CB10020694600F000F928467CBDE6
:1003A0002102000002F0FF0343EA032242EA024274
:1003B00000F0E6BA4FF0000200B5134694469646A8
:1003C000203922BFA0E80C50A0E80C50B1F1200168
:1003D000BFF4F7AF090728BFA0E80C5048BF0CC016
:1003E0005DF804EB890028BF40F8042B08BF704774
:1003F00048BF20F8022B11F0804F18BF00F8012BE6
:10040000704770477047704770B50446856900684B
:10041000C10601D5302600E02026C00707D070BDF8
:10042000D4E9012130469047206A401C20626D1EAD
:10043000F6D570BD70B5044685690078C00707D150
:1004400070BDD4E9012120209047206A401C206221
:100450006D1EF6D570BD09684A0501D540B27047DA
:10046000C905FCD500B2704709684A0501D5C0B27C
:100470007047C905FCD580B2704770B50C4605467B
:10048000012A05D02878800600D5EA69002302E019
:10049000012305E05B1C934202D2E05C0028F9D105
:1004A000A869E618C01AA861286A18442862284674
:1004B000FFF7AAFF04E0D5E9012114F8010B9047EA
:1004C000B442F8D32846FFF7B5FF70BD2DE9F041DF
:1004D0000646002410687529314616A510D0FFF78E
:1004E000BAFF002802DA404213A507E031688A0704
:1004F00001D512A502E0490704D511A5012401E0A8
:10050000FFF7B2FF00210A2206F1240709E0B0FB41
:10051000F2FCB0FBF2F302FB1C00303078541846BA
:10052000491C0028F3D123462A463046BDE8F04155
:1005300000F08BBA000000002D0000002B0000002E
:100540002000000011680268006A530501D5087098
:100550000AE0D30501D5088006E0130603D5C217CB
:10056000C1E9000200E008600120704701694A1CEF
:1005700002610878704700B58FB0CDE901310021E4
:10058000059105497944CDE903101146684600F00C
:1005900031F90FB000BD0000E5FFFFFF0A6802F867
:1005A000010B0A607047D1E900239A4202D2531C22
:1005B0000B601070704700002DE9FF5F15468A46FA
:1005C0000446DFF8AC80F8440027D8E900103E4626
:1005D000CDE9001010E03AF816106A4602A800F0C3
:1005E00047FE411C07D02178890603D5E2693918F6
:1005F00091420DD80744761C2078800602D5E06928
:10060000B84205DDAE42E6DB3AF816000028E2D13A
:10061000A069C01BA0612046FFF7F6FED8E90010D4
:10062000CDE90010002017E03AF818106A4602A839
:1006300000F01EFEB0F1FF3F81460BD000250DF10A
:10064000080B05E0D4E901211BF8050090476D1C5B
:100650004D45F7D308F10100B0428046E4DB206A43
:10066000384420622046FFF7E5FEBDE8FF9F00000A
:10067000026A00002DE9F0418046D21D22F00702F7
:100680000025D2E90002F52915A614D0011E72F149
:10069000000106DA0023D0EB030063EB020211A68F
:1006A00008E0D8F800108B0701D50FA602E0490733
:1006B00001D50EA601251146002408F1240704E007
:1006C00000F07EF930323A55641C50EA0102F7D14D
:1006D0002B46324621464046BDE8F04100F0B5B910
:1006E000000000002D0000002B0000002000000092
:1006F00030B4002100F1240408E002F00705D2081C
:10070000303542EA4372DB086554491C52EA03055E
:10071000F3D10468002310A2250707D5A40600D44E
:1007200021B1C46901230DA2641EC46130BC00F074
:100730008CB910B5044621461068FFF795FE0246B5
:100740002046BDE810400023D2E7D21D22F0070169
:10075000D1E90023CCE700000000000030000000D9
:10076000F0B40D460188090502D5214C7C4402E015
:100770001F4C7C440E34002100F1240608E002F0F6
:100780000F071209E75D42EA03721B097754491CFF
:1007900052EA0307F3D102780023120704D5702D23
:1007A00006D009B1022311342246F0BC00F04DB945
:1007B00001231034F8E770B504460D462146106851
:1007C000FFF752FE024629462046BDE8704000234E
:1007D000C6E7D21D22F00703D3E90023C0E7036870
:1007E000126843F0200303600823C3610023B7E7C6
:1007F000646800002DE9F05F894604464FF0000A66
:10080000DFF874B1FB44C0F820A02046E1688847B7
:10081000002874D0252806D0D4E901219047206A09
:10082000401C2062F1E700265F462046E1688847C9
:100830002028054607DB312D05D2781910F8200C49
:1008400008B10643F1E7B00701D526F00406C4F865
:100850001CA00027C4F818A02A2D09D0284603F0B0
:100860007CFD38B304EB8708303DC8F8185019E018
:1008700059F8041B204604EB87029161E168884720
:10088000012F054618D1E069002820DA26F020065D
:100890001DE0D8F8180000EB800005EB4000303870
:1008A000C8F818002046E1688847054603F055FD62
:1008B0000028EED1012F0AD02E2D08D12046E16864
:1008C00088477F1C0546022F46F02006C4DBA0693E
:1008D000002803DA404246F00106A061F00701D08B
:1008E00026F010066C2D0BD0682D09D04C2D39D078
:1008F0006A2D35D0742D35D07A2D33D016E038E0FE
:10090000E1682F4620468847B842054609D16C2F3A
:1009100026D04FF48060E1680643204688470546AC
:1009200004E06C2F1AD04FF4807006430DB3A5F18C
:100930004100192802D8203546F400664A46294667
:10094000204626604E46FFF73DFC80B101280BD0C3
:10095000F61D26F0070000F1080956E74020E4E7FD
:100960008020D8E70020D6E706F104094DE72846A5
:1009700052E7206ABDE8F09FF46700004FF00002E4
:100980000429C0F0128010F0030C3FF415ADCCF137
:10099000040CBCF1020F18BF00F8012BA8BF20F80F
:1009A000022BA1EB0C01FFF707BD5FEAC17C24BF5E
:1009B00000F8012B00F8012B48BF00F8012B70470D
:1009C00030B5B0F10A024FEA900E71F100034EEA21
:1009D000817EB0EB0E0061EB91014FEA101E4EEAF2
:1009E000017E10EB0E0041EB11114FEA102E4EEA82
:1009F000016E10EB0E0041EB11214FEA104E4EEA52
:100A0000014E10EB0E0041EB1141401841F1000185
:100A10004FEAD00040EA41704FEAD10110EB800567
:100A20004FEA810444EA907444EB01046D1944EBED
:100A30000404521BA3414FF0000348BF0A3200D503
:100A400030BD401C41F1000130BD2DE9F0470D469D
:100A500099469246044600F124080168880604D5A8
:100A6000E06921F01001216000E00120A84201DDD1
:100A7000471B00E00027A1697A1902EB0900081A58
:100A8000A0612078C00602D42046FFF7BDFC0026F6
:100A900008E0D4E901211AF806009047206A401CBA
:100AA000761C20624E45F4DB2078C0060AD520462D
:100AB000FFF7AAFC06E0D4E9012130209047206A24
:100AC000401C2062381EA7F10107F4DC07E0D4E9DE
:100AD000012118F805009047206A401C2062281E5A
:100AE000A5F10105F3DC2046FFF7A4FC2078000601
:100AF00002D50220BDE8F0870120FBE770472DE911
:100B0000FF4F0C461E464FF0FF378BB0D2E9000175
:100B1000DDF860800A908A46C1F30A5505B93D4662
:100B2000002108464FF00000BAF1000F00F4400029
:100B300005DA00EB80004FF4400101EA50004FEA73
:100B40009059B9F1010F00DDB9460A9850EA4A0000
:100B50000ED044F61050A5F2FF3545432F14B8F1DE
:100B6000000F1ED07542291E1EDDC9F100021CE0D7
:100B7000B8F1010F4FF0000001D0302103E0F24343
:100B800005E02154401CB042FBDB3046002200212E
:100B900021540B99C1F80880C1E900200FB0BDE8CD
:100BA000F08FBD1B6D1CDEE74A4600DA694206A8DD
:100BB00000F0F0FB06AB93E8070003AB83E8070007
:100BC00050460A9900F0ADFC8DE80700A0F50050F2
:100BD0001F3800900398002D0ADD42F21F014A469B
:100BE0000844002303A90390684600F016FF09E0BB
:100BF000A0F500504A461F38002303A90390684619
:100C000000F020FF8DE807000004000C03D04FF037
:100C1000FF30410800E01046B8F1000F03D0002279
:100C2000009215461EE0751E05D4FFF7C9FE30324E
:100C300062556D1EF9D5B3460122084302D0002249
:100C40007F1C04E02078302801D100227F1E002A7A
:100C5000099784D01DE0112D07DAFFF7B1FE30327D
:100C600062556D1C50EA0102F5D1084302D000988C
:100C7000C8B10EE00021681E05E0235C625C63548D
:100C80002254401E491C8142F7DBAB46A81B401E84
:100C90000990002004F80B000B98099AC0F808800E
:100CA000C0E9002B7AE711264FF0000857E72DE93D
:100CB000F04F88460446D21D22F0070191B0D1E9D9
:100CC0000001CDE90A0103F034FB02460B98C00F86
:100CD00001D02D2007E02068810701D52B2002E0FC
:100CE000202101EAC000032A099001D0072A05DB70
:100CF00003464146204600F00DFB0BE120788006BC
:100D000001D5E06900E00620B8F1650F814606D004
:100D1000B8F1660F18D0B8F1670F70D131E000203C
:100D2000B9F1110F009001DB112301E009F101037A
:100D30000AAA01A90CA8FFF7E2FEDDE90C70002663
:100D400009F10105834647E001204B4600904FF032
:100D500000470AAA01A90CA8FFF7D1FEDDE90DB0F2
:100D60000C995D46002610B909F101000D18B9EB88
:100D7000050003D4C0F1FF3609F10105A5EB090018
:100D80002BE0B9F1010F01DA4FF001090020B9F1B0
:100D9000110F0090484601DD112300E003460AAA26
:100DA00001A90CA8FFF7ABFEDDE90C704D4600264B
:100DB0008346207800070AD4AB4500DA5D4601A8D7
:100DC000012D04DD411911F8011C302907D04F45D0
:100DD00002DA17F1040F04DA012082460FE06D1EDB
:100DE000EEE7002F02DCED1B3E4403E0781CA84236
:100DF00000DD7D1CB81B00F1010A4FF00047207890
:100E0000000703D4AA4501DB4FF0FF3A0021B7F1F8
:100E1000004F0DF143088DF8431024D002202B23FE
:100E2000002F01DA7F422D230A21021EA0F10100CA
:100E300000DC5FB197FBF1FC97FBF1F201FB1C7C3E
:100E400017460CF1300C08F801CDEEE7A8F10100CF
:100E500003702188090501D5452100E06521A0F135
:100E6000010800F8011C09980FA9A1EB0807FF1D54
:100E700000B10120411901EBEA70A1693844081A58
:100E8000401EA0612078C00602D42046FFF7BCFABD
:100E9000099828B1D4E901219047206A401C2062BA
:100EA0002078C00622D52046FFF7AEFA1EE0002EBD
:100EB00004DBB34502DD01A8805D00E03020D4E909
:100EC00001219047206A401C2062761CAAF1010093
:100ED0005FEA000A0AD100F019FAC0680168405CB4
:100EE000D4E901219047206A401C2062281EA5F108
:100EF0000105DCDC07E0D4E9012118F8010B90477B
:100F0000206A401C2062381EA7F10107F3DC20464E
:100F1000FFF790FA032011B041E600002DE9F04FF1
:100F200004460D46D21D22F0070089B0D0E9009793
:100F30004846394603F0FDF90246F80F01D02D234B
:100F400007E02068810701D52B2302E0202101EA78
:100F5000C0038DF820300BB1012000E00020032AEF
:100F6000824601D0072A04DB2946204600F0D2F948
:100F70003FE12078800601D40D2500E0E569C7F344
:100F80000A560D2D49DA00214FEA175B08464FF04B
:100F90000000002F00F4400007DA00EB80004FF45F
:100FA000400100EBD07001EA60008115012901DDEC
:100FB0004FF0FF3100224FEA850CBCF1180F06D329
:100FC0001346ACF118004FF08052C24003E04FF4DA
:100FD000801323FA0CF30CF10C0CBCF1200F04D39A
:100FE000ACF1200C09FA0CF001E007FA0CF0002932
:100FF0004FF0004801DD18B90FE00ED140450CD389
:1010000019EB02095F4121B9404502D19F4329EA0A
:101010000209BBEB175F00D0761C2088000502D5C3
:101020007B48784402E07A487844193808AA30238B
:1010300002F80A30037C0AF10101002E0AF1020ACB
:1010400053546A4602DC4FF0300101E04FF03101A9
:101050004FF001088DF8001002D0A6F2FF3603E031
:1010600059EA470100D06B4E002D02DC21780907B8
:1010700004D54FF002082E218DF80110C44600213E
:101080000BE0C7F303433F01C35C491C6D1E02F82C
:101090000830052908F1010801DA002DF1DC0021F2
:1010A0000CE000EB1973491C1B786D1E082902F82F
:1010B00008304FEA091908F1010801DA002DF0DCC7
:1010C00021688B0602D516E0A8F10108E04505DD90
:1010D00002EB080313F8013C302BF5D0B8F1000FF8
:1010E00009DD02EB080313F8013C2E2B03D109079D
:1010F00001D4A8F10108002D05DD3E2102F80810F9
:101100006D1E08F10108407C002E02F8080008F16D
:10111000010804DA2D20764202F8080002E02B20B4
:1011200002F808000A214FF47A70864208F101089B
:101130000BDB96FBF0F3303302F8083096FBF0F34C
:1011400008F1010800FB136601E0642E0CDB64204B
:1011500096FBF0F3303302F8083096FBF0F308F119
:10116000010800FB136601E00A2E06DB96FBF1F096
:10117000303002F8080008F1010896FBF1F001FB9D
:101180001060303002F80800A16908F1010808EB8E
:10119000050202EB0A00081AA0612078C00602D4FA
:1011A0002046FFF731F9216A08AE01EB0A00206200
:1011B00004E0D4E9012116F8010B9047BAF1010AC5
:1011C000F7D22078C00602D52046FFF71DF96E46FB
:1011D00009E016F8010B3E280FD0D4E90121904711
:1011E000206A401C2062B8F10108F2D22046FFF7C5
:1011F00021F909B00320BDE8F08F206A284420625D
:1012000003E0D4E90121302090476D1EEBD3F8E7CD
:10121000FA5F000002FCFFFF10B5436913B1AFF3A2
:10122000008001E0FFF729F9012010BD127800F1DC
:1012300024010A7000224A700122EDE711684FF084
:10124000FF32E9E710B5436913B1AFF3008001E065
:10125000FFF7B2F9012010BD128800F12401828449
:101260000022C2840122EDE711684FF0FF32E9E766
:1012700070B516460C46054600F040F8036893F832
:101280000101012806D0FF2C0FD8185D68B101209C
:101290002C7070BDD3F807013246214603F20713C4
:1012A00003442846BDE8704018474FF0FF3070BD3A
:1012B000754600F0EBF8AE4605006946534620F04F
:1012C0000700854618B020B5FFF740F8BDE820407C
:1012D0004FF000064FF000074FF000084FF0000BF2
:1012E00021F00701AC46ACE8C009ACE8C009ACE8A5
:1012F000C009ACE8C0098D467047000010B500F089
:1013000005F8001D10BD00BF1141000000487047E6
:10131000CC8700202DE9F0411F46044603260168D2
:10132000072A01F4006004DB08B116A505E016A544
:1013300003E008B115A500E015A521F0100020601C
:10134000A069C01EA0610FB1401EA0612046FFF73A
:101350005BF84FB1D4E9012138469047206A401C20
:101360002062C01C206206E0206AFAE7D4E901216D
:1013700015F8010B9047761EF8D22046FFF75AF871
:10138000BDE8F0814E414E006E616E00494E460050
:10139000696E66002DE9F047814616468AB03548E9
:1013A00078440DC88DE80D0032487844801C03ACA9
:1013B0000DC884E80D0041F69B300844372190FBAE
:1013C000F1F290FBF1F5A5F1800501FB12041B3C45
:1013D00002D56442012000E00020DFF898A080469A
:1013E0000027FA44AAF1BE0A0EE0E0070AD032460E
:1013F000684607EB470101230AEB810100F022FB5D
:101400008DE8070064107F1C002CEED1194F7F443B
:10141000AE3F19E0E80715D007EB04100DF1180AEC
:1014200090E80E008AE80E00C068F04201D19819D9
:1014300008903246012306A903A800F003FB03AB82
:1014400083E807006D10641C002DE3D14FF0010309
:1014500032466946B8F1000F03A802D000F0DDFA69
:1014600001E000F0EFFAC9E90001C9F808200AB06C
:10147000BDE8F0870C5D000010B50446AFF30080B6
:101480002046BDE81040FEF700BF0000004870474E
:10149000AC8700204FF0013C50F8042B51F8043B7E
:1014A0009A4221D1A2EB0C03934313EACC1317D138
:1014B00050F8042B51F8043B9A4215D1A2EB0C03CF
:1014C000934313EACC130BD150F8042B51F8043B8F
:1014D0009A4209D1A2EB0C03934313EACC13DBD05D
:1014E0004FF00000704700BFD01A01BAB1FA81F185
:1014F00001F0180122FA01F0CB40C1F12001DBB26A
:10150000C0B2C01A2CFA01F3D11A914311EAC311E7
:10151000E6D1704701491820ABBEFEE72600020065
:1015200070475FEA400C08BF91F0000F4FEA8C2330
:101530004FEAC12243EA51514FEA1C5018BF00F54F
:10154000F0404FEA300018BF41F000415FEA6C5CA8
:1015500000F02980BCF1FF3F08BF40F08040704799
:10156000130C06BF12044FF0100C4FF0000C130EBA
:1015700004BF12020CF1080C130F04BF12010CF18E
:10158000040C930F04BF92000CF1020CD30F04BFA4
:1015900052000CF1010C11464FF00002A0F11F00A7
:1015A000A0EB0C00704711F0004F08BF704731F0FE
:1015B00000413FF4D5AF0B0C06BF09044FF0100CEF
:1015C0004FF0000C0B0E04BF09020CF1080C0B0FBE
:1015D00004BF09010CF1040C8B0F04BF89000CF14E
:1015E000020CCB0F04BF49000CF1010CCCF120031D
:1015F000A0EB0C0022FA03F302FA0CF241EA030119
:1016000000F10100704720F07F4C80EA030023F0D6
:101610007F47ACEB070303F57C5300F0004003F178
:10162000FF032DE980494FEA154B09B44FEA1443F3
:1016300025EA0B4E24EA03480FF2042606EB132793
:1016400049083E785FEA320203FB0667C7F50007E8
:1016500007FB06F64FEA54374FEAD64606F1020674
:1016600007FB066CCCF1005C4FEA1C472CEA074CE8
:1016700007FB06F40CFB06F504EB15464FEA96163D
:1016800034BF00204FF000404FEAD13706FB07FC83
:101690004FEA1C4C0CFB0BF7D21B03FB0CF761EB66
:1016A00007010CFB0EF7B0EB074072EB17420CFB87
:1016B00008F734BFA2EB0742B2EB074261EB1741D8
:1016C0004FEA0C444FEA910706FB07FC4FEA1C4C1B
:1016D0000CFB0BF7B0EBC74072EB573203FB0CF778
:1016E00034BFA2EBC742B2EBC74261EB57310CFBF0
:1016F0000EF7B0EBC70072EB57720CFB08F734BF64
:10170000A2EBC702B2EBC70261EB5771039F4FEA2E
:10171000816141EA921104EBCC044FEAD1374FEAE0
:10172000826206FB07FC42EA90124FEA80604FEAB1
:101730001C4C0CFB0BF7D21B03FB0CF761EB0701F6
:101740000CFB0EF7B0EB074072EB17420CFB08F7EF
:1017500034BFA2EB0742B2EB074261EB17414FEAFD
:101760008C554FEA910704EB9C2406FB07FC4FEADB
:101770001C4C0CFB0BF7B0EBC74072EB573203FB72
:101780000CF734BFA2EBC742B2EBC74261EB573153
:101790000CFB0EF7B0EBC70072EB57720CFB08F7AF
:1017A00034BFA2EBC702B2EBC70261EB577115EB76
:1017B0004C254FEA816141EA92114FEA82624FEA79
:1017C000D13742EA901206FB07FC44F100044FEACD
:1017D00080604FEA1C4C0CFB0BF7D21B03FB0CF791
:1017E00061EB07010CFB0EF7B0EB074072EB174201
:1017F0000CFB08F734BFA2EB0742B2EB074261EBE8
:10180000174115EB1C154FEA813141EA92414FEA2D
:10181000823242EA90424FEA80304FEA0C7644F13D
:10182000000448EA03434EEA0B484FF0000EB2EBC7
:10183000080C71EB030724BF624639464EEB0E0ECF
:101840004FF0000B0018524149414BEB0B0BB2EB30
:10185000080C71EB03077BF1000B24BF624639468D
:101860004EEB0E0E4FF0000B0018524149414BEB6E
:101870000B0BB2EB080C71EB03077BF1000B24BFE1
:10188000624639464EEB0E0E51EA020718BF46F08B
:10189000010616EB0E7655F1000254F1000103D556
:1018A000BDE88901BDE80088BDE88901BDE80048C0
:1018B000B619524141EB0101A3F101037047808049
:1018C0007F7E7D7C7B7A797877767675747372719A
:1018D00071706F6E6E6D6C6C6B6A6A696868676652
:1018E00066656464636362616160605F5F5E5E5DE4
:1018F0005D5C5C5B5B5A5A59595858575756565558
:1019000055555454535352525251515050504F4FB9
:101910004F4E4E4D4D4D4C4C4C4B4B4B4A4A4A4909
:10192000494948484847474747464646454545444C
:101930004444444343434342424242414141002BD9
:101940009C4630D477002BD01CB54FEA370703B440
:101950004FF010004FF01001BAF1000F06D0BCF1AB
:10196000000FDCBF40F0080040F008014FF000001D
:101970000FBCBDE810400BF1010BBBF1010F08BF1C
:101980005FEA170722BF12F1010211F101014FF0C6
:10199000004143F1000300F0004043EA00007047BB
:1019A000F9D35708D0E746EA064613F1400F4FEA4D
:1019B00016461FDD13F1200FDFBF16430A46002134
:1019C00020335B42BED0C3F1200746EA064602FA46
:1019D00007F74FEA164646EA0706C3F1200722FA40
:1019E00003F201FA07F721FA03F14FF0000342EA8C
:1019F0000702A7E746EA020646EA06464FEA164607
:101A000046EA0106BCBF46EA0646360C4FF0000324
:101A10004FF000024FF0000194E72DE9804C9A4608
:101A2000934670B491E8380007C831EA400C48BFCB
:101A300034EA430C03D5FFF7E6FDFFF780FFF0BC67
:101A4000BDE8008C2DE9804C9A46934670B491E82D
:101A5000380007C810F0804F08BF13F0804F03D143
:101A600000F005F8FFF76BFFF0BCBDE8008C20F03C
:101A70007F4780EA030023F07F4C07EB0C03A3F5BC
:101A80007C5300F00040A3F1FE0392F0000F00F041
:101A9000B38095F0000F00F077802DE901494FEAFF
:101AA00011404FEA144621EA004800FB06FC24EAF4
:101AB000064708FB06F607FB08F800FB07F718EBDC
:101AC00006484CEB164C4FEA124B18EB07484FEA0E
:101AD00015464CEB174022EA0B4E0BFB06FC25EAA1
:101AE00006470EFB06F607FB0EFE0BFB07F71EEB89
:101AF000064E4CEB164C4FF000061EEB074E4CEB1F
:101B0000174B18EB0B0840F1000018EB0E0B58EBCD
:101B1000000840F100008F1A4FF000013CBFC9439C
:101B2000661B14BFB5EB040C00213CBFC943F61B78
:101B30004FEA17444EEA8E0E27EA04454FEA1C4747
:101B400004FB07622CEA074C05FB07F70CFB05F6C4
:101B500004FB0CFC16EB074642EB174216EB0C4657
:101B600042EB1C421BEB060658EB0202414146EADF
:101B70009E0601D5BDE80189B619524141EB01012C
:101B8000A3F10103BDE801894FEA14454FEA11476B
:101B900024EA054621EA074C05FB07F406FB07F794
:101BA0000CFB06F105FB0CFC11EB074144EB174461
:101BB0004FEA124711EB0C4144EB1C4422EA074C5C
:101BC00005FB07F206FB07F70CFB06F605FB0CFC12
:101BD00016EB074642EB174216EB0C4642EB1C4550
:101BE0006A1854F1000148BF7047B619524141EBE1
:101BF0000101A3F10103704795F0000F37D04FEAC0
:101C000011424FEA144721EA024624EA074C02FB3C
:101C100007F106FB07F70CFB06F402FB0CFC14EBC8
:101C2000074441EB17414FEA154714EB0C4441EBD5
:101C30001C4125EA074C02FB07F506FB07F70CFBE6
:101C400006F602FB0CFC16EB074645EB174516EBB8
:101C50000C4645EB1C42121951F1000148BF704778
:101C6000B619524141EB0101A3F1010370474FEA5C
:101C700014454FEA114724EA054621EA074C05FBC3
:101C800007F106FB07F70CFB06F24FF0000605FB19
:101C90000CFC12EB074241EB174112EB0C4251EBEB
:101CA0001C4148BF7047921841EB0101A3F10103A9
:101CB0007047000000B587B00020069001214FF466
:101CC000017001F0A5F84FF4004001F075F8102004
:101CD000ADF8180000208DF81B0003208DF81A00C5
:101CE00006A91B4800F01EFA1A4800F041F800202F
:101CF00001908DF8080001208DF809004FF4602054
:101D000003900020049001208DF8140001A91148CF
:101D100000F07EF80523012204210E4800F0A0F80F
:101D200001210C4800F018F80A4800F0F5F800BF4F
:101D3000084800F062F80028FAD1064800F0FCF8E4
:101D400000BF044800F042F80028FAD107B000BDF7
:101D5000000801400024014021B1826842F00102E4
:101D6000826003E0826822F0010282607047000016
:101D700010B504461248844208D10121401501F0F3
:101D800057F80021601501F053F817E00D48844220
:101D900008D10121001501F04BF80021201501F0B8
:101DA00047F80BE00848844208D10121C80301F03C
:101DB0003FF800214FF4004001F03AF810BD000058
:101DC0000024014000280140003C01400146002061
:101DD0008A6802F004020AB1012000E00020704786
:101DE0000146C86C80B270470246002013680B4061
:101DF0000BB1012000E000207047014600208A68F6
:101E000002F008020AB1012000E000207047000043
:101E100030B502460020002350680F4C20400D7959
:101E20000C6844EA05242043506090680B4C204025
:101E3000D1E902542C434D7944EA45042043906093
:101E4000D06A20F470000C7C641EE4B2234340EAA4
:101E50000350D06230BD0000FFFEF0FFFDF7F1FF40
:101E6000F0B504460D4600200021092D11DDE06883
:101E7000A5F10A0606EB4607072606FA07F188438E
:101E8000A5F10A0606EB460603FA06F10843E060F0
:101E90000CE0206905EB4507072606FA07F18843A1
:101EA00005EB450603FA06F108432061072A0FDA1D
:101EB000606B561E06EB86071F2606FA07F188435D
:101EC000561E06EB860605FA06F10843606322E01B
:101ED0000D2A0FDA206BD61F06EB86071F2606FA9F
:101EE00007F18843D61F06EB860605FA06F108437C
:101EF000206310E0E06AA2F10D0606EB86071F26BC
:101F000006FA07F18843A2F10D0606EB860605FAEC
:101F100006F10843E062F0BD816841F0080181608C
:101F2000704721B1826842F4A002826003E08268B7
:101F300022F4A00282607047816841F00401816050
:101F40007047000070B5044600251BE004F0010056
:101F500028B14FF400710D4800F0C3F904E04FF4CC
:101F600000710A4800F0BBF94FF48061074800F0A7
:101F7000B6F900BF4FF48061044800F0B2F9641074
:101F8000681CC5B2082DE1DB70BD000000180140DF
:101F900010B504464FF48071064800F0A2F900BF66
:101FA0004FF48071034800F09AF900BF2046FFF714
:101FB000C9FF10BD001801401CB54FF4E13000F01E
:101FC0005FF80B48142100234FF40072CDE9001094
:101FD00008A10B4803F0B4F800200C2103464FF48D
:101FE0000072CDE9001007A10B4803F0A9F81CBD51
:101FF0001C0000207652435374617274000000008C
:10200000C94E000876496E746572616374696F6EBB
:1020100053746172740000002D4B00080FB430B58A
:10202000C1B01548007818B3002445A800904FF4BB
:10203000807101A8009B449AFEF79AF9C5B20EE0A0
:102040002046621CD4B201AA115C0C4802F06DF962
:1020500000BF4021094802F09BF80028F9D0FF2C6E
:1020600003DAAC4201DA002DEADC0020009000BF68
:1020700041B030BC5DF814FB200000200038014066
:1020800010B586B00446254802F034F8012104203A
:1020900000F0BEFE0121880300F0BAFE01210420F9
:1020A00000F0CCF84FF4C060ADF8140018208DF8A3
:1020B000170003208DF8160005A9194800F032F822
:1020C00001940020ADF80800ADF80A00ADF80C004E
:1020D000ADF810000C20ADF80E0001A90F4802F079
:1020E000B3F801210D4801F0F8FF012240F225511B
:1020F0000A4802F084F84021084801F0E5FF252055
:102100008DF800000A208DF8010001208DF80300F1
:10211000684600F02FF906B010BD000000380140FD
:10212000000801402DE9F04102460025002600206C
:1021300000230024002791F803C00CF00F0591F84C
:1021400003C00CF0100CBCF1000F03D091F802C0DA
:102150004CEA050591F800C0BCF1000F31D01468BD
:1021600000202BE04FF0010C0CFA00F3B1F800C096
:102170000CEA03069E4220D183004FF00F0C0CFAAC
:1021800003F7BC4305FA03FC4CEA040491F803C0CE
:10219000BCF1280F06D14FF0010C0CFA00FCC2F87C
:1021A00014C00AE091F803C0BCF1480F05D14FF00C
:1021B000010C0CFA00FCC2F810C0401C0828D1D356
:1021C0001460B1F800C0BCF1FF0F34DD546800208A
:1021D0002EE000F1080C4FF0010808FA0CF3B1F8FA
:1021E00000C00CEA03069E4221D183004FF00F0C81
:1021F0000CFA03F7BC4305FA03FC4CEA040491F81B
:1022000003C0BCF1280F05D100F1080C08FA0CF846
:10221000C2F8148091F803C0BCF1480F07D100F157
:10222000080C4FF0010808FA0CF8C2F81080401CA6
:102230000828CED35460BDE8F0810000F0B50A460E
:10224000002300240021002500F00046B6F1004FD5
:1022500002D11D4EF16901E01B4E7168C0F30345C8
:1022600083B200F44016B6F5401F08D121F070612A
:10227000154E766826F07066134F7E6012E000F40B
:102280008016B6F5801F06D1032606FA05F4A14391
:1022900041F0706106E0460D360103FA06F6B143DF
:1022A00041F0706122B1460D360103FA06F6314362
:1022B00000F00046B6F1004F02D1034EF16101E09B
:1022C000014E7160F0BD0000000001400246002098
:1022D00093680B400BB1012000E000207047416182
:1022E000704701617047000008B50020009001218F
:1022F000042000F08DFD01210803FFF79FFFC0209F
:10230000ADF8000004208DF8030003208DF80200D2
:1023100069460248FFF706FF08BD000000080140BB
:102320002DE9F84305460E46174698468DF80050AD
:102330008DF801608DF802708DF80380C020FFF7E2
:1023400027FE002408E01DF80400FFF7FBFD002035
:10235000FFF7F8FD601CC4B2042CF4DB8B20FFF700
:1023600017FE4FF480710248FFF7BBFFBDE8F8830A
:102370000018014070B5002100230F22C47804B377
:10238000154C246804F4E064C4F5E064210AC1F14A
:102390000403CA40447804FA03F1847814402143CA
:1023A00009010E4C0678A155047804F01F0501249C
:1023B000AC4005786D11AD0005F1E025C5F8004190
:1023C00009E0047804F01F050124AC40044D0678B0
:1023D000761145F8264070BD0CED00E000E400E009
:1023E00080E100E008B50121402000F011FD4FF42C
:1023F000E060ADF8000010208DF8030003208DF898
:10240000020069460348FFF78DFE0320FFF7C0FD79
:1024100008BD00000018014070B500240CE0002544
:1024200006E00020074901EBC5010855681CC5B24C
:10243000802DF6DB601CC4B2082CF0DB00F0FEF847
:1024400070BD0000C8000020F0B5144600267F28AB
:1024500001DC3F2900DDF0BD0B46CF1701EB5777BC
:10246000FF10C7F10707FAB2CF1701EB5777FF103C
:10247000A1EBC707FDB2C5F107070123BB40DEB2E0
:102480004CB10A4B03EBC0039B5C3343074F07EB94
:10249000C007BB5408E0054B03EBC0039B5CB34390
:1024A000024F07EBC007BB5400BFD4E7C8000020B1
:1024B00008B50121182000F0ABFC4FF47040ADF8D6
:1024C000000010208DF8030003208DF802006946FB
:1024D0005348FFF727FE0820ADF8000010208DF8C4
:1024E000030003208DF8020069464E48FFF71AFEEC
:1024F0004FF400514A48FFF7F4FE08214948FFF71E
:10250000F0FE4FF480414648FFF7EBFE4FF4805158
:102510004348FFF7E4FE4FF400414148FFF7DFFE78
:10252000002005E000BF00BF00BF00BF411C88B213
:1025300042F210718842F5DB4FF400413848FFF752
:10254000D0FE0021AE2000F09FF90021D52000F040
:102550009BF90021502000F097F90021A82000F0FD
:1025600093F900213F2000F08FF90021D32000F0E3
:102570008BF90021084600F087F90021402000F087
:1025800083F900218D2000F07FF90021142000F054
:102590007BF90021202000F077F90021022000F0D3
:1025A00073F90021A02000F06FF90021C82000F08D
:1025B0006BF90021DA2000F067F90021122000F009
:1025C00063F90021812000F05FF90021EF2000F085
:1025D0005BF90021D92000F057F90021F12000F02B
:1025E00053F90021DB2000F04FF90021302000F0EA
:1025F0004BF90021A42000F047F90021A62000F0AB
:1026000043F90021AF2000F03FF9FFF705FF102349
:1026100005A20021084600F007F900F00FF808BDF8
:10262000000C01400010014048656C6C6F20527036
:102630006920657874656E640000000070B5002440
:102640001CE004F1B001C8B2002100F01DF9002126
:10265000084600F019F90021102000F015F90025B6
:1026600008E0084901EBC501085D012100F00CF903
:10267000681CC5B2802DF4DB601CC4B2082CE0DB02
:1026800070BD0000C80000202DE9F84F80460F46BD
:1026900016461C46BA462046E31704EB5373DB107C
:1026A00021464FEAE47C04EB5C7C4FEAEC0CA4EBA3
:1026B000CC0CBCF1000F02D04FF0010C01E04FF048
:1026C000000C6344224604EBD27C4FEA6C0C03FB03
:1026D0000CF303F0FF0BA6F12000C6B200254EE07C
:1026E0000C2C07D106EB4600274901EB8000405D2A
:1026F000009013E0102C05D1244800EB0610405D3B
:1027000000900BE0182C07D106EBC600204901EB26
:102710008000405D009001E0BDE8F88F4FF00009B7
:1027200027E0009800F0800028B1394640460A9A18
:10273000FFF78AFE09E00A9808B9012000E00020AE
:10274000024639464046FFF77FFE00984006000EDD
:102750000090781CC7B2A7EB0A00A04205D15746EB
:1027600008F1010000F0FF0806E009F1010000F0A7
:10277000FF09B9F1080FD4DB00BF681CC5B25D4585
:10278000AEDB00BFC8E700000A5800087E5C000806
:102790006E6200082DE9FF4F81B0074691461E4644
:1027A0000E9D4FF0000A002439E0301B401EC1B2DC
:1027B0000A2001F0C1FEB9FBF0F00A21B0FBF1F2F2
:1027C00001FB1208BAF1000F16D1701EA04213DDF2
:1027D000B8F1000F0ED10120AB4605EBDB714910BB
:1027E00001FB04710090C8B22B4620220299FFF72A
:1027F0004BFF12E04FF0010A0120AB4605EBDB7105
:10280000491001FB04710090C8B208F13001CAB24E
:102810002B460299FFF738FF00BF601CC4B2B442D8
:10282000C3DB05B0BDE8F08FF8B506460F46154688
:102830001C4621E004EBD4714910C1F18001B14282
:1028400002DA00263819C7B2C4F14000B84204DAEF
:10285000002006460746FFF7DFFD012000902A789A
:10286000234639463046FFF70FFF204604EBD07170
:1028700006EB6101CEB26D1C28787E2802DC287838
:102880002028D7DAF8BD000070B504460E46002EA9
:1028900005DD4FF480411B48FFF723FD04E04FF4B2
:1028A00080411848FFF71BFD00BF00BF4FF40051E7
:1028B0001448FFF714FD00251BE004F0800020B150
:1028C00008211148FFF70DFD03E008210E48FFF72E
:1028D00006FD4FF400510B48FFF703FD00BF00BF9A
:1028E0004FF400510748FFF7FAFC6006040E681C1D
:1028F000C5B2082DE1DB4FF480410248FFF7F1FC3F
:1029000070BD0000000C01400010014000B589B00E
:10291000002007900121102000F07AFA0121022006
:1029200000F056FA0121084600F072FA01212F4802
:10293000FFF784FC4FF47070ADF81C0004208DF894
:102940001F0003208DF81E0007A92948FFF7EAFBA6
:102950004FF6FF70ADF814000820ADF8100000200D
:10296000ADF81200ADF8160004A9224801F046FBAC
:102970001D208DF8200006208DF8210001208DF803
:10298000230008A8FFF7F6FC0020ADF806000120A0
:10299000ADF808000020ADF80A00ADF80C00ADF865
:1029A000040001A9134801F03FF90420ADF8040028
:1029B00001A9104801F038F90820ADF8040001A978
:1029C0000C4801F031F90C20ADF8040001A90948C8
:1029D00001F02AF901221F21064801F07BF90121AB
:1029E000044801F004F909B000BD0000000C1A0011
:1029F000001001400004004000B589B0002007909D
:102A00000121042000F004FA0121082000F000FA5E
:102A10000121084600F0DCF90121084600F0F8F930
:102A200001213948FFF70AFC01213848FFF706FC6D
:102A300040F60840ADF81C0004208DF81F0003206C
:102A40008DF81E0007A93248FFF76CFB4FF40040D9
:102A5000ADF81C001C208DF81F0003208DF81E000F
:102A600007A92C48FFF75EFB4FF6FF70ADF8140086
:102A70000820ADF810000020ADF81200ADF81600E7
:102A800004A94FF0804001F0B9FA1C208DF8200015
:102A900007208DF8210001208DF8230008A8FFF7FA
:102AA00069FC0020ADF806000120ADF80800002008
:102AB000ADF80A00ADF80C00ADF8040001A94FF024
:102AC000804001F0B1F80420ADF8040001A900072E
:102AD00001F0AAF80820ADF8040001A9C00601F031
:102AE000A3F80C20ADF8040001A94FF0804001F0DC
:102AF0009BF801221F21900701F0ECF801218807C3
:102B000001F075F809B000BD0003180000023000A4
:102B1000000C01400008014000B589B00020089079
:102B20000590069007900190029003900490012177
:102B3000202000F06DF90121042000F049F9012165
:102B4000084600F065F901210803FFF777FB4FF411
:102B50007040ADF8200018208DF8230003208DF878
:102B6000220008A92448FFF7DDFA0120ADF814007F
:102B70000020ADF81A00ADF8160044F62060ADF85C
:102B8000180005A91D4801F039FA6020ADF80400CD
:102B90000120ADF806000020ADF80C0041F28830AD
:102BA000ADF80A0001A9154801F09EF80821134864
:102BB00001F0E6F801A9114801F0ECF808210F48EE
:102BC00001F03AF901A90D4801F044F908210B4838
:102BD00001F090F901A9094801F096F90821074888
:102BE00001F0D0F90121054800F0F2FF012103486E
:102BF00000F0FDFF09B000BD0014014000080040D6
:102C000070B505460C4644F62060844200DD04465B
:102C1000032D0DD004DC012D12D0022D1DD10BE0AF
:102C2000042D02D0FF2D18D10EE01048048015E0CD
:102C30000E48001D048011E00C48083004800DE0AF
:102C40000A480C30048009E008480480001D048014
:102C5000001D0480001D048000E000BF00BF44F69A
:102C600020610248343801F09AF970BD3408004000
:102C700000B589B00020089005900690079001905B
:102C80000290039004900121042000F0C1F801217A
:102C9000082000F09DF80F20ADF8200018208DF8D6
:102CA000230003208DF8220008A92548FFF73AFAEF
:102CB0004720ADF814000020ADF81A00ADF816005A
:102CC00044F62060ADF8180005A91E4801F096F9F9
:102CD0006020ADF804000120ADF806000020ADF83A
:102CE0000C0041F28830ADF80A0001A9154800F047
:102CF000FBFF0821134801F043F801A9114801F036
:102D000049F808210F4801F097F801A90D4801F092
:102D1000A1F808210B4801F0EDF801A9094801F0DC
:102D2000F3F80821074801F02DF90121054800F0CA
:102D30004FFF0121034800F05AFF09B000BD000019
:102D400000080140000C004070B505460C4644F6F2
:102D50002060844200DD0446032D11D004DC012DE7
:102D600007D0022D1DD107E0042D0DD0FF2D18D165
:102D70000EE01048048015E00E48001D048011E0AC
:102D80000C48083004800DE00A480C30048009E04B
:102D900008480480001D0480001D0480001D04807C
:102DA00000E000BF00BF44F620610248343801F063
:102DB000F6F870BD340C004001460020034A50680C
:102DC00020F440400843506070470000001002406B
:102DD00029B1064AD2690243044BDA6104E0034A8E
:102DE000D2698243014BDA61704700000010024053
:102DF00029B1064A12690243044B1A6104E0034AEE
:102E000012698243014B1A617047000000100240B2
:102E100029B1064A92690243044B9A6104E0034ACD
:102E200092698243014B9A61704700000010024092
:102E300029B1064AD2680243044BDA6004E0034A2F
:102E4000D2688243014BDA607047000000100240F4
:102E50002DE9F04100210022002500230026002456
:102E600000278C46DFF86081D8F8048008F00C0158
:102E700021B1042907D0082959D109E0DFF84C8194
:102E8000C0F8008058E0DFF84881C0F8008053E0C7
:102E9000DFF83481D8F8048008F47012DFF8288154
:102EA000D8F8048008F48035920C0D2A01D0921CC9
:102EB00000E0062235B9DFF81C8102FB08F8C0F8F3
:102EC000008033E0DFF80081D8F82C8008F48036E9
:102ED000DFF8F480D8F82C8008F00F0808F101041E
:102EE00046B9DFF8EC80B8FBF4F808FB02F8C0F84C
:102EF00000801BE0DFF8D080D8F82C80C8F30318DE
:102F000008F10107DFF8C080D8F82C80C8F3032847
:102F100008F1020CDFF8B880B8FBF7F808FB0CF8F2
:102F2000B8FBF4F808FB02F8C0F8008004E0DFF812
:102F30009C80C0F8008000BF00BFDFF88C80D8F80C
:102F4000048008F0F0010909DFF88C8018F80130DE
:102F5000D0F8008028FA03F8C0F80480DFF8688011
:102F6000D8F8048008F4E061090ADFF86C8018F8EA
:102F70000130D0F8048028FA03F8C0F80880DFF8A0
:102F80004880D8F8048008F46051C90ADFF8488006
:102F900018F80130D0F8048028FA03F8C0F80C8043
:102FA000DFF82480D8F8048008F44041890BDFF86A
:102FB0002C8018F80130D0F80C80B8FBF3F8C0F87A
:102FC0001080BDE8F08100000010024000127A007D
:102FD00040787D0100093D00000000201000002025
:102FE00010B5044625488079012808D10021022027
:102FF000FFF706FE21880120FFF702FE14E01F48BC
:103000008079022808D100210120FFF7F9FD2188ED
:103010000220FFF7F5FD07E000210120FFF7F0FD9A
:1030200000210220FFF7ECFD6088B0F57A6F1FDC0D
:10303000A088B0F57A6F1BDC608840B1608843F2ED
:10304000C822101A81B20120FFF77EFE15E0A08889
:1030500040B1A08843F2C822104481B20120FFF79A
:1030600073FE0AE043F2C8210120FFF76DFE04E081
:1030700043F2C8210120FFF767FE10BD14000020B5
:1030800010B54148808943F2C821884208DD0220FA
:103090003E49887100221146012000F0A5F80DE09C
:1030A0003948808942F6F821884207DA01203749F9
:1030B000887100220121104600F096F8324880887D
:1030C00042F22831884212DD2F488088A0F508504E
:1030D0006038642190FBF1F0C0EBC00101EB4010BF
:1030E0004FF6FF7101EAC0002849088002E0002085
:1030F000264908802448008842F6447188421BDD36
:1031000021490988A1F53851E03901EB81014800D6
:10311000C11700EB5171C1F3CF011C4A5180104619
:103120004088B0F57A6F03DD4FF47A60114648802D
:1031300000201649888025E01348008842F67C610B
:1031400088421BDA0020114948800F49098842F65D
:10315000E062511A01EB81014800C11700EB517187
:10316000C1F3CF01094A918010468088B0F57A6F8B
:1031700008DD4FF47A601146888003E0002003499F
:103180004880888010BD0000B80000201400002096
:1031900010B5032001F056F912490880022001F011
:1031A00051F910494880012001F04CF90D498880FF
:1031B000002001F047F90B49C880002001F04EF9CA
:1031C00008490881022001F049F906494881032095
:1031D00001F044F903498881012001F03FF90149D8
:1031E000C88110BDB800002070B506460C461546D3
:1031F000002E05DD4FF400511148FFF770F804E090
:103200004FF400510E48FFF76CF8002C05DD4FF429
:1032100080410B48FFF763F804E04FF48041084811
:10322000FFF75FF8002D05DD4FF400610448FFF75C
:1032300056F804E04FF400610148FFF752F870BD02
:103240000018014008B50020009001214020FFF740
:10325000DFFD4FF4D040ADF8000010208DF80300E2
:1032600003208DF8020069460148FEF75BFF08BDA8
:103270000018014010B500F001F810BD0CB5002099
:10328000019000903F48006840F480303D4908605C
:1032900000BF3C48006800F4003000900198401CDA
:1032A0000190009818B90198B0F5A06FF1D1354898
:1032B000006800F4003010B10120009001E000200F
:1032C0000090009801285CD12F48006840F0100061
:1032D0002D4908600846006820F003000860084691
:1032E000006840F0020008602648406825494860B0
:1032F0000846406848600846406840F4806048607E
:103300000846C06A214908401E49C8620846C06A8A
:103310001F4908431B49C8620846006840F08060A6
:10332000086000BF1748006800F000600028F9D06E
:103330001448406820F47C101249486008464068F0
:1033400040F4E81048600846006840F0807008606B
:1033500000BF0C48006800F000700028F9D0094850
:10336000406820F00300074948600846406840F084
:103370000200486000BF0348406800F00C000828C5
:10338000F9D10CBD001002400020024000F0FEFF09
:103390004406010010B500BFBF2080F31188BFF3C1
:1033A0004F8FBFF36F8F00BF01F0FAFE18B14FF0DF
:1033B00080500449086000BF002080F3118800BFDE
:1033C00010BD000004ED00E010B51648006840F0A4
:1033D0000100144908600846406813490840114933
:1033E000486008460068114908400E4908600846D0
:1033F000006820F4802008600846406820F4FE0041
:1034000048600846006820F0A05008604FF47F0034
:1034100088600020C862FFF72DFF4FF0006004496C
:10342000086010BD001002400000FFF0FFFFF6FE34
:1034300008ED00E0F0B50C46154600220021068C90
:103440004FF6FE773E400684028B018C4FF60C76D9
:1034500032407E1C06EA03162E433243104EB04221
:103460000ED0104EB0420BD0B0F1804F08D00E4EAF
:10347000B04205D00D4EB04202D00D4EB04206D142
:103480004FF6FD76314044F00106314305E04FF63A
:10349000F576314044F00106314302830184F0BDEA
:1034A000002C0140003401400004004000080040AE
:1034B000000C0040F0B50C46154600220021002605
:1034C000078C4FF6EF7C07EA0C070784028B018C10
:1034D0004FF6FF7707EA041640F6FF473A404FF6EB
:1034E000FF7707EA03373A434FF6FF7707EA0527E6
:1034F0003A43114FB8420ED0104FB8420BD0B0F142
:10350000804F08D00E4FB84205D00E4FB84202D0BF
:103510000D4FB84206D14FF6DF77394046F010071D
:10352000394305E04FF65F77394044F010073943DF
:1035300002830184F0BD0000002C014000340140F2
:103540000004004000080040000C0040F0B50C46AC
:103550001546002200210026078C4FF6FF6C07EA73
:103560000C070784828B018C4FF6FF7707EA04264D
:103570004FF60C773A404FF6FF7707EA03172F43D1
:103580003A43114FB8420ED0104FB8420BD0B0F1B1
:10359000804F08D00E4FB84205D00E4FB84202D02F
:1035A0000D4FB84206D14FF6FF57394046F48077A9
:1035B000394305E04FF2FF57394044F480773943EF
:1035C00082830184F0BD0000002C014000340140E2
:1035D0000004004000080040000C0040F0B50C461C
:1035E0001546002200210026078C4EF6FF7C07EAD4
:1035F0000C070784828B018C4FF6FF7707EA0436AD
:1036000040F6FF473A404FF6FF7707EA05273A436F
:103610004FF6FF7707EA03373A43114FB8420ED00F
:10362000104FB8420BD0B0F1804F08D00E4FB842C7
:1036300005D00E4FB84202D00D4FB84206D14DF61C
:10364000FF77394046F48057394305E047F6FF5786
:10365000394044F48057394382830184F0BD00002F
:10366000002C0140003401400004004000080040EC
:10367000000C004010B50221480700F0C4FA0028F1
:103680004BD0A248007800F0010098B19F48007824
:1036900020F001009D4908704FF08040808E9C49C9
:1036A00008804FF08040008C40F002004FF08041D5
:1036B00008842AE09548007840F00100934908709A
:1036C0004FF08040808E934908804FF08040008CFE
:1036D00020F002004FF0804108848D4800888D4919
:1036E000098888420ADD8A4800884FF6FF71081A67
:1036F0008849098808448849088006E08548008888
:1037000083490988401A844908804FF08040008A24
:1037100020F002004FF0804108820421080700F0E9
:1037200072FA00284BD07948007800F0020098B176
:103730007648007820F00200744908704FF080400D
:10374000008F734948804FF08040008C40F020008B
:103750004FF0804108842AE06C48007840F0020075
:103760006A4908704FF08040008F6A4948804FF0E6
:103770008040008C20F020004FF080410884644895
:1037800040886449498888420ADD614840884FF68C
:10379000FF71081A5F49498808445F49488006E07C
:1037A0005C4840885A494988401A5B4948804FF034
:1037B0008040008A20F004004FF0804108820821F8
:1037C000C80600F020FAE0B35048007800F004008A
:1037D00098B14E48007820F004004C4908704FF032
:1037E0008040808F4A4988804FF08040008C40F4B0
:1037F00000704FF0804108842BE04448007840F08E
:103800000400424908704FF08040808F4149888011
:103810004FF08040008C20F400704FF0804108840D
:103820003B4880883B49898888420BDD384880883E
:103830004FF6FF71081A374989880844364988804D
:1038400007E00EE03348808831498988401A3249C0
:1038500088804FF08040008A20F008004FF08041BF
:1038600008821021880600F0CEF9D0B327480078EE
:1038700000F0080090B12548007820F008002349A6
:103880000870264800882249C8804FF08040008C8C
:1038900040F400504FF0804108842AE01B48007833
:1038A00040F00800194908701C4800881949C88070
:1038B0004FF08040008C20F400504FF0804108848D
:1038C0001348C0881349C98888420BDD1048C08856
:1038D0004FF6FF71081A0F49C98808440E49C8807D
:1038E00007E00EE00B48C0880949C988401A0A4918
:1038F000C8804FF08040008A20F010004FF08041D7
:1039000008820121880700F06FF910BD54000020E3
:10391000440000204C0000202A000020400000400D
:1039200010B50221A54800F06EF900284BD0A4483C
:10393000007800F0010098B1A148007820F0010063
:103940009F4908709D48343000889E4908809B48F4
:103950002030008840F002009849203108802AE099
:103960009748007840F0010095490870934834303A
:1039700000889549088091482030008820F0020096
:103980008E49203108808F4800888F4909888842F5
:103990000ADD8C4800884FF6FF71081A8A490988A9
:1039A00008448A49088006E08748008885490988D4
:1039B000401A8649088081481030008820F00200B3
:1039C0007E491031088004217C4800F01CF9002851
:1039D0004BD07B48007800F0020098B1784800781E
:1039E00020F0020076490870744838300088754924
:1039F000488072482030008840F020006F49203114
:103A000008802AE06E48007840F002006C49087097
:103A10006A48383000886C494880684820300088FF
:103A200020F02000654920310880664840886649BA
:103A3000498888420ADD634840884FF6FF71081ABA
:103A40006149498808446149488006E05E484088E9
:103A50005C494988401A5D494880584810300088C0
:103A600020F004005549103108800821534800F027
:103A7000CAF8E0B35248007800F0040098B150480A
:103A8000007820F004004E4908704C483C30008813
:103A90004C49888049482030008840F400704749EC
:103AA000203108802BE04648007840F0040044496B
:103AB000087042483C300088434988803F482030A5
:103AC000008820F400703D49203108803D488088FE
:103AD0003D49898888420BDD3A4880884FF6FF715E
:103AE000081A3949898808443849888007E00EE077
:103AF0003548808833498988401A344988802F485E
:103B00001030008820F008002C4910310880102166
:103B10002A4800F078F8E0B32948007800F008005F
:103B200098B12748007820F00800254908702348FC
:103B3000403000882349C88020482030008840F465
:103B400000501E49203108802BE01D48007840F0CD
:103B500008001B4908701948403000881A49C8807D
:103B600016482030008820F4005014492031088085
:103B70001448C0881449C98888420BDD1148C088A0
:103B80004FF6FF71081A1049C98808440F49C880C8
:103B900007E00EE00C48C0880A49C988401A0B4962
:103BA000C88006481030008820F01000034910310A
:103BB00008800121014800F017F810BD0004004002
:103BC00042000020320000203A00002022000020A5
:103BD00021B1028842F08002028004E002884FF6A0
:103BE0007F731A4002807047CA430282704721B136
:103BF000028842F00102028004E002884FF6FE7360
:103C00001A400280704730B502460020002300248D
:103C1000158A05EA0103958905EA010413B10CB17F
:103C2000012000E0002030BD70B505460C46244858
:103C300085420ED0234885420BD0B5F1804F08D085
:103C40002148854205D02148854202D0204885423E
:103C500000D100E000BF208850B92389A288618884
:103C60002846FFF7E7FBE188284600F09AF925E0AF
:103C7000208804280AD12389A28861882846FFF772
:103C800019FCE188284600F095F917E020880828FB
:103C90000AD12389A28861882846FFF757FCE1886A
:103CA000284600F094F909E02389A2886188284613
:103CB000FFF794FCE188284600F092F970BD0000FF
:103CC000002C014000340140000400400008004086
:103CD000000C00401AB183890B43838102E0838981
:103CE0008B4383817047000070B5002400220023BD
:103CF000058C4FF6FE7635400584028C8388048B54
:103D00004FF68F752C40B51E2C400D882C43751E28
:103D10002A400D892A434D882A43144DA8420BD0CE
:103D2000134DA84208D0134DA84205D0124DA84209
:103D300002D0124DA84213D14FF6F7752A404D8993
:103D40002A434FF6FB752A408D882A434FF6FF65BC
:103D50002B404FF6FF552B408D892B43CD892B43AC
:103D600083800483CD888586028470BD002C014049
:103D7000003401400040014000440140004801403F
:103D80000A460021018B4FF6F77319401143018356
:103D90007047000070B5002400220023058C4FF608
:103DA000EF7635400584028C8388048B48F6FF75D6
:103DB0002C404FF6FF452C400D884FF6FF7606EA63
:103DC00005252C434FF6DF752A400D8906EA0515B7
:103DD0002A434D8806EA05152A43154DA84202D00C
:103DE000144DA8421DD14FF67F752A404D894FF6DC
:103DF000FF7606EA05152A434FF6BF752A408D88DF
:103E000006EA05152A434FF6FF352B404FF2FF75A2
:103E10002B408D8906EA85052B43CD8906EA850569
:103E20002B4383800483CD880587028470BD000006
:103E3000002C0140003401400A460021018B4FF262
:103E4000FF7319404FF6FF7303EA022319430183FE
:103E50007047000070B5002400220023058C4FF647
:103E6000FF6635400584028C8388848B4FF68F75FE
:103E70002C404FF6FC752C400D882C434FF6FF5517
:103E80002A400D894FF6FF7606EA05252A434D881C
:103E900006EA05252A43154DA84202D0144DA84232
:103EA0001DD14FF2FF752A404D894FF6FF7606EA85
:103EB00005252A434FF6FF352A408D8806EA052559
:103EC0002A434EF6FF752B404DF6FF752B408D892A
:103ED00006EA05152B43CD8906EA05152B43838099
:103EE0008483CD888587028470BD0000002C01404A
:103EF000003401400A460021818B4FF6F7731940C8
:103F0000114381837047000070B500220023002414
:103F1000058C4EF6FF7635400584038C8488828BB1
:103F200048F6FF752A404FF6FF452A400D884FF6A8
:103F3000FF7606EA05252A434DF6FF752B400D89CD
:103F400006EA05352B434D8806EA05352B430B4D14
:103F5000A84202D00A4DA84208D14BF6FF752C406A
:103F60008D894FF6FF7606EA85152C43848082837F
:103F7000CD88A0F84050038470BD0000002C0140A3
:103F8000003401400A460021818B4FF2FF73194033
:103F90004FF6FF7303EA022319438183704781853B
:103FA0007047028B4FF6F3731A400283028B0A4369
:103FB00002837047028B4FF2FF331A400283028B59
:103FC0004FF6FF7303EA01231A4302837047828B83
:103FD0004FF6F3731A408283828B0A4382837047C1
:103FE000828B4FF2FF331A408283828B4FF6FF732E
:103FF00003EA01231A4382837047000000220288EB
:104000001D4B98420ED01D4B98420BD0B0F1804F03
:1040100008D01B4B984205D01A4B984202D01A4B3D
:10402000984204D14FF68F731A404B881A43174BAE
:10403000984207D0164B984204D04FF6FF431A40DF
:10404000CB881A4302808B8883850B8803850A4BB3
:1040500098420BD0094B984208D00E4B984205D09D
:104060000D4B984202D00D4B984201D10B7A03863A
:104070000123838270470000002C0140003401407E
:104080000004004000080040000C00400010004008
:10409000001400400040014000440140004801403D
:1040A00010B540F22551074800F07FF840B10548AF
:1040B00000F036F9C4B240F22551024800F004F88D
:1040C00010BD00000038014001F40072B2F5007F1D
:1040D00000D100BFCA430280704721B1828942F4F7
:1040E0000052828104E082894DF6FF731A4082817A
:1040F0007047000010B504462048844209D10121D0
:104100008803FEF795FE00214FF48040FEF790FEF5
:1041100032E01B48844209D101214804FEF768FEC1
:1041200000214FF40030FEF763FE25E0154884427D
:1041300009D101218804FEF75BFE00214FF48020A5
:10414000FEF756FE18E01048844209D10121C80448
:10415000FEF74EFE00214FF40020FEF749FE0BE073
:104160000A48844208D101210805FEF741FE0021DA
:104170004FF48010FEF73CFE10BD000000380140F7
:104180000044004000480040004C00400050004007
:1041900002460020B1F5007F00D100BF13880B401C
:1041A0000BB1012000E00020704770B502460024EA
:1041B00000230025002040F66A16B14200D100BF5E
:1041C000C1F3421501F01F03012606FA03F3012D86
:1041D00002D19689334006E0022D02D1168A33407F
:1041E00001E0968A33400C12012606FA04F4168880
:1041F000344013B10CB1012000E0002070BDF0B5D7
:104200000346002400260025002040F66A17B94224
:1042100000D100BF1846C1F3421401F01F06012768
:1042200007FA06F5012C01D10C3004E0022C01D173
:10423000103000E014301AB107682F43076002E025
:104240000768AF430760F0BD2DE9F04786B005462B
:104250000E460024A24600BFA1460027B08900B147
:1042600000BF2F462C8A4CF6FF700440F0880443B0
:104270002C82AC894EF6F3100440B0883189084393
:10428000718908430443AC81AC8A4FF6FF40044077
:10429000B0890443AC8201A8FEF7DAFD1F488742CB
:1042A00002D1DDF810A001E0DDF80CA0A88900F42F
:1042B000004040B10AEBCA0000EB0A103168490027
:1042C000B0FBF1F807E00AEBCA0000EB0A10316816
:1042D0008900B0FBF1F86420B8FBF0F0040120097C
:1042E000642101FB1089A88900F4004040B132200C
:1042F00000EBC900B0FBF1F000F00700044308E058
:10430000322000EB09106421B0FBF1F000F00F0047
:1043100004432C8106B0BDE8F0870000003801405E
:1043200001468888C0F308007047C1F30802828004
:104330007047490050EAC12018BF04204A0D18BF39
:1043400040F0010040F2FF72B2EB515F08BF40F055
:104350000200012808BF0520704730380A2801D222
:1043600001207047002070472DE9F041044642F2D9
:104370000F70844200DD00240A2094FBF0F100FB62
:10438000114012490D5C0A2094FBF0F00A2190FBC9
:10439000F1F201FB12000D490E5C642094FBF0F079
:1043A0000A2190FBF1F201FB120008490F5C4FF467
:1043B0007A7094FBF0F011F800802B4632463946B3
:1043C0004046FDF7ADFFBDE8F08100000058000851
:1043D00010B540211948FDF779FF70B9322000F07F
:1043E00089FD40211548FDF771FF60B91448007838
:1043F00040F001001249087005E01148007820F0F3
:1044000001000F49087080210C48FDF75FFF70B96B
:10441000322000F06FFD80210848FDF757FF60B99A
:104420000748007840F002000549087005E004489C
:10443000007820F002000249087010BD0008014019
:10444000550000200146032901DD00207047024885
:1044500030F81100FAE7000022000020014603298D
:1044600001DD00207047024830F81100FAE7000033
:104470002A0000200146012906D0022907D003297D
:1044800008D004290CD108E0074800887047064886
:104490004088FBE704488088F8E703488079F5E71F
:1044A00000BF00BF0020F1E7140000202DE9F05FFD
:1044B00001211748FDF735FD00240FE000BF022160
:1044C0001348FDF791FC0028F9D01148FDF788FC4E
:1044D000054601F033F98246601CC4B2032CEDDBC3
:1044E000504601F0DFF806460A4A0B4B00F0DCFFAD
:1044F00004460022094B00F0D7FF804600F0A2FFDF
:104500008346584601F0FAF880B2BDE8F09F0000FB
:1045100000240140B4D934E70C684A3F00804A4087
:10452000FEF752FF012080F3108800BFFDF744FD25
:1045300000F00EFD00BFFEE710B50246012000E0CE
:1045400050430B1EA1F10104E1B2F9D110BD0000EE
:104550002DE9F04105460E461C4807681C480068D6
:10456000001D00F0CFFA50B91948006890F82C10DF
:104570000120884017490968814316480160681C7A
:1045800038B936B112480168091D134800F0F2FB32
:104590001AE07C190E4800684460BC4207D20C48FF
:1045A0000168091D0D48006800F0CAFB0CE00848CE
:1045B0000168091D0A48006800F0C2FB094800684C
:1045C000844201D207480460BDE8F0816C000020FD
:1045D0005800002070000020980700206000002094
:1045E0005C0000208800002010B5044600F0CEFBDF
:1045F00024480068401C234908602348006840B9EB
:10460000214804600846006801280DD100F028F90F
:104610000AE01E48006838B91B480068C06AE16AB1
:10462000884201D81848046019480068401C18499D
:10463000086008460068206494F82C100120884027
:1046400014490968084313490860E16A01EB8101D4
:10465000114A02EB8100211D00F08CFB00F0C0FB31
:104660000A48006868B108480068C06AE16A884280
:1046700007D24FF0805009490860BFF34F8FBFF356
:104680006F8F10BD680000205800002074000020CB
:104690008400002070000020C804002004ED00E029
:1046A00010B516E000F072FB0C48C068C468201D0D
:1046B00000F028FA0A480068401E094908600948C5
:1046C0000068401E0749086000F08AFB204600F0A1
:1046D0000BF8044800680028E4D110BD84070020CE
:1046E000680000206400002010B50446206B00F034
:1046F00095FB204600F092FB10BD000030B54FF452
:104700000043174800F007042CB1C01D20F007003B
:10471000134C041B1B1B0246124C22600024114D3B
:104720006C60D018083820F007000F4C206000247F
:104730000D4D2D686C600C4D2D682C601146441A8F
:104740004C60094C24680C60084D4C682C60084D86
:104750004C682C604FF00044064D2C6030BD0000CA
:10476000AC070020A0000020A8000020B00000201E
:10477000AC000020B400002000BFFFF791FF064806
:1047800000680128F9D94FF0805004490860BFF350
:104790004F8FBFF36F8FF0E7C804002004ED00E0F7
:1047A0002DE9F05F82460E4690469B460A9F0C9C80
:1047B0004FEA8801A522206BFBF7F4FDA8F1010068
:1047C000216B01EB800929F0070909F0070008B9FE
:1047D000012000E0002050B900BFBF2080F3118805
:1047E000BFF34F8FBFF36F8F00BF00BFFEE786B1EF
:1047F000002507E0715D04F134004155705D00B99A
:1048000002E06D1C0A2DF5D300BF00213D200155AB
:1048100002E0002084F83400202F00D31F27E76235
:10482000A7640020E064201D00F087FA04F118005E
:1048300000F083FA2461C7F12000A06164620020C7
:10484000206584F854005A465146484600F048F91D
:1048500020600B9808B10B980460BDE8F09F000041
:1048600010B5002407E004EB84010F4A02EB81003D
:1048700000F056FA641C202CF5D30C4800F050FAD6
:104880000B4800F04DFA0B4800F04AFA0A4800F0D5
:1048900047FA0A4800F044FA044809490860044805
:1048A0000849086010BD0000C80400204807002027
:1048B0005C07002070070020840700209807002074
:1048C0005C0000206000002010B50146164800E0A2
:1048D000006803688B42FBD30246436813448B4253
:1048E00004D143684C682344436001460A464B6840
:1048F00013440468A34211D10C4C03682468A342FA
:1049000008D04B680468646823444B6003681B68E4
:104910000B6005E0054B1B680B6001E003680B6052
:10492000884200D0016010BDA0000020A800002037
:104930000A490968096809B9012100E0002121B18B
:104940004FF0FF31064A116006E004490968C96862
:10495000C868034A41681160704700005C0000208D
:10496000880000200E480068401C08B9012000E0C3
:10497000002050B900BFBF2080F31188BFF34F8FD4
:10498000BFF36F8F00BF00BFFEE700BFBF2080F303
:104990001188BFF34F8FBFF36F8F00BF00BFFEE7DB
:1049A000940000202DE9F04104464FF0000800F08B
:1049B00013FB4648006808B9FFF7A0FE44480068AA
:1049C000204000286BD1D4B1083404F00700B0B106
:1049D00004F00700C0F10800044404F0070008B91F
:1049E000012000E0002050B900BFBF2080F31188F3
:1049F000BFF34F8FBFF36F8F00BF00BFFEE7002CE8
:104A00004DD034480068844249D8334E304605685A
:104A100001E02E462D686868A04202D2286800286E
:104A2000F7D12A480068854239D0306800F108087B
:104A3000286830606868001B102819D92F1907F002
:104A4000070008B9012000E0002050B900BFBF20D6
:104A500080F31188BFF34F8FBFF36F8F00BF00BF8C
:104A6000FEE76868001B78606C603846FFF72CFF33
:104A7000184968680968081A1649086008460068F5
:104A800016490968884203D2124800681349086031
:104A90000F4968680968084368600020286000F0D2
:104AA00023FC08F0070008B9012000E0002050B9FD
:104AB00000BFBF2080F31188BFF34F8FBFF36F8F0C
:104AC00000BF00BFFEE74046BDE8F081A80000201F
:104AD000B4000020AC000020A0000020B0000020A6
:104AE000001F4FF080730360001F21F0010303607B
:104AF000001F034B03601438026020387047000029
:104B00006549000801460A69D1E901309860D1E998
:104B1000010358605068884201D1886850600020C5
:104B200008611068401E10601068704708B5FEF7F5
:104B300089FB002211461046FEF756FB6CA0FDF7DC
:104B40006DFAFDF74FFC0020FFF70EFCFDF7B0FCFF
:104B5000FDF7CAFBFDF7AEF8002500260024C5E0EE
:104B6000052000F0C7F9701C86B2FFF731FC05463E
:104B70008DB105F0010028B1022C01DB022401E017
:104B8000601CC4B205F0020028B1012C01DC002435
:104B900001E0601EC4B2C82EE1DD0026012C66D102
:104BA000202356A200210846FDF73EFE0320FFF712
:104BB00049FC07460C2008233A46122100900220A7
:104BC000FDF7E8FD0220FFF73DFC07460C20082317
:104BD0003A461C2100900220FDF7DCFD0120FFF782
:104BE00031FC07460C2008233A462621009002207B
:104BF000FDF7D0FD0020FFF725FC07460C20082319
:104C00003A46302100900220FDF7C4FD0020FFF756
:104C100025FC07460C2008233A4612210090462026
:104C2000FDF7B8FD0220FFF719FC07460C2008230A
:104C30003A461C2100904620FDF7ACFD0320FFF70B
:104C40000DFC07460C2008233A46262100904620FA
:104C5000FDF7A0FD0120FFF701FC07460C2008230B
:104C60003A46302100904620FDF794FD37E0022CB3
:104C700035D1202325A200210846FDF7D5FD0120CE
:104C8000FFF7F8FB07460C2008233A461221009054
:104C90000220FDF77FFD0220FFF7ECFB07460C200A
:104CA00008233A461C2100900220FDF773FD0320E3
:104CB000FFF7E0FB07460C2008233A462621009028
:104CC0000220FDF767FD0420FFF7D4FB07460C2008
:104CD00008233A46302100900220FDF75BFDFDF7E6
:104CE000ADFCFFF7E3FB0746FFF73EFB38E70000AC
:104CF00048656C6C6F205250490A000052432043B3
:104D00006F6E74726F6C2064617461005243204353
:104D10006172206F75747075742064617461000035
:104D200000F1080141604FF0FF31816000F108019E
:104D3000C16001610021016070470021016170477D
:104D400010B502460B685C1C0CB9106907E002F153
:104D5000080000E04068446824689C42FAD944682E
:104D60004C604C68A160886041600A611468641CF2
:104D7000146010BD42684A6093688B609368596004
:104D80009160086103685B1C0360704700BFBF202F
:104D900080F31188BFF34F8FBFF36F8F00BF0E48B2
:104DA0000068401C0C49086008460068012812D1C0
:104DB0000A480068C0B208B9012000E0002050B9DC
:104DC00000BFBF2080F31188BFF34F8FBFF36F8FF9
:104DD00000BF00BFFEE770479400002004ED00E034
:104DE0000D48006850B900BFBF2080F31188BFF3A1
:104DF0004F8FBFF36F8F00BF00BFFEE7064800680C
:104E0000401E054908600846006820B9002080F36C
:104E1000118800BF00BF70479400002070B506469F
:104E20003546002E3FD0083D2C461F496068096872
:104E3000084008B1012000E0002050B900BFBF20A9
:104E400080F31188BFF34F8FBFF36F8F00BF00BF98
:104E5000FEE7206808B9012000E0002050B900BF3B
:104E6000BF2080F31188BFF34F8FBFF36F8F00BF58
:104E700000BFFEE70C4960680968084098B12068E7
:104E800088B90949606809688843606000F0A4F83F
:104E90000649606809680844044908602046FFF72D
:104EA00013FD00F021FA70BDB4000020AC0000201A
:104EB00000204FF0E0210861886102484861072026
:104EC000086170473F190100FDF726FEFDF7D0FE8F
:104ED000FDF71CFDFDF790FD09E00A2000F00AF83F
:104EE000FEF756F9FEF7CCF80148FEF779F8F4E73B
:104EF0001400002070B504460025D4B112480068A3
:104F000008B9012000E0002050B900BFBF2080F3A5
:104F10001188BFF34F8FBFF36F8F00BF00BFFEE755
:104F200000F05AF800212046FFF712FB00F0DCF9F0
:104F300005463DB94FF0805004490860BFF34F8FDC
:104F4000BFF36F8F70BD00009000002004ED00E003
:104F50001CB51A4800210B468022CDE9001018A18B
:104F6000194800F0EDF80446012C15D100BFBF2010
:104F700080F31188BFF34F8FBFF36F8F00BF4FF0E7
:104F8000FF301249086001201149086000201149D2
:104F9000086000F06FF810E0601C08B1012000E02C
:104FA000002050B900BFBF2080F31188BFF34F8F9E
:104FB000BFF36F8F00BF00BFFEE71CBD8C00002059
:104FC00049444C4500000000794700088800002053
:104FD000740000206C00002002480068401C014959
:104FE00008607047900000201D48006818B101203B
:104FF0001C49086032E000201A4908601A4800681D
:10500000B0FA80F0C0F11F0101EB8100174A52F89D
:10501000200008B1012000E0002050B900BFBF20EF
:1050200080F31188BFF34F8FBFF36F8F00BF00BFB6
:10503000FEE701EB81020D4B03EB820042685268F0
:10504000426000F108024368934202D1426852680C
:1050500042604268D268064B1A6000BF7047000089
:10506000900000207C00002070000020C804002078
:10507000580000201CB52D49084600780190FF20FB
:105080000A4610700846007800909DF800009DF8D0
:105090000020904201D1012000E0002050B900BF63
:1050A000BF2080F31188BFF34F8FBFF36F8F00BF16
:1050B00000BFFEE79DF8000000F0BF001C4A107022
:1050C00007201C4A106009E01A480068401E194A6F
:1050D00010609DF800004006000E00909DF8000052
:1050E00000F080008028EFD0124800680002114ACA
:1050F00010601046008800F4E06010600B4A0198D0
:1051000010700D48006840F47F000B4908600846A5
:10511000006840F07F400860FFF7CAFE00200749A2
:105120000860FBF7CBF800201CBD000000E400E0A5
:10513000980000209C00002020ED00E0940000205A
:105140002DE9FF4F85B0804689461746DDE912AB51
:10515000B800FFF727FC064656B15820FFF722FC9F
:1051600004460CB1266304E03046FFF757FE00E02A
:1051700000247CB10020CDE900ABCDE902403A46E5
:1051800049464046089BFFF70BFB2046FFF72CFAE9
:10519000012501E04FF0FF35284609B0BDE8F08F4A
:1051A0002DE9F0414FF0000844480068002877D10D
:1051B00043480068451C4248056015BB41480068EB
:1051C000006808B9012000E0002050B900BFBF20EE
:1051D00080F31188BFF34F8FBFF36F8F00BF00BF05
:1051E000FEE738480768384800683649086036489E
:1051F000076036480068401C34490860FFF798FB98
:1052000000BF3348006885423CD300BF2D4800688A
:10521000006808B9012000E0002020B14FF0FF3005
:105220002B4908602DE027480068C068C46866689C
:10523000B54202D22648066023E0201DFFF762FC3B
:10524000A06A18B104F11800FFF75CFC94F82C1068
:10525000012088401F49096808431E490860E16A27
:1052600001EB81011C4A02EB8100211DFFF782FD49
:105270001A49E06A0968C96A8842C7D34FF0010831
:10528000C4E700BF15480068C06A00EB80001249FF
:1052900051F82000012801D94FF0010805E0FFE78F
:1052A0000F480068401C0E4908600E48006808B1AD
:1052B0004FF001084046BDE8F0810000900000205A
:1052C0006C0000205C0000206000002080000020B6
:1052D0008800002070000020C80400205800002032
:1052E000780000207C00002070B50024002636489D
:1052F000006850B900BFBF2080F31188BFF34F8F03
:10530000BFF36F8F00BF00BFFEE7FFF73FFD2E48E2
:105310000068401E2C4908600846006800284FD1EC
:105320002A48006800284BD024E02948C068C46897
:1053300004F11800FFF7E6FB201DFFF7E3FB94F8EC
:105340002C1001208840234909680843214908603E
:10535000E16A01EB8101204A02EB8100211DFFF788
:1053600009FD1E49E06A0968C96A884202D3012022
:105370001B4908601648006808B9012000E00020B9
:105380000028D2D00CB1FFF7D3FA1648056865B1F2
:1053900000BFFFF705FF10B10120114908606D1E25
:1053A000002DF6D100200F4908600D48006838B183
:1053B000012630070C490860BFF34F8FBFF36F8F92
:1053C000FFF70EFD304670BD900000206800002001
:1053D0007007002070000020C80400205800002042
:1053E0007C0000207800002004ED00E010B50029CA
:1053F0000AD00878002807D005487844FCF74AF816
:10540000002801D0002010BD0248784410BD0000E3
:10541000EE1C0000E61C000010B500290AD0087838
:10542000002807D005487844FCF734F8002801D05C
:10543000002010BD0248784410BD0000DE1C0000B2
:10544000D61C000021F00042A2F16052B2F5801F8C
:1054500001F0004328BFD2F17F6C0BD95FEA001C3A
:1054600043EAC20242EB507018BF704728BF20F0D9
:1054700001007047B2F5801FBCBF184670474FEA65
:10548000410C1CF5001F02D2084600F0B0B970B5FF
:1054900000F0B4F800000089FFF7F6BF4FF00040BD
:1054A000A0F5800070470000DFF848C170B51CEA25
:1054B000111E1EBF1CEA13159EEA0C0F95EA0C0F75
:1054C00000F06F8081EA030423EA4C134EEAD47E95
:1054D00021EA4C1141F4801143F48013AE44A1FB46
:1054E000024CA0FB0365AEF17F7E361955EB0C052F
:1054F000A1FB034C4CF10003A0FB021C16EB0C06B5
:10550000654153F10003094218BF46F0010613F448
:10551000007F0BD14FEA03314FEA0530340341EAF3
:10552000155140EA16506FF003020AE04FEAC3211A
:105530004FEAC520F40241EA555140EA56506FF057
:10554000020202EB2E4201EB025585EACE710AD02F
:105550005FEA440C18BF24F0004450F1000041F110
:10556000000120EAD47040F2FE7C624500D270BD9A
:10557000A84214BF4FF080444FF04044002E08BFB3
:105580000024BEF1806FA8BFA1F1C041BDE870400A
:1055900080F282804FF0000001F1C04101F0004133
:1055A00070479EEA0C0F0CEA131518BF95EA0C0F12
:1055B00006D04FF0000081EA030E0EF0004170BDEE
:1055C00000F01CF88900013E00F007B800F009B8AF
:1055D0004FEA430C5FEA5C5C08D081EA030100F00B
:1055E0005BB84FEA410C5FEA5C5CF6D14FF000001B
:1055F000014970470000FF070000F87F0EF1020E1E
:105600002EF0030E5EF8046B364205D4012A43EBFC
:10561000030515F5001F12D8012841EB010C1CF5FC
:10562000001F0CD80ED14FEAD17C15F5001F0CEBF2
:105630004C0C0CF1020C08BF4CEBD37C04E04FF097
:10564000080C01E04FEAD37C0CEB4C0526FA05F67A
:1056500006F00706B6F1040C06D20EEB860CBDE888
:1056600070404CF0010C6047DFE80CF0090B0202BF
:105670004FF000414FF00000A1F5002170BD194628
:105680001046012851EB010418BFD4F5001484BF63
:10569000002001F0004170BD0808A0F500114FEA9C
:1056A0003101704743004FEAD30C4FEA3C0C4340B2
:1056B0001FBF40070CF1605113F0FE4F70471CF004
:1056C000006F03D100200CF0004170470CF0004344
:1056D00043EA507010B540EACC0000F042F800BF39
:1056E000000000924FEA0001FFF7D6BF4FF00041E3
:1056F0004FF00000A1F5002170470000C10DD1F16D
:105700009E0206DB4FEA002343F0004323FA02F037
:105710007047004207D54FEA4001B1F1FE4F02D277
:105720004FF00000704710B500F01BF8499224803C
:10573000002070476FEA200070470000B0FA80F345
:1057400010FA03F2C3F19D030AD0D90501EB122030
:10575000530638BF704700F1010008BF20F0010078
:1057600070470EF1020E2EF0030E5EF8044B244239
:1057700004D44FEA4102B2F17F4F11D84FEA4003FF
:10578000B3F17F4F0CD80ED14FEAD07CB2F17F4FEE
:105790000CEB4C0C0CF1020C08BF4CEBD17C04E080
:1057A0004FF0080C01E04FEAD17C0CEB4C0324FADB
:1057B00003F404F00704B4F1040C06D20EEB840CDD
:1057C000BDE810404CF0010C6047DFE80CF0070822
:1057D00002024FF00040A0F5800010BD08464200D4
:1057E00018BFD2F1807288BF00F0004010BDFF21C9
:1057F00041EAD050C0057047FBF759BAFBF78EBBA2
:105800003F065B4F666D7D077F6F00000000000064
:10581000000000000000000000003F400000000009
:10582000000000003000400030004000000009008F
:105830000BC03D000BC03D00090018C024407FE0B4
:10584000224031800000180024C01B000D8032402F
:10585000018003801C4027401C800740004010004E
:1058600060000000000000000000000000000000D8
:105870001F80204040200000402020401F8000006A
:105880000000090006001F80060009000000040057
:1058900004003F80040004000000001000600000CD
:1058A00000000000000004000400040004000400E4
:1058B0000000000000400000000000000000002088
:1058C00001C006003800400000001F80204020403A
:1058D00020401F800000000010403FC0004000003A
:1058E000000018C0214022402440184000001080D1
:1058F0002040244024401B80000002000D001100C5
:105900003FC0014000003C802440244024402380CC
:1059100000001F80244024403440038000003000F9
:10592000200027C03800200000001B8024402440B5
:1059300024401B8000001C0022C0224022401F8007
:10594000000000000000084000000000000000000F
:1059500000000460000000000000000004000A00D5
:1059600011002080404009000900090009000900D9
:10597000000000004040208011000A0004001800D0
:10598000200023402400180000001F8020402740F2
:1059900029401F400000004007C039000F0001C02F
:1059A000004020403FC0244024401B8000001F8056
:1059B0002040204020403080000020403FC0204058
:1059C00020401F80000020403FC024402E4030C0B7
:1059D000000020403FC024402E00300000000F0097
:1059E0001080204022403380020020403FC004004D
:1059F00004003FC02040204020403FC020402040C5
:105A000000000060202020203FC020002000204017
:105A10003FC024400B0030C0204020403FC0204009
:105A20000040004000C03FC03C0003C03C003FC0FD
:105A3000000020403FC00C4023003FC020001F80DA
:105A40002040204020401F80000020403FC02440D4
:105A50002400180000001F802140214020E01FA0EA
:105A6000000020403FC02440260019C0004018C05C
:105A700024402440224031800000300020403FC0BC
:105A800020403000000020003F80004000403F8068
:105A9000200020003E0001C0070038002000380030
:105AA00007C03C0007C038000000204039C0060095
:105AB00039C0204000002000384007C03840200096
:105AC0000000304021C02640384020C000000000C7
:105AD00000007FE0402040200000000070000C002B
