:020000040800F2
:10000000F08D002031030008390300083B0300088D
:100010003D0300083F030008410300080000000002
:10002000000000000000000000000000990200082D
:100030004503000800000000DD020008ED2D000867
:100040004B0300084B0300084B0300084B03000858
:100050004B0300084B0300084B0300084B03000848
:100060004B0300084B0300084B0300084B03000838
:100070004B0300084B0300084B0300084B03000828
:100080004B0300084B0300084B0300084B03000818
:100090004B0300084B0300084B0300084B03000808
:1000A0004B0300084B0300084B0300084B030008F8
:1000B000CD300008793300084B0300084B030008DB
:1000C0004B0300084B0300084B0300084B030008D8
:1000D0004B030008F93A00084B0300084B030008E3
:1000E0004B0300084B0300084B030008000000000E
:1000F0000000000000000000000000000000000000
:1001000000000000000000004B0300084B03000843
:100110004B0300084B0300084B0300084B03000887
:100120004B0300084B0300084B0300084B03000877
:100130004B0300084B0300084B0300084B03000867
:100140004B0300084B0300084B0300084B03000857
:1001500000F002F800F090F80AA090E8000C824449
:100160008344AAF10107DA4501D100F085F8AFF226
:10017000090EBAE80F0013F0010F18BFFB1A43F085
:10018000010318477C6300009C630000103A24BF01
:1001900078C878C1FAD8520724BF30C830C144BFEC
:1001A00004680C607047000000230024002500262E
:1001B000103A28BF78C1FBD8520728BF30C148BFCA
:1001C0000B6070476E2900F0BD81702900F0078335
:1001D000662904F02D85652904F02A85672904F035
:1001E0002785612904F0268503681B0A28BF41F092
:1001F0008001692900F06A81642900F0678175290E
:1002000000F064816F2900F09482782900F0D38295
:10021000E92900F02F82E42900F02C82F52900F072
:100220002982EF2900F09182F82900F0D282036838
:10023000DB0928BF41F08001632900F0F7877329AB
:1002400000F0FC87E32901F00780F32901F00C801E
:10025000002070471FB501F059F80400002000216C
:1002600004F0D0FC401C60600020002104F0B4FCCD
:10027000E0601FBD10B510BD01F01AF81146FFF780
:10028000E9FF03F0C1FD01F0F7F803B4FFF7F2FF57
:1002900003BC01F03FF90000224B19680868B0E880
:1002A000F00F80F30988BFF36F8F4FF0000080F3E9
:1002B00011884EF00D0E70470000000006480068DF
:1002C000006880F3088862B661B6BFF34F8FBFF352
:1002D0006F8F00DF00BF00BF08ED00E0EFF3098083
:1002E000BFF36F8F0F4B1A6820E9F00F106008B54D
:1002F0004FF0BF0080F31188BFF34F8FBFF36F8FB4
:1003000004F068FA4FF0000080F31188BDE808405F
:1003100019680868B0E8F00F80F30988BFF36F8FA1
:10032000704700BF4C000020EFF3058070470000CD
:100330000948804709480047FEE7FEE7FEE7FEE779
:10034000FEE7FEE7FEE7FEE7FEE7FEE704480549B5
:10035000054A064B70470000212E00085101000895
:10036000F0870020F08D0020F0890020F089002027
:100370007CB51D4616460C00009001D02044401E5E
:10038000074B7B442A4669460190304600F0F3F85B
:1003900005461CB10020694600F000F928467CBDE6
:1003A0002102000002F0FF0343EA032242EA024274
:1003B00000F0E6BA4FF0000200B5134694469646A8
:1003C000203922BFA0E80C50A0E80C50B1F1200168
:1003D000BFF4F7AF090728BFA0E80C5048BF0CC016
:1003E0005DF804EB890028BF40F8042B08BF704774
:1003F00048BF20F8022B11F0804F18BF00F8012BE6
:10040000704770477047704770B50446856900684B
:10041000C10601D5302600E02026C00707D070BDF8
:10042000D4E9012130469047206A401C20626D1EAD
:10043000F6D570BD70B5044685690078C00707D150
:1004400070BDD4E9012120209047206A401C206221
:100450006D1EF6D570BD09684A0501D540B27047DA
:10046000C905FCD500B2704709684A0501D5C0B27C
:100470007047C905FCD580B2704770B50C4605467B
:10048000012A05D02878800600D5EA69002302E019
:10049000012305E05B1C934202D2E05C0028F9D105
:1004A000A869E618C01AA861286A18442862284674
:1004B000FFF7AAFF04E0D5E9012114F8010B9047EA
:1004C000B442F8D32846FFF7B5FF70BD2DE9F041DF
:1004D0000646002410687529314616A510D0FFF78E
:1004E000BAFF002802DA404213A507E031688A0704
:1004F00001D512A502E0490704D511A5012401E0A8
:10050000FFF7B2FF00210A2206F1240709E0B0FB41
:10051000F2FCB0FBF2F302FB1C00303078541846BA
:10052000491C0028F3D123462A463046BDE8F04155
:1005300000F08BBA000000002D0000002B0000002E
:100540002000000011680268006A530501D5087098
:100550000AE0D30501D5088006E0130603D5C217CB
:10056000C1E9000200E008600120704701694A1CEF
:1005700002610878704700B58FB0CDE901310021E4
:10058000059105497944CDE903101146684600F00C
:1005900031F90FB000BD0000E5FFFFFF0A6802F867
:1005A000010B0A607047D1E900239A4202D2531C22
:1005B0000B601070704700002DE9FF5F15468A46FA
:1005C0000446DFF8AC80F8440027D8E900103E4626
:1005D000CDE9001010E03AF816106A4602A800F0C3
:1005E00047FE411C07D02178890603D5E2693918F6
:1005F00091420DD80744761C2078800602D5E06928
:10060000B84205DDAE42E6DB3AF816000028E2D13A
:10061000A069C01BA0612046FFF7F6FED8E90010D4
:10062000CDE90010002017E03AF818106A4602A839
:1006300000F01EFEB0F1FF3F81460BD000250DF10A
:10064000080B05E0D4E901211BF8050090476D1C5B
:100650004D45F7D308F10100B0428046E4DB206A43
:10066000384420622046FFF7E5FEBDE8FF9F00000A
:100670003A5E00002DE9F0418046D21D22F00702CB
:100680000025D2E90002F52915A614D0011E72F149
:10069000000106DA0023D0EB030063EB020211A68F
:1006A00008E0D8F800108B0701D50FA602E0490733
:1006B00001D50EA601251146002408F1240704E007
:1006C00000F07EF930323A55641C50EA0102F7D14D
:1006D0002B46324621464046BDE8F04100F0B5B910
:1006E000000000002D0000002B0000002000000092
:1006F00030B4002100F1240408E002F00705D2081C
:10070000303542EA4372DB086554491C52EA03055E
:10071000F3D10468002310A2250707D5A40600D44E
:1007200021B1C46901230DA2641EC46130BC00F074
:100730008CB910B5044621461068FFF795FE0246B5
:100740002046BDE810400023D2E7D21D22F0070169
:10075000D1E90023CCE700000000000030000000D9
:10076000F0B40D460188090502D5214C7C4402E015
:100770001F4C7C440E34002100F1240608E002F0F6
:100780000F071209E75D42EA03721B097754491CFF
:1007900052EA0307F3D102780023120704D5702D23
:1007A00006D009B1022311342246F0BC00F04DB945
:1007B00001231034F8E770B504460D462146106851
:1007C000FFF752FE024629462046BDE8704000234E
:1007D000C6E7D21D22F00703D3E90023C0E7036870
:1007E000126843F0200303600823C3610023B7E7C6
:1007F0009C5C00002DE9F05F894604464FF0000A3A
:10080000DFF874B1FB44C0F820A02046E1688847B7
:10081000002874D0252806D0D4E901219047206A09
:10082000401C2062F1E700265F462046E1688847C9
:100830002028054607DB312D05D2781910F8200C49
:1008400008B10643F1E7B00701D526F00406C4F865
:100850001CA00027C4F818A02A2D09D0284603F0B0
:10086000A8FA38B304EB8708303DC8F8185019E0EF
:1008700059F8041B204604EB87029161E168884720
:10088000012F054618D1E069002820DA26F020065D
:100890001DE0D8F8180000EB800005EB4000303870
:1008A000C8F818002046E1688847054603F081FA39
:1008B0000028EED1012F0AD02E2D08D12046E16864
:1008C00088477F1C0546022F46F02006C4DBA0693E
:1008D000002803DA404246F00106A061F00701D08B
:1008E00026F010066C2D0BD0682D09D04C2D39D078
:1008F0006A2D35D0742D35D07A2D33D016E038E0FE
:10090000E1682F4620468847B842054609D16C2F3A
:1009100026D04FF48060E1680643204688470546AC
:1009200004E06C2F1AD04FF4807006430DB3A5F18C
:100930004100192802D8203546F400664A46294667
:10094000204626604E46FFF73DFC80B101280BD0C3
:10095000F61D26F0070000F1080956E74020E4E7FD
:100960008020D8E70020D6E706F104094DE72846A5
:1009700052E7206ABDE8F09F2C5C00004FF00002B7
:100980000429C0F0128010F0030C3FF415ADCCF137
:10099000040CBCF1020F18BF00F8012BA8BF20F80F
:1009A000022BA1EB0C01FFF707BD5FEAC17C24BF5E
:1009B00000F8012B00F8012B48BF00F8012B70470D
:1009C00030B5B0F10A024FEA900E71F100034EEA21
:1009D000817EB0EB0E0061EB91014FEA101E4EEAF2
:1009E000017E10EB0E0041EB11114FEA102E4EEA82
:1009F000016E10EB0E0041EB11214FEA104E4EEA52
:100A0000014E10EB0E0041EB1141401841F1000185
:100A10004FEAD00040EA41704FEAD10110EB800567
:100A20004FEA810444EA907444EB01046D1944EBED
:100A30000404521BA3414FF0000348BF0A3200D503
:100A400030BD401C41F1000130BD2DE9F0470D469D
:100A500099469246044600F124080168880604D5A8
:100A6000E06921F01001216000E00120A84201DDD1
:100A7000471B00E00027A1697A1902EB0900081A58
:100A8000A0612078C00602D42046FFF7BDFC0026F6
:100A900008E0D4E901211AF806009047206A401CBA
:100AA000761C20624E45F4DB2078C0060AD520462D
:100AB000FFF7AAFC06E0D4E9012130209047206A24
:100AC000401C2062381EA7F10107F4DC07E0D4E9DE
:100AD000012118F805009047206A401C2062281E5A
:100AE000A5F10105F3DC2046FFF7A4FC2078000601
:100AF00002D50220BDE8F0870120FBE770472DE911
:100B0000FF4F0C461E464FF0FF378BB0D2E9000175
:100B1000DDF860800A908A46C1F30A5505B93D4662
:100B2000002108464FF00000BAF1000F00F4400029
:100B300005DA00EB80004FF4400101EA50004FEA73
:100B40009059B9F1010F00DDB9460A9850EA4A0000
:100B50000ED044F61050A5F2FF3545432F14B8F1DE
:100B6000000F1ED07542291E1EDDC9F100021CE0D7
:100B7000B8F1010F4FF0000001D0302103E0F24343
:100B800005E02154401CB042FBDB3046002200212E
:100B900021540B99C1F80880C1E900200FB0BDE8CD
:100BA000F08FBD1B6D1CDEE74A4600DA694206A8DD
:100BB00000F0F0FB06AB93E8070003AB83E8070007
:100BC00050460A9900F0ADFC8DE80700A0F50050F2
:100BD0001F3800900398002D0ADD42F21F014A469B
:100BE0000844002303A90390684600F016FF09E0BB
:100BF000A0F500504A461F38002303A90390684619
:100C000000F020FF8DE807000004000C03D04FF037
:100C1000FF30410800E01046B8F1000F03D0002279
:100C2000009215461EE0751E05D4FFF7C9FE30324E
:100C300062556D1EF9D5B3460122084302D0002249
:100C40007F1C04E02078302801D100227F1E002A7A
:100C5000099784D01DE0112D07DAFFF7B1FE30327D
:100C600062556D1C50EA0102F5D1084302D000988C
:100C7000C8B10EE00021681E05E0235C625C63548D
:100C80002254401E491C8142F7DBAB46A81B401E84
:100C90000990002004F80B000B98099AC0F808800E
:100CA000C0E9002B7AE711264FF0000857E72DE93D
:100CB000F04F88460446D21D22F0070191B0D1E9D9
:100CC0000001CDE90A0103F060F802460B98C00F5D
:100CD00001D02D2007E02068810701D52B2002E0FC
:100CE000202101EAC000032A099001D0072A05DB70
:100CF00003464146204600F00DFB0BE120788006BC
:100D000001D5E06900E00620B8F1650F814606D004
:100D1000B8F1660F18D0B8F1670F70D131E000203C
:100D2000B9F1110F009001DB112301E009F101037A
:100D30000AAA01A90CA8FFF7E2FEDDE90C70002663
:100D400009F10105834647E001204B4600904FF032
:100D500000470AAA01A90CA8FFF7D1FEDDE90DB0F2
:100D60000C995D46002610B909F101000D18B9EB88
:100D7000050003D4C0F1FF3609F10105A5EB090018
:100D80002BE0B9F1010F01DA4FF001090020B9F1B0
:100D9000110F0090484601DD112300E003460AAA26
:100DA00001A90CA8FFF7ABFEDDE90C704D4600264B
:100DB0008346207800070AD4AB4500DA5D4601A8D7
:100DC000012D04DD411911F8011C302907D04F45D0
:100DD00002DA17F1040F04DA012082460FE06D1EDB
:100DE000EEE7002F02DCED1B3E4403E0781CA84236
:100DF00000DD7D1CB81B00F1010A4FF00047207890
:100E0000000703D4AA4501DB4FF0FF3A0021B7F1F8
:100E1000004F0DF143088DF8431024D002202B23FE
:100E2000002F01DA7F422D230A21021EA0F10100CA
:100E300000DC5FB197FBF1FC97FBF1F201FB1C7C3E
:100E400017460CF1300C08F801CDEEE7A8F10100CF
:100E500003702188090501D5452100E06521A0F135
:100E6000010800F8011C09980FA9A1EB0807FF1D54
:100E700000B10120411901EBEA70A1693844081A58
:100E8000401EA0612078C00602D42046FFF7BCFABD
:100E9000099828B1D4E901219047206A401C2062BA
:100EA0002078C00622D52046FFF7AEFA1EE0002EBD
:100EB00004DBB34502DD01A8805D00E03020D4E909
:100EC00001219047206A401C2062761CAAF1010093
:100ED0005FEA000A0AD100F019FAC0680168405CB4
:100EE000D4E901219047206A401C2062281EA5F108
:100EF0000105DCDC07E0D4E9012118F8010B90477B
:100F0000206A401C2062381EA7F10107F3DC20464E
:100F1000FFF790FA032011B041E600002DE9F04FF1
:100F200004460D46D21D22F0070089B0D0E9009793
:100F30004846394602F029FF0246F80F01D02D231A
:100F400007E02068810701D52B2302E0202101EA78
:100F5000C0038DF820300BB1012000E00020032AEF
:100F6000824601D0072A04DB2946204600F0D2F948
:100F70003FE12078800601D40D2500E0E569C7F344
:100F80000A560D2D49DA00214FEA175B08464FF04B
:100F90000000002F00F4400007DA00EB80004FF45F
:100FA000400100EBD07001EA60008115012901DDEC
:100FB0004FF0FF3100224FEA850CBCF1180F06D329
:100FC0001346ACF118004FF08052C24003E04FF4DA
:100FD000801323FA0CF30CF10C0CBCF1200F04D39A
:100FE000ACF1200C09FA0CF001E007FA0CF0002932
:100FF0004FF0004801DD18B90FE00ED140450CD389
:1010000019EB02095F4121B9404502D19F4329EA0A
:101010000209BBEB175F00D0761C2088000502D5C3
:101020007B48784402E07A487844193808AA30238B
:1010300002F80A30037C0AF10101002E0AF1020ACB
:1010400053546A4602DC4FF0300101E04FF03101A9
:101050004FF001088DF8001002D0A6F2FF3603E031
:1010600059EA470100D06B4E002D02DC21780907B8
:1010700004D54FF002082E218DF80110C44600213E
:101080000BE0C7F303433F01C35C491C6D1E02F82C
:101090000830052908F1010801DA002DF1DC0021F2
:1010A0000CE000EB1973491C1B786D1E082902F82F
:1010B00008304FEA091908F1010801DA002DF0DCC7
:1010C00021688B0602D516E0A8F10108E04505DD90
:1010D00002EB080313F8013C302BF5D0B8F1000FF8
:1010E00009DD02EB080313F8013C2E2B03D109079D
:1010F00001D4A8F10108002D05DD3E2102F80810F9
:101100006D1E08F10108407C002E02F8080008F16D
:10111000010804DA2D20764202F8080002E02B20B4
:1011200002F808000A214FF47A70864208F101089B
:101130000BDB96FBF0F3303302F8083096FBF0F34C
:1011400008F1010800FB136601E0642E0CDB64204B
:1011500096FBF0F3303302F8083096FBF0F308F119
:10116000010800FB136601E00A2E06DB96FBF1F096
:10117000303002F8080008F1010896FBF1F001FB9D
:101180001060303002F80800A16908F1010808EB8E
:10119000050202EB0A00081AA0612078C00602D4FA
:1011A0002046FFF731F9216A08AE01EB0A00206200
:1011B00004E0D4E9012116F8010B9047BAF1010AC5
:1011C000F7D22078C00602D52046FFF71DF96E46FB
:1011D00009E016F8010B3E280FD0D4E90121904711
:1011E000206A401C2062B8F10108F2D22046FFF7C5
:1011F00021F909B00320BDE8F08F206A284420625D
:1012000003E0D4E90121302090476D1EEBD3F8E7CD
:101210003254000002FCFFFF10B5436913B1AFF375
:10122000008001E0FFF729F9012010BD127800F1DC
:1012300024010A7000224A700122EDE711684FF084
:10124000FF32E9E710B5436913B1AFF3008001E065
:10125000FFF7B2F9012010BD128800F12401828449
:101260000022C2840122EDE711684FF0FF32E9E766
:1012700070B516460C46054600F040F8036893F832
:101280000101012806D0FF2C0FD8185D68B101209C
:101290002C7070BDD3F807013246214603F20713C4
:1012A00003442846BDE8704018474FF0FF3070BD3A
:1012B000754600F0EBF8AE4605006946534620F04F
:1012C0000700854618B020B5FFF740F8BDE820407C
:1012D0004FF000064FF000074FF000084FF0000BF2
:1012E00021F00701AC46ACE8C009ACE8C009ACE8A5
:1012F000C009ACE8C0098D467047000010B500F089
:1013000005F8001D10BD00BFFD3800000048704703
:10131000B08700202DE9F0411F46044603260168EE
:10132000072A01F4006004DB08B116A505E016A544
:1013300003E008B115A500E015A521F0100020601C
:10134000A069C01EA0610FB1401EA0612046FFF73A
:101350005BF84FB1D4E9012138469047206A401C20
:101360002062C01C206206E0206AFAE7D4E901216D
:1013700015F8010B9047761EF8D22046FFF75AF871
:10138000BDE8F0814E414E006E616E00494E460050
:10139000696E66002DE9F047814616468AB03548E9
:1013A00078440DC88DE80D0032487844801C03ACA9
:1013B0000DC884E80D0041F69B300844372190FBAE
:1013C000F1F290FBF1F5A5F1800501FB12041B3C45
:1013D00002D56442012000E00020DFF898A080469A
:1013E0000027FA44AAF1BE0A0EE0E0070AD032460E
:1013F000684607EB470101230AEB810100F022FB5D
:101400008DE8070064107F1C002CEED1194F7F443B
:10141000AE3F19E0E80715D007EB04100DF1180AEC
:1014200090E80E008AE80E00C068F04201D19819D9
:1014300008903246012306A903A800F003FB03AB82
:1014400083E807006D10641C002DE3D14FF0010309
:1014500032466946B8F1000F03A802D000F0DDFA69
:1014600001E000F0EFFAC9E90001C9F808200AB06C
:10147000BDE8F0874451000010B50446AFF300808A
:101480002046BDE81040FEF700BF0000004870474E
:10149000908700204FF0013C50F8042B51F8043B9A
:1014A0009A4221D1A2EB0C03934313EACC1317D138
:1014B00050F8042B51F8043B9A4215D1A2EB0C03CF
:1014C000934313EACC130BD150F8042B51F8043B8F
:1014D0009A4209D1A2EB0C03934313EACC13DBD05D
:1014E0004FF00000704700BFD01A01BAB1FA81F185
:1014F00001F0180122FA01F0CB40C1F12001DBB26A
:10150000C0B2C01A2CFA01F3D11A914311EAC311E7
:10151000E6D1704701491820ABBEFEE72600020065
:1015200070475FEA400C08BF91F0000F4FEA8C2330
:101530004FEAC12243EA51514FEA1C5018BF00F54F
:10154000F0404FEA300018BF41F000415FEA6C5CA8
:1015500000F02980BCF1FF3F08BF40F08040704799
:10156000130C06BF12044FF0100C4FF0000C130EBA
:1015700004BF12020CF1080C130F04BF12010CF18E
:10158000040C930F04BF92000CF1020CD30F04BFA4
:1015900052000CF1010C11464FF00002A0F11F00A7
:1015A000A0EB0C00704711F0004F08BF704731F0FE
:1015B00000413FF4D5AF0B0C06BF09044FF0100CEF
:1015C0004FF0000C0B0E04BF09020CF1080C0B0FBE
:1015D00004BF09010CF1040C8B0F04BF89000CF14E
:1015E000020CCB0F04BF49000CF1010CCCF120031D
:1015F000A0EB0C0022FA03F302FA0CF241EA030119
:1016000000F10100704720F07F4C80EA030023F0D6
:101610007F47ACEB070303F57C5300F0004003F178
:10162000FF032DE980494FEA154B09B44FEA1443F3
:1016300025EA0B4E24EA03480FF2042606EB132793
:1016400049083E785FEA320203FB0667C7F50007E8
:1016500007FB06F64FEA54374FEAD64606F1020674
:1016600007FB066CCCF1005C4FEA1C472CEA074CE8
:1016700007FB06F40CFB06F504EB15464FEA96163D
:1016800034BF00204FF000404FEAD13706FB07FC83
:101690004FEA1C4C0CFB0BF7D21B03FB0CF761EB66
:1016A00007010CFB0EF7B0EB074072EB17420CFB87
:1016B00008F734BFA2EB0742B2EB074261EB1741D8
:1016C0004FEA0C444FEA910706FB07FC4FEA1C4C1B
:1016D0000CFB0BF7B0EBC74072EB573203FB0CF778
:1016E00034BFA2EBC742B2EBC74261EB57310CFBF0
:1016F0000EF7B0EBC70072EB57720CFB08F734BF64
:10170000A2EBC702B2EBC70261EB5771039F4FEA2E
:10171000816141EA921104EBCC044FEAD1374FEAE0
:10172000826206FB07FC42EA90124FEA80604FEAB1
:101730001C4C0CFB0BF7D21B03FB0CF761EB0701F6
:101740000CFB0EF7B0EB074072EB17420CFB08F7EF
:1017500034BFA2EB0742B2EB074261EB17414FEAFD
:101760008C554FEA910704EB9C2406FB07FC4FEADB
:101770001C4C0CFB0BF7B0EBC74072EB573203FB72
:101780000CF734BFA2EBC742B2EBC74261EB573153
:101790000CFB0EF7B0EBC70072EB57720CFB08F7AF
:1017A00034BFA2EBC702B2EBC70261EB577115EB76
:1017B0004C254FEA816141EA92114FEA82624FEA79
:1017C000D13742EA901206FB07FC44F100044FEACD
:1017D00080604FEA1C4C0CFB0BF7D21B03FB0CF791
:1017E00061EB07010CFB0EF7B0EB074072EB174201
:1017F0000CFB08F734BFA2EB0742B2EB074261EBE8
:10180000174115EB1C154FEA813141EA92414FEA2D
:10181000823242EA90424FEA80304FEA0C7644F13D
:10182000000448EA03434EEA0B484FF0000EB2EBC7
:10183000080C71EB030724BF624639464EEB0E0ECF
:101840004FF0000B0018524149414BEB0B0BB2EB30
:10185000080C71EB03077BF1000B24BF624639468D
:101860004EEB0E0E4FF0000B0018524149414BEB6E
:101870000B0BB2EB080C71EB03077BF1000B24BFE1
:10188000624639464EEB0E0E51EA020718BF46F08B
:10189000010616EB0E7655F1000254F1000103D556
:1018A000BDE88901BDE80088BDE88901BDE80048C0
:1018B000B619524141EB0101A3F101037047808049
:1018C0007F7E7D7C7B7A797877767675747372719A
:1018D00071706F6E6E6D6C6C6B6A6A696868676652
:1018E00066656464636362616160605F5F5E5E5DE4
:1018F0005D5C5C5B5B5A5A59595858575756565558
:1019000055555454535352525251515050504F4FB9
:101910004F4E4E4D4D4D4C4C4C4B4B4B4A4A4A4909
:10192000494948484847474747464646454545444C
:101930004444444343434342424242414141002BD9
:101940009C4630D477002BD01CB54FEA370703B440
:101950004FF010004FF01001BAF1000F06D0BCF1AB
:10196000000FDCBF40F0080040F008014FF000001D
:101970000FBCBDE810400BF1010BBBF1010F08BF1C
:101980005FEA170722BF12F1010211F101014FF0C6
:10199000004143F1000300F0004043EA00007047BB
:1019A000F9D35708D0E746EA064613F1400F4FEA4D
:1019B00016461FDD13F1200FDFBF16430A46002134
:1019C00020335B42BED0C3F1200746EA064602FA46
:1019D00007F74FEA164646EA0706C3F1200722FA40
:1019E00003F201FA07F721FA03F14FF0000342EA8C
:1019F0000702A7E746EA020646EA06464FEA164607
:101A000046EA0106BCBF46EA0646360C4FF0000324
:101A10004FF000024FF0000194E72DE9804C9A4608
:101A2000934670B491E8380007C831EA400C48BFCB
:101A300034EA430C03D5FFF7E6FDFFF780FFF0BC67
:101A4000BDE8008C2DE9804C9A46934670B491E82D
:101A5000380007C810F0804F08BF13F0804F03D143
:101A600000F005F8FFF76BFFF0BCBDE8008C20F03C
:101A70007F4780EA030023F07F4C07EB0C03A3F5BC
:101A80007C5300F00040A3F1FE0392F0000F00F041
:101A9000B38095F0000F00F077802DE901494FEAFF
:101AA00011404FEA144621EA004800FB06FC24EAF4
:101AB000064708FB06F607FB08F800FB07F718EBDC
:101AC00006484CEB164C4FEA124B18EB07484FEA0E
:101AD00015464CEB174022EA0B4E0BFB06FC25EAA1
:101AE00006470EFB06F607FB0EFE0BFB07F71EEB89
:101AF000064E4CEB164C4FF000061EEB074E4CEB1F
:101B0000174B18EB0B0840F1000018EB0E0B58EBCD
:101B1000000840F100008F1A4FF000013CBFC9439C
:101B2000661B14BFB5EB040C00213CBFC943F61B78
:101B30004FEA17444EEA8E0E27EA04454FEA1C4747
:101B400004FB07622CEA074C05FB07F70CFB05F6C4
:101B500004FB0CFC16EB074642EB174216EB0C4657
:101B600042EB1C421BEB060658EB0202414146EADF
:101B70009E0601D5BDE80189B619524141EB01012C
:101B8000A3F10103BDE801894FEA14454FEA11476B
:101B900024EA054621EA074C05FB07F406FB07F794
:101BA0000CFB06F105FB0CFC11EB074144EB174461
:101BB0004FEA124711EB0C4144EB1C4422EA074C5C
:101BC00005FB07F206FB07F70CFB06F605FB0CFC12
:101BD00016EB074642EB174216EB0C4642EB1C4550
:101BE0006A1854F1000148BF7047B619524141EBE1
:101BF0000101A3F10103704795F0000F37D04FEAC0
:101C000011424FEA144721EA024624EA074C02FB3C
:101C100007F106FB07F70CFB06F402FB0CFC14EBC8
:101C2000074441EB17414FEA154714EB0C4441EBD5
:101C30001C4125EA074C02FB07F506FB07F70CFBE6
:101C400006F602FB0CFC16EB074645EB174516EBB8
:101C50000C4645EB1C42121951F1000148BF704778
:101C6000B619524141EB0101A3F1010370474FEA5C
:101C700014454FEA114724EA054621EA074C05FBC3
:101C800007F106FB07F70CFB06F24FF0000605FB19
:101C90000CFC12EB074241EB174112EB0C4251EBEB
:101CA0001C4148BF7047921841EB0101A3F10103A9
:101CB0007047000070B5044600251BE004F00100E9
:101CC00028B14FF400710D4800F0A0F904E04FF482
:101CD00000710A4800F098F94FF48061074800F05D
:101CE00093F900BF4FF48061044800F08FF964104D
:101CF000681CC5B2082DE1DB70BD00000018014072
:101D000010B504464FF48071064800F07FF900BF1B
:101D10004FF48071034800F077F900BF2046FFF7C9
:101D2000C9FF10BD001801401CB500200A21034660
:101D30008022CDE9001002A1064802F0F7FD1CBD8B
:101D40007653797374656D44656275675374617217
:101D500074000000194600080FB430B5C1B0154832
:101D6000007818B3002445A800904FF4807101A8B2
:101D7000009B449AFEF7FCFAC5B20EE02046621CB6
:101D8000D4B201AA115C0C4801F0FBFF00BF402156
:101D9000094801F029FF0028F9D0FF2C03DAAC42F2
:101DA00001DA002DEADC0020009000BF41B030BC19
:101DB0005DF814FB140000200038014010B586B017
:101DC0000446254801F0C2FE0121042000F050FE27
:101DD0000121880300F04CFE0121042000F0CCF822
:101DE0004FF4C060ADF8140018208DF817000320E0
:101DF0008DF8160005A9194800F032F8019400206A
:101E0000ADF80800ADF80A00ADF80C00ADF8100010
:101E10000C20ADF80E0001A90F4801F041FF01218F
:101E20000D4801F086FE012240F225510A4801F0DA
:101E300012FF4021084801F073FE25208DF80000B4
:101E40000A208DF8010001208DF80300684600F09B
:101E500009F906B010BD000000380140000801403B
:101E60002DE9F04102460025002600200023002431
:101E7000002791F803C00CF00F0591F803C00CF097
:101E8000100CBCF1000F03D091F802C04CEA05051C
:101E900091F800C0BCF1000F31D0146800202BE095
:101EA0004FF0010C0CFA00F3B1F800C00CEA030685
:101EB0009E4220D183004FF00F0C0CFA03F7BC4375
:101EC00005FA03FC4CEA040491F803C0BCF1280FA6
:101ED00006D14FF0010C0CFA00FCC2F814C00AE065
:101EE00091F803C0BCF1480F05D14FF0010C0CFA7A
:101EF00000FCC2F810C0401C0828D1D31460B1F80F
:101F000000C0BCF1FF0F34DD546800202EE000F16A
:101F1000080C4FF0010808FA0CF3B1F800C00CEA05
:101F200003069E4221D183004FF00F0C0CFA03F7F9
:101F3000BC4305FA03FC4CEA040491F803C0BCF16D
:101F4000280F05D100F1080C08FA0CF8C2F814802B
:101F500091F803C0BCF1480F07D100F1080C4FF015
:101F6000010808FA0CF8C2F81080401C0828CED3EB
:101F70005460BDE8F0810000F0B50A46002300245B
:101F80000021002500F00046B6F1004F02D11D4EA1
:101F9000F16901E01B4E7168C0F3034583B200F4A0
:101FA0004016B6F5401F08D121F07061154E7668D5
:101FB00026F07066134F7E6012E000F48016B6F5CE
:101FC000801F06D1032606FA05F4A14341F0706193
:101FD00006E0460D360103FA06F6B14341F07061A2
:101FE00022B1460D360103FA06F6314300F00046F1
:101FF000B6F1004F02D1034EF16101E0014E716074
:10200000F0BD000000000140416170470161704770
:102010002DE9F84305460E46174698468DF80050C0
:102020008DF801608DF802708DF80380C020FFF7F5
:1020300067FE002408E01DF80400FFF73BFE0020C7
:10204000FFF738FE601CC4B2042CF4DB8B20FFF7D2
:1020500057FE4FF480710248FFF7D8FFBDE8F883C0
:102060000018014070B5002100230F22C47804B38A
:10207000154C246804F4E064C4F5E064210AC1F15D
:102080000403CA40447804FA03F1847814402143DD
:1020900009010E4C0678A155047804F01F050124AF
:1020A000AC4005786D11AD0005F1E025C5F80041A3
:1020B00009E0047804F01F050124AC40044D0678C3
:1020C000761145F8264070BD0CED00E000E400E01C
:1020D00080E100E008B50121402000F0C9FC4FF488
:1020E000E060ADF8000010208DF8030003208DF8AB
:1020F000020069460348FFF7B3FE0320FFF700FE26
:1021000008BD00000018014070B500240CE0002557
:1021100006E00020074901EBC5010855681CC5B25F
:10212000802DF6DB601CC4B2082CF0DB00F0FAF85E
:1021300070BD0000AC000020F0B5144600267F28DA
:1021400001DC3F2900DDF0BD0B46CF1701EB5777CF
:10215000FF10C7F10707FAB2CF1701EB5777FF104F
:10216000A1EBC707FDB2C5F107070123BB40DEB2F3
:102170004CB10A4B03EBC0039B5C3343074F07EBA7
:10218000C007BB5408E0054B03EBC0039B5CB343A3
:10219000024F07EBC007BB5400BFD4E7AC000020E0
:1021A00008B50121182000F063FC4FF47040ADF831
:1021B000000010208DF8030003208DF8020069460E
:1021C0005348FFF74DFE0820ADF8000010208DF8B1
:1021D000030003208DF8020069464E48FFF740FED9
:1021E0004FF400514A48FFF711FF08214948FFF713
:1021F0000DFF4FF480414648FFF708FF4FF4805130
:102200004348FFF701FF4FF400414148FFF7FCFE50
:10221000002005E000BF00BF00BF00BF411C88B226
:1022200042F210718842F5DB4FF400413848FFF765
:10223000EDFE0021AE2000F09BF90021D52000F03A
:1022400097F90021502000F093F90021A82000F018
:102250008FF900213F2000F08BF90021D32000F0FE
:1022600087F90021084600F083F90021402000F0A2
:102270007FF900218D2000F07BF90021142000F06F
:1022800077F90021202000F073F90021022000F0EE
:102290006FF90021A02000F06BF90021C82000F0A8
:1022A00067F90021DA2000F063F90021122000F024
:1022B0005FF90021812000F05BF90021EF2000F0A0
:1022C00057F90021D92000F053F90021F12000F046
:1022D0004FF90021DB2000F04BF90021302000F005
:1022E00047F90021A42000F043F90021A62000F0C6
:1022F0003FF90021AF2000F03BF9FFF705FF102365
:1023000005A20221084600F003F900F00BF808BD11
:10231000000C01400010014052706920657874651E
:102320006E64000070B500241CE004F1B001C8B276
:10233000002100F01DF90021084600F019F90021E4
:10234000102000F015F9002508E0084901EBC5014F
:10235000085D012100F00CF9681CC5B2802DF4DB8A
:10236000601CC4B2082CE0DB70BD0000AC00002093
:102370002DE9F84F80460F4616461C46BA462046C1
:10238000E31704EB5373DB1021464FEAE47C04EBC4
:102390005C7C4FEAEC0CA4EBCC0CBCF1000F02D03F
:1023A0004FF0010C01E04FF0000C6344224604EBB7
:1023B000D27C4FEA6C0C03FB0CF303F0FF0BA6F18D
:1023C0002000C6B200254EE00C2C07D106EB4600DB
:1023D000274901EB8000405D009013E0102C05D1EF
:1023E000244800EB0610405D00900BE0182C07D14C
:1023F00006EBC600204901EB8000405D009001E043
:10240000BDE8F88F4FF0000927E0009800F0800049
:1024100028B1394640460A9AFFF78EFE09E00A982D
:1024200008B9012000E00020024639464046FFF787
:1024300083FE00984006000E0090781CC7B2A7EB00
:102440000A00A04205D1574608F1010000F0FF083C
:1024500006E009F1010000F0FF09B9F1080FD4DB33
:1024600000BF681CC5B25D45AEDB00BFC8E7000019
:10247000424C0008B6500008A65600082DE9FF4F50
:1024800081B0074691461E460E9D4FF0000A00247B
:1024900039E0301B401EC1B20A2001F0C1FCB9FB7B
:1024A000F0F00A21B0FBF1F201FB1208BAF1000FC3
:1024B00016D1701EA04213DDB8F1000F0ED101201D
:1024C000AB4605EBDB71491001FB04710090C8B20B
:1024D0002B4620220299FFF74BFF12E04FF0010A32
:1024E0000120AB4605EBDB71491001FB0471009044
:1024F000C8B208F13001CAB22B460299FFF738FF83
:1025000000BF601CC4B2B442C3DB05B0BDE8F08FAD
:10251000F8B506460F4615461C4621E004EBD4717B
:102520004910C1F18001B14202DA00263819C7B260
:10253000C4F14000B84204DA002006460746FFF71F
:10254000E3FD012000902A78234639463046FFF704
:102550000FFF204604EBD07106EB6101CEB26D1C7B
:1025600028787E2802DC28782028D7DAF8BD0000F9
:1025700070B504460E46002E05DD4FF480411B4821
:10258000FFF744FD04E04FF480411848FFF73CFD9D
:1025900000BF00BF4FF400511448FFF735FD002580
:1025A0001BE004F0800020B108211148FFF72EFD48
:1025B00003E008210E48FFF727FD4FF400510B48B8
:1025C000FFF724FD00BF00BF4FF400510748FFF79D
:1025D0001BFD6006040E681CC5B2082DE1DB4FF43C
:1025E00080410248FFF712FD70BD0000000C014061
:1025F0000010014000B589B0002007900121102093
:1026000000F036FA0121022000F012FA01210846FA
:1026100000F02EFA01212F48FFF7AEFC4FF4707046
:10262000ADF81C001C208DF81F0003208DF81E0043
:1026300007A92948FFF714FC4FF6FF70ADF8140006
:102640000820ADF810000020ADF81200ADF816001B
:1026500004A9224801F0FEF91D208DF82000062073
:102660008DF8210001208DF8230008A8FFF7FAFC5F
:102670000020ADF806000120ADF808000020ADF8FC
:102680000A00ADF80C00ADF8040001A9134800F0F1
:10269000F7FF0420ADF8040001A9104800F0F0FF96
:1026A0000820ADF8040001A90C4800F0E9FF0C2057
:1026B000ADF8040001A9094800F0E2FF01221F2142
:1026C000064801F033F80121044800F0BCFF09B0CE
:1026D00000BD0000000C1A00001001400004004082
:1026E00000B589B0002007900121042000F0C0F956
:1026F0000121082000F0BCF90121084600F098F9FA
:102700000121084600F0B4F901213948FFF734FCF3
:1027100001213848FFF730FC40F60840ADF81C00B6
:102720001C208DF81F0003208DF81E0007A93248D9
:10273000FFF796FB4FF40040ADF81C001C208DF80D
:102740001F0003208DF81E0007A92C48FFF788FB07
:102750004FF6FF70ADF814000820ADF8100000200F
:10276000ADF81200ADF8160004A94FF0804001F05A
:1027700071F91C208DF8200007208DF82100012020
:102780008DF8230008A8FFF76DFC0020ADF80600C7
:102790000120ADF808000020ADF80A00ADF80C00EB
:1027A000ADF8040001A94FF0804000F069FF04205B
:1027B000ADF8040001A9000700F062FF0820ADF8A1
:1027C000040001A9C00600F05BFF0C20ADF8040076
:1027D00001A94FF0804000F053FF01221F21900714
:1027E00000F0A4FF0121880700F02DFF09B000BD13
:1027F0000003180000023000000C014000080140F6
:1028000000B589B0002008900590069007900190CF
:102810000290039004900121202000F029F9012169
:10282000042000F005F90121084600F021F90121FA
:102830000803FFF7A1FB4FF47040ADF8200018200B
:102840008DF8230003208DF8220008A92448FFF703
:1028500007FB0120ADF814000020ADF81A00ADF818
:10286000160044F62060ADF8180005A91D4801F0D7
:10287000F1F86020ADF804000120ADF8060000205A
:10288000ADF80C0041F28830ADF80A0001A91548F6
:1028900000F056FF0821134800F09EFF01A91148DF
:1028A00000F0A4FF08210F4800F0F2FF01A90D4835
:1028B00000F0FCFF08210B4801F048F801A9094885
:1028C00001F04EF80821074801F088F80121054879
:1028D00000F0AAFE0121034800F0B5FE09B000BDDA
:1028E000001401400008004000B589B000200890A5
:1028F00005900690079001900290039004900121AA
:10290000042000F0B5F80121082000F091F80F2014
:10291000ADF8200018208DF8230003208DF8220048
:1029200008A92548FFF79CFA4720ADF814000020BD
:10293000ADF81A00ADF8160044F62060ADF81800A6
:1029400005A91E4801F086F86020ADF804000120BA
:10295000ADF806000020ADF80C0041F28830ADF86B
:102960000A0001A9154800F0EBFE0821134800F009
:1029700033FF01A9114800F039FF08210F4800F08A
:1029800087FF01A90D4800F091FF08210B4800F0D6
:10299000DDFF01A9094800F0E3FF0821074801F025
:1029A0001DF80121054800F03FFE0121034800F019
:1029B0004AFE09B000BD000000080140000C0040C4
:1029C00070B505460C4644F62060844200DD04469E
:1029D000032D11D004DC012D07D0022D1DD107E0FD
:1029E000042D0DD0FF2D18D10EE01048048015E005
:1029F0000E48001D048011E00C48083004800DE0F2
:102A00000A480C30048009E008480480001D048056
:102A1000001D0480001D048000E000BF00BF44F6DC
:102A200020610248343800F0E6FF70BD340C0040ED
:102A300029B1064AD2690243044BDA6104E0034A31
:102A4000D2698243014BDA617047000000100240F6
:102A500029B1064A12690243044B1A6104E0034A91
:102A600012698243014B1A61704700000010024056
:102A700029B1064A92690243044B9A6104E0034A71
:102A800092698243014B9A61704700000010024036
:102A900029B1064AD2680243044BDA6004E0034AD3
:102AA000D2688243014BDA60704700000010024098
:102AB0002DE9F041002100220025002300260024FA
:102AC00000278C46DFF86081D8F8048008F00C01FC
:102AD00021B1042907D0082959D109E0DFF84C8138
:102AE000C0F8008058E0DFF84881C0F8008053E06B
:102AF000DFF83481D8F8048008F47012DFF82881F8
:102B0000D8F8048008F48035920C0D2A01D0921C6C
:102B100000E0062235B9DFF81C8102FB08F8C0F896
:102B2000008033E0DFF80081D8F82C8008F480368C
:102B3000DFF8F480D8F82C8008F00F0808F10104C1
:102B400046B9DFF8EC80B8FBF4F808FB02F8C0F8EF
:102B500000801BE0DFF8D080D8F82C80C8F3031881
:102B600008F10107DFF8C080D8F82C80C8F30328EB
:102B700008F1020CDFF8B880B8FBF7F808FB0CF896
:102B8000B8FBF4F808FB02F8C0F8008004E0DFF8B6
:102B90009C80C0F8008000BF00BFDFF88C80D8F8B0
:102BA000048008F0F0010909DFF88C8018F8013082
:102BB000D0F8008028FA03F8C0F80480DFF86880B5
:102BC000D8F8048008F4E061090ADFF86C8018F88E
:102BD0000130D0F8048028FA03F8C0F80880DFF844
:102BE0004880D8F8048008F46051C90ADFF84880AA
:102BF00018F80130D0F8048028FA03F8C0F80C80E7
:102C0000DFF82480D8F8048008F44041890BDFF80D
:102C10002C8018F80130D0F80C80B8FBF3F8C0F81D
:102C20001080BDE8F08100000010024000127A0020
:102C300040787D0100093D000000002010000020C8
:102C400070B506460C461546002E05DD4FF40051C2
:102C50001148FFF7D9F904E04FF400510E48FFF78F
:102C6000D5F9002C05DD4FF480410B48FFF7CCF976
:102C700004E04FF480410848FFF7C8F9002D05DD56
:102C80004FF400610448FFF7BFF904E04FF400611E
:102C90000148FFF7BBF970BD0018014008B50020DE
:102CA000009001214020FFF7E3FE4FF4D040ADF843
:102CB000000010208DF8030003208DF80200694603
:102CC0000148FFF7CDF808BD0018014010B500F02D
:102CD00001F810BD0CB50020019000903F4800683D
:102CE00040F480303D49086000BF3C48006800F473
:102CF000003000900198401C0190009818B901988C
:102D0000B0F5A06FF1D13548006800F4003010B183
:102D10000120009001E000200090009801285CD183
:102D20002F48006840F010002D49086008460068F0
:102D300020F0030008600846006840F002000860C8
:102D4000264840682549486008464068486008466B
:102D5000406840F4806048600846C06A21490840E5
:102D60001E49C8620846C06A1F4908431B49C86219
:102D70000846006840F08060086000BF174800689F
:102D800000F000600028F9D01448406820F47C105E
:102D9000124948600846406840F4E8104860084618
:102DA000006840F08070086000BF0C48006800F0C8
:102DB00000700028F9D00948406820F00300074956
:102DC00048600846406840F00200486000BF034881
:102DD000406800F00C000828F9D10CBD001002403A
:102DE0000020024000F0FEFF4406010010B500BFC5
:102DF000BF2080F31188BFF34F8FBFF36F8F00BFE9
:102E000001F0C4FD18B14FF080500449086000BFC4
:102E1000002080F3118800BF10BD000004ED00E029
:102E200010B51648006840F00100144908600846D3
:102E30004068134908401149486008460068114934
:102E400008400E4908600846006820F480200860A9
:102E50000846406820F4FE0048600846006820F0FC
:102E6000A05008604FF47F0088600020C862FFF720
:102E70002DFF4FF000600449086010BD00100240B3
:102E80000000FFF0FFFFF6FE08ED00E0F0B50C4695
:102E9000154600220021068C4FF6FE773E40068440
:102EA000028B018C4FF60C7632407E1C06EA03162C
:102EB0002E433243104EB0420ED0104EB0420BD0D3
:102EC000B0F1804F08D00E4EB04205D00D4EB0424A
:102ED00002D00D4EB04206D14FF6FD76314044F09F
:102EE0000106314305E04FF6F576314044F0010626
:102EF000314302830184F0BD002C014000340140C5
:102F00000004004000080040000C0040F0B50C46F2
:102F10001546002200210026078C4FF6EF7C07EAB9
:102F20000C070784028B018C4FF6FF7707EA041623
:102F300040F6FF473A404FF6FF7707EA03373A4338
:102F40004FF6FF7707EA05273A43114FB8420ED0F4
:102F5000104FB8420BD0B0F1804F08D00E4FB8429E
:102F600005D00E4FB84202D00D4FB84206D14FF6F1
:102F7000DF77394046F01007394305E04FF65F77B9
:102F8000394044F01007394302830184F0BD00004A
:102F9000002C0140003401400004004000080040C3
:102FA000000C0040F0B50C4615460022002100261A
:102FB000078C4FF6FF6C07EA0C070784828B018CA5
:102FC0004FF6FF7707EA04264FF60C773A404FF6A4
:102FD000FF7707EA03172F433A43114FB8420ED049
:102FE000104FB8420BD0B0F1804F08D00E4FB8420E
:102FF00005D00E4FB84202D00D4FB84206D14FF661
:10300000FF57394046F48077394305E04FF2FF57C8
:10301000394044F48077394382830184F0BD000055
:10302000002C014000340140000400400008004032
:10303000000C0040F0B50C46154600220021002689
:10304000078C4EF6FF7C07EA0C070784828B018C05
:103050004FF6FF7707EA043640F6FF473A404FF64F
:10306000FF7707EA05273A434FF6FF7707EA03376A
:103070003A43114FB8420ED0104FB8420BD0B0F1C6
:10308000804F08D00E4FB84205D00E4FB84202D044
:103090000D4FB84206D14DF6FF77394046F48057C0
:1030A000394305E047F6FF57394044F48057394328
:1030B00082830184F0BD0000002C014000340140F7
:1030C0000004004000080040000C004010B5022140
:1030D000480700F0C4FA00284BD0A248007800F05E
:1030E000010098B19F48007820F001009D490870C8
:1030F0004FF08040808E9C4908804FF08040008CCB
:1031000040F002004FF0804108842AE095480078A2
:1031100040F00100934908704FF08040808E934941
:1031200008804FF08040008C20F002004FF080417A
:1031300008848D4800888D49098888420ADD8A48BC
:1031400000884FF6FF71081A8849098808448849A1
:10315000088006E08548008883490988401A844928
:1031600008804FF08040008A20F002004FF080413C
:1031700008820421080700F072FA00284BD0794831
:10318000007800F0020098B17648007820F0020044
:10319000744908704FF08040008F734948804FF0A9
:1031A0008040008C40F020004FF0804108842AE0ED
:1031B0006C48007840F002006A4908704FF0804087
:1031C000008F6A4948804FF08040008C20F020003A
:1031D0004FF08041088464484088644949888842A7
:1031E0000ADD614840884FF6FF71081A5F49498837
:1031F00008445F49488006E05C4840885A4949884D
:10320000401A5B4948804FF08040008A20F004005B
:103210004FF0804108820821C80600F020FAE0B390
:103220005048007800F0040098B14E48007820F033
:1032300004004C4908704FF08040808F4A498880D4
:103240004FF08040008C40F400704FF080410884C3
:103250002BE04448007840F00400424908704FF0E9
:103260008040808F414988804FF08040008C20F45E
:1032700000704FF0804108843B4880883B49898832
:1032800088420BDD384880884FF6FF71081A3749AD
:10329000898808443649888007E00EE033488088F2
:1032A00031498988401A324988804FF08040008A2D
:1032B00020F008004FF0804108821021880600F0BD
:1032C000CEF9D0B32748007800F0080090B1254827
:1032D000007820F008002349087026480088224919
:1032E000C8804FF08040008C40F400504FF0804187
:1032F00008842AE01B48007840F00800194908704B
:103300001C4800881949C8804FF08040008C20F488
:1033100000504FF0804108841348C0881349C98881
:1033200088420BDD1048C0884FF6FF71081A0F491C
:10333000C98808440E49C88007E00EE00B48C088E1
:103340000949C988401A0A49C8804FF08040008A5C
:1033500020F010004FF0804108820121880700F022
:103360006FF910BD48000020380000204000002008
:103370001E0000204000004010B50221A54800F0CA
:103380006EF900284BD0A448007800F0010098B1F5
:10339000A148007820F001009F4908709D48343012
:1033A00000889E4908809B482030008840F0020039
:1033B0009849203108802AE09748007840F00100C1
:1033C00095490870934834300088954908809148A1
:1033D0002030008820F002008E49203108808F487C
:1033E00000888F49098888420ADD8C4800884FF69A
:1033F000FF71081A8A49098808448A49088006E04A
:103400008748008885490988401A8649088081488C
:103410001030008820F002007E491031088004211D
:103420007C4800F01CF900284BD07B48007800F065
:10343000020098B17848007820F0020076490870C0
:1034400074483830008875494880724820300088B8
:1034500040F020006F49203108802AE06E48007853
:1034600040F002006C4908706A48383000886C49A6
:10347000488068482030008820F0200065492031CD
:103480000880664840886649498888420ADD634862
:1034900040884FF6FF71081A61494988084461491C
:1034A000488006E05E4840885C494988401A5D498A
:1034B000488058481030008820F0040055491031E9
:1034C00008800821534800F0CAF8E0B35248007859
:1034D00000F0040098B15048007820F004004E49F4
:1034E00008704C483C3000884C498880494820305E
:1034F000008840F400704749203108802BE046489E
:10350000007840F004004449087042483C3000888C
:10351000434988803F482030008820F400703D49AE
:10352000203108803D4880883D49898888420BDDEC
:103530003A4880884FF6FF71081A3949898808444B
:103540003849888007E00EE035488088334989880B
:10355000401A344988802F481030008820F0080035
:103560002C491031088010212A4800F078F8E0B387
:103570002948007800F0080098B12748007820F02A
:103580000800254908702348403000882349C88036
:1035900020482030008840F400501E492031088027
:1035A0002BE01D48007840F008001B4908701948BE
:1035B000403000881A49C88016482030008820F41E
:1035C00000501449203108801448C0881449C98823
:1035D00088420BDD1148C0884FF6FF71081A104968
:1035E000C98808440F49C88007E00EE00C48C0882D
:1035F0000A49C988401A0B49C8800648103000881B
:1036000020F010000349103108800121014800F02A
:1036100017F810BD000400403600002026000020EE
:103620002E0000201600002021B1028842F0800206
:10363000028004E002884FF67F731A4002807047D0
:10364000CA430282704721B1028842F0010202801F
:1036500004E002884FF6FE731A400280704730B5CE
:103660000246002000230024158A05EA01039589FB
:1036700005EA010413B10CB1012000E0002030BDC7
:1036800070B505460C46244885420ED02348854235
:103690000BD0B5F1804F08D02148854205D0214894
:1036A000854202D02048854200D100E000BF20883A
:1036B00050B92389A28861882846FFF7E7FBE18893
:1036C000284600F09AF925E0208804280AD12389A9
:1036D000A28861882846FFF719FCE188284600F097
:1036E00095F917E0208808280AD12389A2886188E3
:1036F0002846FFF757FCE188284600F094F909E0D6
:103700002389A28861882846FFF794FCE18828462F
:1037100000F092F970BD0000002C0140003401401F
:103720000004004000080040000C00401AB18389EA
:103730000B43838102E083898B43838170470000C0
:1037400070B5002400220023058C4FF6FE7635402C
:103750000584028C8388048B4FF68F752C40B51E30
:103760002C400D882C43751E2A400D892A434D8814
:103770002A43144DA8420BD0134DA84208D0134D34
:10378000A84205D0124DA84202D0124DA84213D132
:103790004FF6F7752A404D892A434FF6FB752A40AC
:1037A0008D882A434FF6FF652B404FF6FF552B407F
:1037B0008D892B43CD892B4383800483CD888586D7
:1037C000028470BD002C01400034014000400140E3
:1037D00000440140004801400A460021018B4FF699
:1037E000F7731940114301837047000070B500243E
:1037F00000220023058C4FF6EF7635400584028CBD
:103800008388048B48F6FF752C404FF6FF452C400B
:103810000D884FF6FF7606EA05252C434FF6DF7537
:103820002A400D8906EA05152A434D8806EA051542
:103830002A43154DA84202D0144DA8421DD14FF67F
:103840007F752A404D894FF6FF7606EA05152A4313
:103850004FF6BF752A408D8806EA05152A434FF6B4
:10386000FF352B404FF2FF752B408D8906EA850509
:103870002B43CD8906EA85052B4383800483CD88BD
:103880000587028470BD0000002C01400034014017
:103890000A460021018B4FF2FF7319404FF6FF7368
:1038A00003EA0223194301837047000070B5002426
:1038B00000220023058C4FF6FF6635400584028CFC
:1038C0008388848B4FF68F752C404FF6FC752C4007
:1038D0000D882C434FF6FF552A400D894FF6FF7691
:1038E00006EA05252A434D8806EA05252A43154D93
:1038F000A84202D0144DA8421DD14FF2FF752A40B4
:103900004D894FF6FF7606EA05252A434FF6FF3527
:103910002A408D8806EA05252A434EF6FF752B407E
:103920004DF6FF752B408D8906EA05152B43CD8991
:1039300006EA05152B4383808483CD88858702841E
:1039400070BD0000002C0140003401400A460021F7
:10395000818B4FF6F7731940114381837047000044
:1039600070B5002200230024058C4EF6FF7635400A
:103970000584038C8488828B48F6FF752A404FF6B5
:10398000FF452A400D884FF6FF7606EA05252A43B3
:103990004DF6FF752B400D8906EA05352B434D8802
:1039A00006EA05352B430B4DA84202D00A4DA8422A
:1039B00008D14BF6FF752C408D894FF6FF7606EA4D
:1039C00085152C4384808283CD88A0F840500384E1
:1039D00070BD0000002C0140003401400A46002167
:1039E000818B4FF2FF7319404FF6FF7303EA0223F6
:1039F00019438183704781857047028B4FF6F373BB
:103A00001A400283028B0A4302837047028B4FF2F3
:103A1000FF331A400283028B4FF6FF7303EA012340
:103A20001A4302837047828B4FF6F3731A408283E6
:103A3000828B0A4382837047828B4FF2FF331A4096
:103A40008283828B4FF6FF7303EA01231A4382833A
:103A500070470000002202881D4B98420ED01D4B7B
:103A600098420BD0B0F1804F08D01B4B984205D044
:103A70001A4B984202D01A4B984204D14FF68F73DA
:103A80001A404B881A43174B984207D0164B98425E
:103A900004D04FF6FF431A40CB881A4302808B882C
:103AA00083850B8803850A4B98420BD0094B9842BB
:103AB00008D00E4B984205D00D4B984202D00D4BCA
:103AC000984201D10B7A038601238382704700005C
:103AD000002C014000340140000400400008004078
:103AE000000C004000100040001400400040014065
:103AF000004401400048014010B540F225510748FC
:103B000000F07FF840B1054800F036F9C4B240F249
:103B10002551024800F004F810BD000000380140B3
:103B200001F40072B2F5007F00D100BFCA430280E9
:103B3000704721B1828942F40052828104E0828977
:103B40004DF6FF731A4082817047000010B504469D
:103B50002048844209D101218803FEF799FF002102
:103B60004FF48040FEF794FF32E01B48844209D1B5
:103B700001214804FEF76CFF00214FF40030FEF7EE
:103B800067FF25E01548844209D101218804FEF72A
:103B90005FFF00214FF48020FEF75AFF18E0104825
:103BA000844209D10121C804FEF752FF00214FF4DD
:103BB0000020FEF74DFF0BE00A48844208D10121A6
:103BC0000805FEF745FF00214FF48010FEF740FF87
:103BD00010BD000000380140004400400048004093
:103BE000004C00400050004002460020B1F5007F2C
:103BF00000D100BF13880B400BB1012000E0002072
:103C0000704770B50246002400230025002040F6CE
:103C10006A16B14200D100BFC1F3421501F01F0383
:103C2000012606FA03F3012D02D19689334006E0FE
:103C3000022D02D1168A334001E0968A33400C12DD
:103C4000012606FA04F41688344013B10CB10120A1
:103C500000E0002070BDF0B50346002400260025DA
:103C6000002040F66A17B94200D100BF1846C1F3E0
:103C7000421401F01F06012707FA06F5012C01D1B5
:103C80000C3004E0022C01D1103000E014301AB1E5
:103C900007682F43076002E00768AF430760F0BD85
:103CA0002DE9F04786B005460E460024A24600BF27
:103CB000A1460027B08900B100BF2F462C8A4CF6E0
:103CC000FF700440F08804432C82AC894EF6F31058
:103CD0000440B08831890843718908430443AC81AA
:103CE000AC8A4FF6FF400440B0890443AC8201A87F
:103CF000FEF7DEFE1F48874202D1DDF810A001E08A
:103D0000DDF80CA0A88900F4004040B10AEBCA001D
:103D100000EB0A1031684900B0FBF1F807E00AEB4C
:103D2000CA0000EB0A1031688900B0FBF1F864208A
:103D3000B8FBF0F004012009642101FB1089A88977
:103D400000F4004040B1322000EBC900B0FBF1F0BC
:103D500000F00700044308E0322000EB0910642162
:103D6000B0FBF1F000F00F0004432C8106B0BDE879
:103D7000F08700000038014001468888C0F3080041
:103D80007047C1F3080282807047490050EAC120A1
:103D900018BF04204A0D18BF40F0010040F2FF7226
:103DA000B2EB515F08BF40F00200012808BF0520B8
:103DB000704730380A2801D2012070470020704730
:103DC00010B5044C63792279E178A078FEF720F9E8
:103DD00010BD0000384C00080146032901DD002019
:103DE0007047024830F81100FAE700001600002082
:103DF0000146032901DD00207047024830F8110018
:103E0000FAE700001E000020FFF70AF8012080F307
:103E1000108800BFFDF788FF00F090FC00BFFEE7B0
:103E200010B50246012000E050430B1EA1F1010431
:103E3000E1B2F9D110BD00002DE9F04105460E4672
:103E40001C4807681C480068001D00F0CFFA50B9F4
:103E50001948006890F82C1001208840174909681B
:103E6000814316480160681C38B936B112480168B0
:103E7000091D134800F0F8FA1AE07C190E48006892
:103E80004460BC4207D20C480168091D0D48006817
:103E900000F0D0FA0CE008480168091D0A480068E3
:103EA00000F0C8FA09480068844201D2074804605B
:103EB000BDE8F081600000204C000020640000207C
:103EC0007C07002054000020500000207C000020CF
:103ED00010B5044600F0D4FA24480068401C234979
:103EE00008602348006840B921480460084600681B
:103EF00001280DD100F028F90AE01E48006838B901
:103F00001B480068C06AE16A884201D8184804600A
:103F100019480068401C1849086008460068206479
:103F200094F82C100120884014490968084313496B
:103F30000860E16A01EB8101114A02EB8100211D59
:103F400000F092FA00F0C6FA0A48006868B1084822
:103F50000068C06AE16A884207D24FF08050094980
:103F60000860BFF34F8FBFF36F8F10BD5C00002060
:103F70004C00002068000020780000206400002031
:103F8000AC04002004ED00E010B516E000F078FA73
:103F90000C48C068C468201D00F028FA0A48006870
:103FA000401E0949086009480068401E074908602A
:103FB00000F090FA204600F00BF804480068002852
:103FC000E4D110BD680700205C00002058000020EC
:103FD00010B50446206B00F09BFA204600F098FADA
:103FE00010BD000030B54FF40043174800F007043F
:103FF0002CB1C01D20F00700134C041B1B1B0246F4
:10400000124C22600024114D6C60D018083820F04A
:1040100007000F4C206000240D4D2D686C600C4D86
:104020002D682C601146441A4C60094C24680C60C1
:10403000084D4C682C60084D4C682C604FF00044D3
:10404000064D2C6030BD0000900700209400002039
:104050009C000020A4000020A0000020A800002058
:1040600000BFFFF791FF064800680128F9D94FF01B
:10407000805004490860BFF34F8FBFF36F8FF0E7A4
:10408000AC04002004ED00E02DE9F05F82460E460E
:1040900090469B460A9F0C9C4FEA8801A522206B04
:1040A000FCF780F9A8F10100216B01EB800929F0F0
:1040B000070909F0070008B9012000E0002050B905
:1040C00000BFBF2080F31188BFF34F8FBFF36F8F06
:1040D00000BF00BFFEE786B1002507E0715D04F177
:1040E00034004155705D00B902E06D1C0A2DF5D316
:1040F00000BF00213D20015502E0002084F834007B
:10410000202F00D31F27E762A7640020E064201D52
:1041100000F08DF904F1180000F089F92461C7F16D
:104120002000A06164620020206584F854005A4693
:104130005146484600F048F920600B9808B10B98AA
:104140000460BDE8F09F000010B5002407E004EB18
:1041500084010F4A02EB810000F05CF9641C202C02
:10416000F5D30C4800F056F90B4800F053F90B4812
:1041700000F050F90A4800F04DF90A4800F04AF9F9
:1041800004480949086004480849086010BD000057
:10419000AC0400202C07002040070020540700201A
:1041A000680700207C0700205000002054000020F9
:1041B00010B50146164800E0006803688B42FBD347
:1041C0000246436813448B4204D143684C6823443D
:1041D000436001460A464B6813440468A34211D168
:1041E0000C4C03682468A34208D04B6804686468D8
:1041F00023444B6003681B680B6005E0054B1B689C
:104200000B6001E003680B60884200D0016010BDC4
:10421000940000209C0000200A490968096809B937
:10422000012100E0002121B14FF0FF31064A116069
:1042300006E004490968C968C868034A4168116012
:1042400070470000500000207C0000200E480068ED
:10425000401C08B9012000E0002050B900BFBF2079
:1042600080F31188BFF34F8FBFF36F8F00BF00BF84
:10427000FEE700BFBF2080F31188BFF34F8FBFF36D
:104280006F8F00BF00BFFEE7880000202DE9F041DE
:1042900004464FF0000800F095FA4648006808B957
:1042A000FFF7A0FE44480068204000286BD1D4B13D
:1042B000083404F00700B0B104F00700C0F10800B2
:1042C000044404F0070008B9012000E0002050B9C0
:1042D00000BFBF2080F31188BFF34F8FBFF36F8FF4
:1042E00000BF00BFFEE7002C4DD034480068844278
:1042F00049D8334E3046056801E02E462D6868687F
:10430000A04202D228680028F7D12A4800688542D6
:1043100039D0306800F10808286830606868001BF0
:10432000102819D92F1907F0070008B9012000E05B
:10433000002050B900BFBF2080F31188BFF34F8F1A
:10434000BFF36F8F00BF00BFFEE76868001B786097
:104350006C603846FFF72CFF184968680968081A2E
:10436000164908600846006816490968884203D261
:1043700012480068134908600F49686809680843D3
:1043800068600020286000F0A5FB08F0070008B96D
:10439000012000E0002050B900BFBF2080F3118849
:1043A000BFF34F8FBFF36F8F00BF00BFFEE74046E4
:1043B000BDE8F0819C000020A8000020A0000020A3
:1043C00094000020A4000020001F4FF080730360C1
:1043D000001F21F001030360001F034B036014382A
:1043E00002602038704700004D42000801460A690B
:1043F000D1E901309860D1E90103586050688842E2
:1044000001D188685060002008611068401E10606B
:104410001068704700F1080141604FF0FF31816082
:1044200000F10801C16001610021016070470021B5
:104430000161704710B502460B685C1C0CB910692D
:1044400007E002F1080000E04068446824689C42EC
:10445000FAD944684C604C68A160886041600A6188
:104460001468641C146010BD42684A6093688B60D5
:10447000936859609160086103685B1C0360704732
:1044800000BFBF2080F31188BFF34F8FBFF36F8F42
:1044900000BF0E480068401C0C49086008460068D0
:1044A000012812D10A480068C0B208B9012000E012
:1044B000002050B900BFBF2080F31188BFF34F8F99
:1044C000BFF36F8F00BF00BFFEE77047880000207A
:1044D00004ED00E00D48006850B900BFBF2080F334
:1044E0001188BFF34F8FBFF36F8F00BF00BFFEE790
:1044F00006480068401E054908600846006820B963
:10450000002080F3118800BF00BF704788000020A2
:1045100070B506463546002E3FD0083D2C461F4953
:1045200060680968084008B1012000E0002050B927
:1045300000BFBF2080F31188BFF34F8FBFF36F8F91
:1045400000BF00BFFEE7206808B9012000E000209E
:1045500050B900BFBF2080F31188BFF34F8FBFF366
:104560006F8F00BF00BFFEE70C4960680968084014
:1045700098B1206888B90949606809688843606013
:1045800000F020F906496068096808440449086099
:104590002046FFF70DFE00F09DFA70BDA800002038
:1045A000A000002000204FF0E0210861886102484F
:1045B00048610720086170473F19010070B5044643
:1045C0000025D4B11248006808B9012000E000209D
:1045D00050B900BFBF2080F31188BFF34F8FBFF3E6
:1045E0006F8F00BF00BFFEE700F0ECF8002120460F
:1045F000FFF722FC00F06EFA05463DB94FF08050FF
:1046000004490860BFF34F8FBFF36F8F70BD000088
:104610008400002004ED00E008B54FF4E130FDF720
:10462000CDFBFEF73BFB002211461046FEF708FBD0
:1046300000BF3FA0FDF790FBFDF74CFDFFF7C0FB6F
:10464000FDF7AEFDFEF7DCF8FEF74EF9FDF7D2FF01
:10465000FEF746F84FF44871FF20FEF7B1F965E028
:104660004FF4FA60FFF7AAFF0320FFF7B5FB0446FB
:104670000C2008232246122100900220FDF7FEFEA6
:104680000220FFF7A9FB04460C20082322461C2128
:1046900000900220FDF7F2FE0120FFF79DFB04468B
:1046A0000C2008232246262100900220FDF7E6FE7A
:1046B0000020FFF791FB04460C20082322463021FE
:1046C00000900220FDF7DAFE0020FFF791FB044680
:1046D0000C2008232246122100904620FDF7CEFE32
:1046E0000120FFF785FB04460C20082322461C21ED
:1046F00000904620FDF7C2FE0220FFF779FB04463A
:104700000C2008232246262100904620FDF7B6FE05
:104710000320FFF76DFB04460C20082322463021BE
:1047200000904620FDF7AAFEFDF7FCFD98E700008B
:1047300048656C6C6F205250490A00001CB51A483D
:1047400000210B468022CDE9001018A1194800F085
:10475000EDF80446012C15D100BFBF2080F311886D
:10476000BFF34F8FBFF36F8F00BF4FF0FF30124981
:10477000086001201149086000201149086000F01C
:104780006FF810E0601C08B1012000E0002050B973
:1047900000BFBF2080F31188BFF34F8FBFF36F8F2F
:1047A00000BF00BFFEE71CBD8000002049444C450F
:1047B00000000000614000087C000020680000202C
:1047C0006000002002480068401C014908607047F2
:1047D000840000201D48006818B101201C490860B1
:1047E00032E000201A4908601A480068B0FA80F0E8
:1047F000C0F11F0101EB8100174A52F8200008B1F7
:10480000012000E0002050B900BFBF2080F31188D4
:10481000BFF34F8FBFF36F8F00BF00BFFEE701EB09
:1048200081020D4B03EB820042685268426000F146
:1048300008024368934202D142685268426042686B
:10484000D268064B1A6000BF704700008400002049
:104850007000002064000020AC0400204C00002008
:104860001CB52D49084600780190FF200A461070BB
:104870000846007800909DF800009DF800209042C6
:1048800001D1012000E0002050B900BFBF2080F31B
:104890001188BFF34F8FBFF36F8F00BF00BFFEE7DC
:1048A0009DF8000000F0BF001C4A107007201C4A51
:1048B000106009E01A480068401E194A10609DF80F
:1048C00000004006000E00909DF8000000F08000FF
:1048D0008028EFD0124800680002114A106010468C
:1048E000008800F4E06010600B4A019810700D48D9
:1048F000006840F47F000B4908600846006840F0FB
:104900007F400860FFF74EFE002007490860FBF774
:10491000D5FC00201CBD000000E400E08C0000205D
:104920009000002020ED00E0880000202DE9FF4FDE
:1049300085B0804689461746DDE912ABB800FFF71F
:10494000A5FC064656B15820FFF7A0FC04460CB162
:10495000266304E03046FFF7DBFD00E000247CB175
:104960000020CDE900ABCDE902403A464946404639
:10497000089BFFF789FB2046FFF7AAFA012501E013
:104980004FF0FF35284609B0BDE8F08F2DE9F04122
:104990004FF0000844480068002877D14348006879
:1049A000451C4248056015BB41480068006808B9CD
:1049B000012000E0002050B900BFBF2080F3118823
:1049C000BFF34F8FBFF36F8F00BF00BFFEE73848C4
:1049D0000768384800683649086036480760364836
:1049E0000068401C34490860FFF716FC00BF3348DC
:1049F000006885423CD300BF2D480068006808B9B4
:104A0000012000E0002020B14FF0FF302B4908606A
:104A10002DE027480068C068C4686668B54202D2C5
:104A20002648066023E0201DFFF7E0FCA06A18B1CD
:104A300004F11800FFF7DAFC94F82C1001208840EC
:104A40001F49096808431E490860E16A01EB8101BA
:104A50001C4A02EB8100211DFFF706FD1A49E06A9E
:104A60000968C96A8842C7D34FF00108C4E700BF8C
:104A700015480068C06A00EB8000124951F8200018
:104A8000012801D94FF0010805E0FFE70F48006851
:104A9000401C0E4908600E48006808B14FF001083C
:104AA0004046BDE8F0810000840000206000002046
:104AB0005000002054000020740000207C000020E2
:104AC00064000020AC0400204C0000206C0000209A
:104AD0007000002070B5002400263648006850B9E8
:104AE00000BFBF2080F31188BFF34F8FBFF36F8FDC
:104AF00000BF00BFFEE7FFF7C3FC2E480068401E62
:104B00002C4908600846006800284FD12A480068F0
:104B100000284BD024E02948C068C46804F118007C
:104B2000FFF764FC201DFFF761FC94F82C100120B6
:104B3000884023490968084321490860E16A01EB7C
:104B40008101204A02EB8100211DFFF78DFC1E49E7
:104B5000E06A0968C96A884202D301201B490860DB
:104B60001648006808B9012000E000200028D2D0D3
:104B70000CB1FFF751FB1648056865B100BFFFF7A0
:104B800005FF10B10120114908606D1E002DF6D1FE
:104B900000200F4908600D48006838B10126300731
:104BA0000C490860BFF34F8FBFF36F8FFFF792FC84
:104BB000304670BD840000205C00002054070020B7
:104BC00064000020AC0400204C0000207000002095
:104BD0006C00002004ED00E010B500290AD0087830
:104BE000002807D005487844FCF754FC002801D081
:104BF000002010BD0248784410BD00003A190000A2
:104C00003219000010B500290AD00878002807D012
:104C100005487844FCF73EFC002801D0002010BD78
:104C20000248784410BD00002A1900002219000033
:104C3000FCF73DB8FCF772B93F065B4F666D7D0728
:104C40007F6F000000000000000000000000000076
:104C500000003F4000000000000000003000400065
:104C600030004000000009000BC03D000BC03D00BB
:104C7000090018C024407FE0224031800000180065
:104C800024C01B000D803240018003801C4027405F
:104C90001C80074000401000600000000000000081
:104CA00000000000000000001F80204040200000A5
:104CB000402020401F8000000000090006001F80E7
:104CC000060009000000040004003F800400040006
:104CD0000000001000600000000000000000040060
:104CE0000400040004000400000000000040000074
:104CF000000000000000002001C006003800400055
:104D000000001F802040204020401F800000000045
:104D100010403FC000400000000018C02140224069
:104D200024401840000010802040244024401B8074
:104D3000000002000D0011003FC0014000003C8057
:104D4000244024402440238000001F80244024402D
:104D50003440038000003000200027C038002000CD
:104D600000001B802440244024401B8000001C00C5
:104D700022C0224022401F800000000000000840A6
:104D800000000000000000000000046000000000BF
:104D90000000000004000A001100208040400900CB
:104DA00009000900090009000000000040402080BF
:104DB00011000A00040018002000234024001800FD
:104DC00000001F802040274029401F400000004075
:104DD00007C039000F0001C0004020403FC0244000
:104DE00024401B8000001F80204020402040308055
:104DF000000020403FC0204020401F800000204095
:104E00003FC024402E4030C0000020403FC024401E
:104E10002E00300000000F00108020402240338020
:104E2000020020403FC0040004003FC0204020405A
:104E300020403FC020402040000000602020202073
:104E40003FC02000200020403FC024400B0030C065
:104E5000204020403FC020400040004000C03FC0F4
:104E60003C0003C03C003FC0000020403FC00C405D
:104E700023003FC020001F802040204020401F8092
:104E8000000020403FC024402400180000001F8084
:104E90002140214020E01FA0000020403FC02440CE
:104EA000260019C0004018C0244024402240318010
:104EB0000000300020403FC02040300000002000B3
:104EC0003F80004000403F80200020003E0001C0A5
:104ED000070038002000380007C03C0007C0380039
:104EE0000000204039C0060039C0204000002000EA
:104EF000384007C0384020000000304021C0264024
:104F0000384020C00000000000007FE0402040202A
:104F10000000000070000C00038000400000000052
:104F2000402040207FE00000000000002000400002
:104F30002000000000000010001000100010001001
:104F40000010000000004000000000000000000011
:104F500002800540054003C0004020003FC00440DF
:104F60000440038000000000038004400440064029
:104F7000000000000380044024403FC000400000C7
:104F800003800540054003400000000004401FC0AE
:104F9000244024402000000002E005500550065047
:104FA000042020403FC00440040003C00040000033
:104FB000044027C000400000000000100010041052
:104FC00027E00000000020403FC00140070004C06F
:104FD0000440204020403FC000400040000007C087
:104FE000040007C0040003C00000044007C00440E0
:104FF000040003C00040000003800440044003801C
:105000000000041007F0045004400380000000007A
:1050100003800440045007F00010044007C0024021
:10502000040004000000000006400540054004C0E4
:105030000000000004001F80044000400000040045
:1050400007800040044007C000400400070004C07F
:10505000018006000400060001C0070001C0060030
:105060000000044006C0010006C004400000041017
:10507000071004E00180060004000000044005C0A1
:105080000640044000000000000004007BE04020D7
:105090000000000000000000FFF000000000000021
:1050A00040207BE004000000000040008000400041
:1050B0002000200040000000000000000000000070
:1050C0000000000000000000000000001FCC000CE9
:1050D0000000000000000000080030006000080030
:1050E000300060000000022003FC1E20022003FCB0
:1050F0001E200220000000000E1811043FFF108443
:105100000C78000000000F0010840F3800C00778F2
:1051100018840078000000780F8410C411240E98C1
:1051200000E400840008080068007000000000002F
:1051300000000000000000000000000007E0181858
:10514000200440020000000040022004181807E07C
:105150000000000000000240024001800FF00180CA
:105160000240024000000080008000800FF80080B4
:105170000080008000000001000D000E0000000013
:10518000000000000000000000800080008000801F
:105190000080008000800000000C000C0000000077
:1051A0000000000000000000000600180060018000
:1051B000060018002000000007F008081004100482
:1051C000080807F000000000080408041FFC0004A1
:1051D00000040000000000000E0C10141024104405
:1051E00011840E0C000000000C18100411041104AE
:1051F00012880C700000000000E003200424082442
:105200001FFC0024000000001F98108411041104EA
:10521000108810700000000007F0088811041104C5
:1052200018880070000000001C00100010FC130023
:105230001C001000000000000E381144108410847F
:1052400011440E38000000000700088C1044104480
:10525000088807F00000000000000000030C030CA9
:105260000000000000000000000000010106000036
:105270000000000000000000008001400220041037
:105280000808100400000220022002200220022050
:105290000220022000000000100408080410022070
:1052A00001400080000000000E001200100C106C85
:1052B00010800F00000003E00C1813E4142417C43E
:1052C000082807D000000004003C03C41C4007402D
:1052D00000E4001C000410041FFC1104110411045C
:1052E0000E880070000003E00C1810041004100475
:1052F00010081C10000010041FFC100410041004FF
:10530000080807F0000010041FFC1104110417C462
:1053100010040818000010041FFC1104110017C02D
:1053200010000800000003E00C18100410041044E2
:105330001C780040000010041FFC108400800080D6
:1053400010841FFC10040000100410041FFC100443
:1053500010040000000000030001100110011FFEF6
:1053600010001000000010041FFC110403801464DE
:10537000181C1004000010041FFC1004000400049A
:105380000004000C000010041FFC1F0000FC1F00A4
:105390001FFC1004000010041FFC0C04030000E0BC
:1053A00010181FFC100007F0080810041004100467
:1053B000080807F0000010041FFC10841080108003
:1053C00010800F00000007F0081810241024101C93
:1053D000080A07F2000010041FFC1104110011C09C
:1053E00011300E0C000400000E1C110410841084F7
:1053F00010441C3800001800100010041FFC10049A
:1054000010001800000010001FF810040004000431
:1054100010041FF8100010001E0011E0001C0070A6
:1054200013801C0010001FC0103C00E01F0000E0B3
:10543000103C1FC000001004180C163401C001C03D
:105440001634180C100410001C00130400FC130484
:105450001C00100000000804101C106410841304C9
:105460001C04101800000000000000007FFE400235
:10547000400240020000000030000C000380006089
:10548000001C0003000000004002400240027FFEBA
:10549000000000000000000000002000400040006C
:1054A0004000200000000001000100010001000197
:1054B0000001000100010000400040002000000049
:1054C0000000000000000000009801240144014495
:1054D000014400FC000410001FFC008801040104CA
:1054E00000880070000000000070008801040104C2
:1054F000010400880000000000700088010401041D
:1055000011081FFC0004000000F80144014401449C
:10551000014400C800000000010401040FFC110454
:10552000110411001800000000D6012901290129E9
:1055300001C90106000010041FFC008401000100E5
:10554000010400FC000400000104190419FC00041B
:105550000004000000000000000300010101190127
:1055600019FE0000000010041FFC0024004001B4DC
:10557000010C010400000000100410041FFC0004D2
:10558000000400000000010401FC0104010001FC12
:105590000104010000FC010401FC00840100010081
:1055A000010400FC0004000000F8010401040104EF
:1055B000010400F80000010101FF0085010401045D
:1055C00000880070000000000070008801040104E1
:1055D000010501FF00010104010401FC0084010434
:1055E000010001800000000000CC012401240124FE
:1055F00001240198000000000100010007F80104E7
:10560000010400000000010001F80004000400048F
:10561000010801FC0004010001800170000C001071
:1056200001600180010001F0010C003001C0003078
:10563000010C01F0010000000104018C00740170F4
:10564000018C01040000010101810171000E0018AC
:1056500001600180010000000184010C013401445B
:105660000184010C000000000000000000000100A7
:105670003EFC400240020000000000000000FFFF6E
:105680000000000000000000400240023EFC01005B
:10569000000000000000000060008000800040006A
:1056A000400020002000000000000000000000007A
:1056B00000000000000000000000000000000000EA
:1056C00000000000000000000000000000000000DA
:1056D0000000000000000000000F80380FFE380FAF
:1056E0008038000000000000000000000000000002
:1056F000000000000100000600000C00003800005F
:105700003100000600000C000038000030000000EE
:1057100000000000000061800067F807F980006168
:10572000800061800061800061800067F807F98077
:1057300000618000000000000000000001C0E003E4
:10574000E0F00630080418081FFFFE040E08078763
:10575000F00381E000000000000001F000060C00F2
:10576000040408060C7001F9C0000E00003BE000C4
:10577000EC18070808040C180003E0000000000102
:10578000E00007F003F818041C0804170807E1D02C
:1057900003C0E00023B0003C080020080000100017
:1057A00000000000000100003100003200001C0079
:1057B00000000000000000000000000000000000E9
:1057C00000000000000000000000000000000000D9
:1057D0000000000000007F0001FFC00780F00C0007
:1057E0001810000420000200000000000020000249
:1057F0001000040C00180780F001FFC0007F0000BB
:105800000000000000000000000000000000000098
:1058100000004200006600006600003C0000180026
:1058200003FFC0001800003C000066000066000096
:105830004200000000000800000800000800000806
:105840000000080001FFC000080000080000080078
:105850000008000008000000000000010000310006
:10586000003200001C0000000000000000000000EA
:105870000000000000000000000000000000080020
:1058800000080000080000080000080000080000F0
:1058900008000008000008000008000000000000E8
:1058A0000000000000003800003800003800000050
:1058B00000000000000000000000000000000000E8
:1058C000000000000000000600001C000070000145
:1058D00080000E0000380000C0000700001C00001F
:1058E000300000000000000000007F8001FFE003A6
:1058F00080700600180400080400080600180380E1
:105900007001FFE0007F8000000000000000000048
:1059100001000801000801000803FFF807FFF80074
:10592000000800000800000800000000000000005F
:105930000001C03802C0580400980401180402187D
:10594000040418061C1803F81801E0F80000000011
:10595000000000000001C0E003C0F00400080408DB
:105960000804080806180803F41801E7F00001E02D
:10597000000000000000000000000300000D000017
:10598000110000610000810803010807FFF80FFF04
:10599000F80001080001080000000000000000E01D
:1059A00007FCD006080806100806100806100806AE
:1059B0001838060FF00607C00000000000000000C5
:1059C00000003F8001FFE003843002081804100843
:1059D000041008041008071810030FF00007C00097
:1059E000000000000000000003C0000700000600E7
:1059F000000600F80607F806180006E00007000099
:105A000006000000000000000001E1E003F7F006DE
:105A10003410041808041808040C08040C080616AE
:105A20001803F3F001C1E000000000000000F800DE
:105A300003FC3003063804020804020804020804C8
:105A400004100308F001FFC0007F00000000000008
:105A5000000000000000000000000000000070389E
:105A600000703800703800000000000000000000E6
:105A70000000000000000000000000000000000026
:105A80000000301A00301C00000000000000000080
:105A900000000000000000000000000000080000FE
:105AA000140000220000410000808001004002003C
:105AB0002004001008000800000000000000210081
:105AC0000021000021000021000021000021000031
:105AD0002100002100002100002100000000000042
