:020000040800F2
:10000000C08D002031030008390300083B030008BD
:100010003D0300083F030008410300080000000002
:10002000000000000000000000000000990200082D
:100030004503000800000000DD020008FD2800085C
:100040004B0300084B0300084B0300084B03000858
:100050004B0300084B0300084B0300084B03000848
:100060004B0300084B0300084B0300084B03000838
:100070004B0300084B0300084B0300084B03000828
:100080004B0300084B0300084B0300084B03000818
:100090004B0300084B0300084B0300084B03000808
:1000A0004B0300084B0300084B0300084B030008F8
:1000B0004B0300084B0300084B0300084B030008E8
:1000C0004B0300084B0300084B0300084B030008D8
:1000D0004B0300089D2900084B0300084B03000850
:1000E0004B0300084B0300084B030008000000000E
:1000F0000000000000000000000000000000000000
:1001000000000000000000004B0300084B03000843
:100110004B0300084B0300084B0300084B03000887
:100120004B0300084B0300084B0300084B03000877
:100130004B0300084B0300084B0300084B03000867
:100140004B0300084B0300084B0300084B03000857
:1001500000F002F800F090F80AA090E8000C824449
:100160008344AAF10107DA4501D100F085F8AFF226
:10017000090EBAE80F0013F0010F18BFFB1A43F085
:1001800001031847B4510000D4510000103A24BFB5
:1001900078C878C1FAD8520724BF30C830C144BFEC
:1001A00004680C607047000000230024002500262E
:1001B000103A28BF78C1FBD8520728BF30C148BFCA
:1001C0000B6070476E2900F0BD81702900F0078335
:1001D000662903F04984652903F04684672903F002
:1001E0004384612903F0428403681B0A28BF41F05D
:1001F0008001692900F06A81642900F0678175290E
:1002000000F064816F2900F09482782900F0D38295
:10021000E92900F02F82E42900F02C82F52900F072
:100220002982EF2900F09182F82900F0D282036838
:10023000DB0928BF41F08001632900F0F7877329AB
:1002400000F0FC87E32901F00780F32901F00C801E
:10025000002070471FB501F059F80400002000216C
:1002600003F0ECFB401C60600020002103F0D0FB99
:10027000E0601FBD10B510BD01F01AF81146FFF780
:10028000E9FF02F0FBFC01F0F7F803B4FFF7F2FF1F
:1002900003BC01F03FF90000224B19680868B0E880
:1002A000F00F80F30988BFF36F8F4FF0000080F3E9
:1002B00011884EF00D0E70470000000006480068DF
:1002C000006880F3088862B661B6BFF34F8FBFF352
:1002D0006F8F00DF00BF00BF08ED00E0EFF3098083
:1002E000BFF36F8F0F4B1A6820E9F00F106008B54D
:1002F0004FF0BF0080F31188BFF34F8FBFF36F8FB4
:1003000003F084F94FF0000080F31188BDE8084045
:1003100019680868B0E8F00F80F30988BFF36F8FA1
:10032000704700BF18000020EFF305807047000001
:100330000948804709480047FEE7FEE7FEE7FEE779
:10034000FEE7FEE7FEE7FEE7FEE7FEE704480549B5
:10035000054A064B7047000031290008510100088A
:10036000C0870020C08D0020C0890020C0890020E7
:100370007CB51D4616460C00009001D02044401E5E
:10038000074B7B442A4669460190304600F0F3F85B
:1003900005461CB10020694600F000F928467CBDE6
:1003A0002102000002F0FF0343EA032242EA024274
:1003B00000F0E6BA4FF0000200B5134694469646A8
:1003C000203922BFA0E80C50A0E80C50B1F1200168
:1003D000BFF4F7AF090728BFA0E80C5048BF0CC016
:1003E0005DF804EB890028BF40F8042B08BF704774
:1003F00048BF20F8022B11F0804F18BF00F8012BE6
:10040000704770477047704770B50446856900684B
:10041000C10601D5302600E02026C00707D070BDF8
:10042000D4E9012130469047206A401C20626D1EAD
:10043000F6D570BD70B5044685690078C00707D150
:1004400070BDD4E9012120209047206A401C206221
:100450006D1EF6D570BD09684A0501D540B27047DA
:10046000C905FCD500B2704709684A0501D5C0B27C
:100470007047C905FCD580B2704770B50C4605467B
:10048000012A05D02878800600D5EA69002302E019
:10049000012305E05B1C934202D2E05C0028F9D105
:1004A000A869E618C01AA861286A18442862284674
:1004B000FFF7AAFF04E0D5E9012114F8010B9047EA
:1004C000B442F8D32846FFF7B5FF70BD2DE9F041DF
:1004D0000646002410687529314616A510D0FFF78E
:1004E000BAFF002802DA404213A507E031688A0704
:1004F00001D512A502E0490704D511A5012401E0A8
:10050000FFF7B2FF00210A2206F1240709E0B0FB41
:10051000F2FCB0FBF2F302FB1C00303078541846BA
:10052000491C0028F3D123462A463046BDE8F04155
:1005300000F08BBA000000002D0000002B0000002E
:100540002000000011680268006A530501D5087098
:100550000AE0D30501D5088006E0130603D5C217CB
:10056000C1E9000200E008600120704701694A1CEF
:1005700002610878704700B58FB0CDE901310021E4
:10058000059105497944CDE903101146684600F00C
:1005900031F90FB000BD0000E5FFFFFF0A6802F867
:1005A000010B0A607047D1E900239A4202D2531C22
:1005B0000B601070704700002DE9FF5F15468A46FA
:1005C0000446DFF8AC80F8440027D8E900103E4626
:1005D000CDE9001010E03AF816106A4602A800F0C3
:1005E00047FE411C07D02178890603D5E2693918F6
:1005F00091420DD80744761C2078800602D5E06928
:10060000B84205DDAE42E6DB3AF816000028E2D13A
:10061000A069C01BA0612046FFF7F6FED8E90010D4
:10062000CDE90010002017E03AF818106A4602A839
:1006300000F01EFEB0F1FF3F81460BD000250DF10A
:10064000080B05E0D4E901211BF8050090476D1C5B
:100650004D45F7D308F10100B0428046E4DB206A43
:10066000384420622046FFF7E5FEBDE8FF9F00000A
:10067000724C00002DE9F0418046D21D22F00702A5
:100680000025D2E90002F52915A614D0011E72F149
:10069000000106DA0023D0EB030063EB020211A68F
:1006A00008E0D8F800108B0701D50FA602E0490733
:1006B00001D50EA601251146002408F1240704E007
:1006C00000F07EF930323A55641C50EA0102F7D14D
:1006D0002B46324621464046BDE8F04100F0B5B910
:1006E000000000002D0000002B0000002000000092
:1006F00030B4002100F1240408E002F00705D2081C
:10070000303542EA4372DB086554491C52EA03055E
:10071000F3D10468002310A2250707D5A40600D44E
:1007200021B1C46901230DA2641EC46130BC00F074
:100730008CB910B5044621461068FFF795FE0246B5
:100740002046BDE810400023D2E7D21D22F0070169
:10075000D1E90023CCE700000000000030000000D9
:10076000F0B40D460188090502D5214C7C4402E015
:100770001F4C7C440E34002100F1240608E002F0F6
:100780000F071209E75D42EA03721B097754491CFF
:1007900052EA0307F3D102780023120704D5702D23
:1007A00006D009B1022311342246F0BC00F04DB945
:1007B00001231034F8E770B504460D462146106851
:1007C000FFF752FE024629462046BDE8704000234E
:1007D000C6E7D21D22F00703D3E90023C0E7036870
:1007E000126843F0200303600823C3610023B7E7C6
:1007F000D44A00002DE9F05F894604464FF0000A14
:10080000DFF874B1FB44C0F820A02046E1688847B7
:10081000002874D0252806D0D4E901219047206A09
:10082000401C2062F1E700265F462046E1688847C9
:100830002028054607DB312D05D2781910F8200C49
:1008400008B10643F1E7B00701D526F00406C4F865
:100850001CA00027C4F818A02A2D09D0284602F0B1
:10086000FAF938B304EB8708303DC8F8185019E09E
:1008700059F8041B204604EB87029161E168884720
:10088000012F054618D1E069002820DA26F020065D
:100890001DE0D8F8180000EB800005EB4000303870
:1008A000C8F818002046E1688847054602F0D3F9E9
:1008B0000028EED1012F0AD02E2D08D12046E16864
:1008C00088477F1C0546022F46F02006C4DBA0693E
:1008D000002803DA404246F00106A061F00701D08B
:1008E00026F010066C2D0BD0682D09D04C2D39D078
:1008F0006A2D35D0742D35D07A2D33D016E038E0FE
:10090000E1682F4620468847B842054609D16C2F3A
:1009100026D04FF48060E1680643204688470546AC
:1009200004E06C2F1AD04FF4807006430DB3A5F18C
:100930004100192802D8203546F400664A46294667
:10094000204626604E46FFF73DFC80B101280BD0C3
:10095000F61D26F0070000F1080956E74020E4E7FD
:100960008020D8E70020D6E706F104094DE72846A5
:1009700052E7206ABDE8F09F644A00004FF0000291
:100980000429C0F0128010F0030C3FF415ADCCF137
:10099000040CBCF1020F18BF00F8012BA8BF20F80F
:1009A000022BA1EB0C01FFF707BD5FEAC17C24BF5E
:1009B00000F8012B00F8012B48BF00F8012B70470D
:1009C00030B5B0F10A024FEA900E71F100034EEA21
:1009D000817EB0EB0E0061EB91014FEA101E4EEAF2
:1009E000017E10EB0E0041EB11114FEA102E4EEA82
:1009F000016E10EB0E0041EB11214FEA104E4EEA52
:100A0000014E10EB0E0041EB1141401841F1000185
:100A10004FEAD00040EA41704FEAD10110EB800567
:100A20004FEA810444EA907444EB01046D1944EBED
:100A30000404521BA3414FF0000348BF0A3200D503
:100A400030BD401C41F1000130BD2DE9F0470D469D
:100A500099469246044600F124080168880604D5A8
:100A6000E06921F01001216000E00120A84201DDD1
:100A7000471B00E00027A1697A1902EB0900081A58
:100A8000A0612078C00602D42046FFF7BDFC0026F6
:100A900008E0D4E901211AF806009047206A401CBA
:100AA000761C20624E45F4DB2078C0060AD520462D
:100AB000FFF7AAFC06E0D4E9012130209047206A24
:100AC000401C2062381EA7F10107F4DC07E0D4E9DE
:100AD000012118F805009047206A401C2062281E5A
:100AE000A5F10105F3DC2046FFF7A4FC2078000601
:100AF00002D50220BDE8F0870120FBE770472DE911
:100B0000FF4F0C461E464FF0FF378BB0D2E9000175
:100B1000DDF860800A908A46C1F30A5505B93D4662
:100B2000002108464FF00000BAF1000F00F4400029
:100B300005DA00EB80004FF4400101EA50004FEA73
:100B40009059B9F1010F00DDB9460A9850EA4A0000
:100B50000ED044F61050A5F2FF3545432F14B8F1DE
:100B6000000F1ED07542291E1EDDC9F100021CE0D7
:100B7000B8F1010F4FF0000001D0302103E0F24343
:100B800005E02154401CB042FBDB3046002200212E
:100B900021540B99C1F80880C1E900200FB0BDE8CD
:100BA000F08FBD1B6D1CDEE74A4600DA694206A8DD
:100BB00000F0F0FB06AB93E8070003AB83E8070007
:100BC00050460A9900F0ADFC8DE80700A0F50050F2
:100BD0001F3800900398002D0ADD42F21F014A469B
:100BE0000844002303A90390684600F016FF09E0BB
:100BF000A0F500504A461F38002303A90390684619
:100C000000F020FF8DE807000004000C03D04FF037
:100C1000FF30410800E01046B8F1000F03D0002279
:100C2000009215461EE0751E05D4FFF7C9FE30324E
:100C300062556D1EF9D5B3460122084302D0002249
:100C40007F1C04E02078302801D100227F1E002A7A
:100C5000099784D01DE0112D07DAFFF7B1FE30327D
:100C600062556D1C50EA0102F5D1084302D000988C
:100C7000C8B10EE00021681E05E0235C625C63548D
:100C80002254401E491C8142F7DBAB46A81B401E84
:100C90000990002004F80B000B98099AC0F808800E
:100CA000C0E9002B7AE711264FF0000857E72DE93D
:100CB000F04F88460446D21D22F0070191B0D1E9D9
:100CC0000001CDE90A0101F0B2FF02460B98C00F06
:100CD00001D02D2007E02068810701D52B2002E0FC
:100CE000202101EAC000032A099001D0072A05DB70
:100CF00003464146204600F00DFB0BE120788006BC
:100D000001D5E06900E00620B8F1650F814606D004
:100D1000B8F1660F18D0B8F1670F70D131E000203C
:100D2000B9F1110F009001DB112301E009F101037A
:100D30000AAA01A90CA8FFF7E2FEDDE90C70002663
:100D400009F10105834647E001204B4600904FF032
:100D500000470AAA01A90CA8FFF7D1FEDDE90DB0F2
:100D60000C995D46002610B909F101000D18B9EB88
:100D7000050003D4C0F1FF3609F10105A5EB090018
:100D80002BE0B9F1010F01DA4FF001090020B9F1B0
:100D9000110F0090484601DD112300E003460AAA26
:100DA00001A90CA8FFF7ABFEDDE90C704D4600264B
:100DB0008346207800070AD4AB4500DA5D4601A8D7
:100DC000012D04DD411911F8011C302907D04F45D0
:100DD00002DA17F1040F04DA012082460FE06D1EDB
:100DE000EEE7002F02DCED1B3E4403E0781CA84236
:100DF00000DD7D1CB81B00F1010A4FF00047207890
:100E0000000703D4AA4501DB4FF0FF3A0021B7F1F8
:100E1000004F0DF143088DF8431024D002202B23FE
:100E2000002F01DA7F422D230A21021EA0F10100CA
:100E300000DC5FB197FBF1FC97FBF1F201FB1C7C3E
:100E400017460CF1300C08F801CDEEE7A8F10100CF
:100E500003702188090501D5452100E06521A0F135
:100E6000010800F8011C09980FA9A1EB0807FF1D54
:100E700000B10120411901EBEA70A1693844081A58
:100E8000401EA0612078C00602D42046FFF7BCFABD
:100E9000099828B1D4E901219047206A401C2062BA
:100EA0002078C00622D52046FFF7AEFA1EE0002EBD
:100EB00004DBB34502DD01A8805D00E03020D4E909
:100EC00001219047206A401C2062761CAAF1010093
:100ED0005FEA000A0AD100F019FAC0680168405CB4
:100EE000D4E901219047206A401C2062281EA5F108
:100EF0000105DCDC07E0D4E9012118F8010B90477B
:100F0000206A401C2062381EA7F10107F3DC20464E
:100F1000FFF790FA032011B041E600002DE9F04FF1
:100F200004460D46D21D22F0070089B0D0E9009793
:100F30004846394601F07BFE0246F80F01D02D23CA
:100F400007E02068810701D52B2302E0202101EA78
:100F5000C0038DF820300BB1012000E00020032AEF
:100F6000824601D0072A04DB2946204600F0D2F948
:100F70003FE12078800601D40D2500E0E569C7F344
:100F80000A560D2D49DA00214FEA175B08464FF04B
:100F90000000002F00F4400007DA00EB80004FF45F
:100FA000400100EBD07001EA60008115012901DDEC
:100FB0004FF0FF3100224FEA850CBCF1180F06D329
:100FC0001346ACF118004FF08052C24003E04FF4DA
:100FD000801323FA0CF30CF10C0CBCF1200F04D39A
:100FE000ACF1200C09FA0CF001E007FA0CF0002932
:100FF0004FF0004801DD18B90FE00ED140450CD389
:1010000019EB02095F4121B9404502D19F4329EA0A
:101010000209BBEB175F00D0761C2088000502D5C3
:101020007B48784402E07A487844193808AA30238B
:1010300002F80A30037C0AF10101002E0AF1020ACB
:1010400053546A4602DC4FF0300101E04FF03101A9
:101050004FF001088DF8001002D0A6F2FF3603E031
:1010600059EA470100D06B4E002D02DC21780907B8
:1010700004D54FF002082E218DF80110C44600213E
:101080000BE0C7F303433F01C35C491C6D1E02F82C
:101090000830052908F1010801DA002DF1DC0021F2
:1010A0000CE000EB1973491C1B786D1E082902F82F
:1010B00008304FEA091908F1010801DA002DF0DCC7
:1010C00021688B0602D516E0A8F10108E04505DD90
:1010D00002EB080313F8013C302BF5D0B8F1000FF8
:1010E00009DD02EB080313F8013C2E2B03D109079D
:1010F00001D4A8F10108002D05DD3E2102F80810F9
:101100006D1E08F10108407C002E02F8080008F16D
:10111000010804DA2D20764202F8080002E02B20B4
:1011200002F808000A214FF47A70864208F101089B
:101130000BDB96FBF0F3303302F8083096FBF0F34C
:1011400008F1010800FB136601E0642E0CDB64204B
:1011500096FBF0F3303302F8083096FBF0F308F119
:10116000010800FB136601E00A2E06DB96FBF1F096
:10117000303002F8080008F1010896FBF1F001FB9D
:101180001060303002F80800A16908F1010808EB8E
:10119000050202EB0A00081AA0612078C00602D4FA
:1011A0002046FFF731F9216A08AE01EB0A00206200
:1011B00004E0D4E9012116F8010B9047BAF1010AC5
:1011C000F7D22078C00602D52046FFF71DF96E46FB
:1011D00009E016F8010B3E280FD0D4E90121904711
:1011E000206A401C2062B8F10108F2D22046FFF7C5
:1011F00021F909B00320BDE8F08F206A284420625D
:1012000003E0D4E90121302090476D1EEBD3F8E7CD
:101210006A42000002FCFFFF10B5436913B1AFF34F
:10122000008001E0FFF729F9012010BD127800F1DC
:1012300024010A7000224A700122EDE711684FF084
:10124000FF32E9E710B5436913B1AFF3008001E065
:10125000FFF7B2F9012010BD128800F12401828449
:101260000022C2840122EDE711684FF0FF32E9E766
:1012700070B516460C46054600F040F8036893F832
:101280000101012806D0FF2C0FD8185D68B101209C
:101290002C7070BDD3F807013246214603F20713C4
:1012A00003442846BDE8704018474FF0FF3070BD3A
:1012B000754600F0EBF8AE4605006946534620F04F
:1012C0000700854618B020B5FFF740F8BDE820407C
:1012D0004FF000064FF000074FF000084FF0000BF2
:1012E00021F00701AC46ACE8C009ACE8C009ACE8A5
:1012F000C009ACE8C0098D467047000010B500F089
:1013000005F8001D10BD00BF3527000000487047DC
:101310007C8700202DE9F0411F4604460326016822
:10132000072A01F4006004DB08B116A505E016A544
:1013300003E008B115A500E015A521F0100020601C
:10134000A069C01EA0610FB1401EA0612046FFF73A
:101350005BF84FB1D4E9012138469047206A401C20
:101360002062C01C206206E0206AFAE7D4E901216D
:1013700015F8010B9047761EF8D22046FFF75AF871
:10138000BDE8F0814E414E006E616E00494E460050
:10139000696E66002DE9F047814616468AB03548E9
:1013A00078440DC88DE80D0032487844801C03ACA9
:1013B0000DC884E80D0041F69B300844372190FBAE
:1013C000F1F290FBF1F5A5F1800501FB12041B3C45
:1013D00002D56442012000E00020DFF898A080469A
:1013E0000027FA44AAF1BE0A0EE0E0070AD032460E
:1013F000684607EB470101230AEB810100F022FB5D
:101400008DE8070064107F1C002CEED1194F7F443B
:10141000AE3F19E0E80715D007EB04100DF1180AEC
:1014200090E80E008AE80E00C068F04201D19819D9
:1014300008903246012306A903A800F003FB03AB82
:1014400083E807006D10641C002DE3D14FF0010309
:1014500032466946B8F1000F03A802D000F0DDFA69
:1014600001E000F0EFFAC9E90001C9F808200AB06C
:10147000BDE8F0877C3F000010B50446AFF3008064
:101480002046BDE81040FEF700BF0000004870474E
:101490005C8700204FF0013C50F8042B51F8043BCE
:1014A0009A4221D1A2EB0C03934313EACC1317D138
:1014B00050F8042B51F8043B9A4215D1A2EB0C03CF
:1014C000934313EACC130BD150F8042B51F8043B8F
:1014D0009A4209D1A2EB0C03934313EACC13DBD05D
:1014E0004FF00000704700BFD01A01BAB1FA81F185
:1014F00001F0180122FA01F0CB40C1F12001DBB26A
:10150000C0B2C01A2CFA01F3D11A914311EAC311E7
:10151000E6D1704701491820ABBEFEE72600020065
:1015200070475FEA400C08BF91F0000F4FEA8C2330
:101530004FEAC12243EA51514FEA1C5018BF00F54F
:10154000F0404FEA300018BF41F000415FEA6C5CA8
:1015500000F02980BCF1FF3F08BF40F08040704799
:10156000130C06BF12044FF0100C4FF0000C130EBA
:1015700004BF12020CF1080C130F04BF12010CF18E
:10158000040C930F04BF92000CF1020CD30F04BFA4
:1015900052000CF1010C11464FF00002A0F11F00A7
:1015A000A0EB0C00704711F0004F08BF704731F0FE
:1015B00000413FF4D5AF0B0C06BF09044FF0100CEF
:1015C0004FF0000C0B0E04BF09020CF1080C0B0FBE
:1015D00004BF09010CF1040C8B0F04BF89000CF14E
:1015E000020CCB0F04BF49000CF1010CCCF120031D
:1015F000A0EB0C0022FA03F302FA0CF241EA030119
:1016000000F10100704720F07F4C80EA030023F0D6
:101610007F47ACEB070303F57C5300F0004003F178
:10162000FF032DE980494FEA154B09B44FEA1443F3
:1016300025EA0B4E24EA03480FF2042606EB132793
:1016400049083E785FEA320203FB0667C7F50007E8
:1016500007FB06F64FEA54374FEAD64606F1020674
:1016600007FB066CCCF1005C4FEA1C472CEA074CE8
:1016700007FB06F40CFB06F504EB15464FEA96163D
:1016800034BF00204FF000404FEAD13706FB07FC83
:101690004FEA1C4C0CFB0BF7D21B03FB0CF761EB66
:1016A00007010CFB0EF7B0EB074072EB17420CFB87
:1016B00008F734BFA2EB0742B2EB074261EB1741D8
:1016C0004FEA0C444FEA910706FB07FC4FEA1C4C1B
:1016D0000CFB0BF7B0EBC74072EB573203FB0CF778
:1016E00034BFA2EBC742B2EBC74261EB57310CFBF0
:1016F0000EF7B0EBC70072EB57720CFB08F734BF64
:10170000A2EBC702B2EBC70261EB5771039F4FEA2E
:10171000816141EA921104EBCC044FEAD1374FEAE0
:10172000826206FB07FC42EA90124FEA80604FEAB1
:101730001C4C0CFB0BF7D21B03FB0CF761EB0701F6
:101740000CFB0EF7B0EB074072EB17420CFB08F7EF
:1017500034BFA2EB0742B2EB074261EB17414FEAFD
:101760008C554FEA910704EB9C2406FB07FC4FEADB
:101770001C4C0CFB0BF7B0EBC74072EB573203FB72
:101780000CF734BFA2EBC742B2EBC74261EB573153
:101790000CFB0EF7B0EBC70072EB57720CFB08F7AF
:1017A00034BFA2EBC702B2EBC70261EB577115EB76
:1017B0004C254FEA816141EA92114FEA82624FEA79
:1017C000D13742EA901206FB07FC44F100044FEACD
:1017D00080604FEA1C4C0CFB0BF7D21B03FB0CF791
:1017E00061EB07010CFB0EF7B0EB074072EB174201
:1017F0000CFB08F734BFA2EB0742B2EB074261EBE8
:10180000174115EB1C154FEA813141EA92414FEA2D
:10181000823242EA90424FEA80304FEA0C7644F13D
:10182000000448EA03434EEA0B484FF0000EB2EBC7
:10183000080C71EB030724BF624639464EEB0E0ECF
:101840004FF0000B0018524149414BEB0B0BB2EB30
:10185000080C71EB03077BF1000B24BF624639468D
:101860004EEB0E0E4FF0000B0018524149414BEB6E
:101870000B0BB2EB080C71EB03077BF1000B24BFE1
:10188000624639464EEB0E0E51EA020718BF46F08B
:10189000010616EB0E7655F1000254F1000103D556
:1018A000BDE88901BDE80088BDE88901BDE80048C0
:1018B000B619524141EB0101A3F101037047808049
:1018C0007F7E7D7C7B7A797877767675747372719A
:1018D00071706F6E6E6D6C6C6B6A6A696868676652
:1018E00066656464636362616160605F5F5E5E5DE4
:1018F0005D5C5C5B5B5A5A59595858575756565558
:1019000055555454535352525251515050504F4FB9
:101910004F4E4E4D4D4D4C4C4C4B4B4B4A4A4A4909
:10192000494948484847474747464646454545444C
:101930004444444343434342424242414141002BD9
:101940009C4630D477002BD01CB54FEA370703B440
:101950004FF010004FF01001BAF1000F06D0BCF1AB
:10196000000FDCBF40F0080040F008014FF000001D
:101970000FBCBDE810400BF1010BBBF1010F08BF1C
:101980005FEA170722BF12F1010211F101014FF0C6
:10199000004143F1000300F0004043EA00007047BB
:1019A000F9D35708D0E746EA064613F1400F4FEA4D
:1019B00016461FDD13F1200FDFBF16430A46002134
:1019C00020335B42BED0C3F1200746EA064602FA46
:1019D00007F74FEA164646EA0706C3F1200722FA40
:1019E00003F201FA07F721FA03F14FF0000342EA8C
:1019F0000702A7E746EA020646EA06464FEA164607
:101A000046EA0106BCBF46EA0646360C4FF0000324
:101A10004FF000024FF0000194E72DE9804C9A4608
:101A2000934670B491E8380007C831EA400C48BFCB
:101A300034EA430C03D5FFF7E6FDFFF780FFF0BC67
:101A4000BDE8008C2DE9804C9A46934670B491E82D
:101A5000380007C810F0804F08BF13F0804F03D143
:101A600000F005F8FFF76BFFF0BCBDE8008C20F03C
:101A70007F4780EA030023F07F4C07EB0C03A3F5BC
:101A80007C5300F00040A3F1FE0392F0000F00F041
:101A9000B38095F0000F00F077802DE901494FEAFF
:101AA00011404FEA144621EA004800FB06FC24EAF4
:101AB000064708FB06F607FB08F800FB07F718EBDC
:101AC00006484CEB164C4FEA124B18EB07484FEA0E
:101AD00015464CEB174022EA0B4E0BFB06FC25EAA1
:101AE00006470EFB06F607FB0EFE0BFB07F71EEB89
:101AF000064E4CEB164C4FF000061EEB074E4CEB1F
:101B0000174B18EB0B0840F1000018EB0E0B58EBCD
:101B1000000840F100008F1A4FF000013CBFC9439C
:101B2000661B14BFB5EB040C00213CBFC943F61B78
:101B30004FEA17444EEA8E0E27EA04454FEA1C4747
:101B400004FB07622CEA074C05FB07F70CFB05F6C4
:101B500004FB0CFC16EB074642EB174216EB0C4657
:101B600042EB1C421BEB060658EB0202414146EADF
:101B70009E0601D5BDE80189B619524141EB01012C
:101B8000A3F10103BDE801894FEA14454FEA11476B
:101B900024EA054621EA074C05FB07F406FB07F794
:101BA0000CFB06F105FB0CFC11EB074144EB174461
:101BB0004FEA124711EB0C4144EB1C4422EA074C5C
:101BC00005FB07F206FB07F70CFB06F605FB0CFC12
:101BD00016EB074642EB174216EB0C4642EB1C4550
:101BE0006A1854F1000148BF7047B619524141EBE1
:101BF0000101A3F10103704795F0000F37D04FEAC0
:101C000011424FEA144721EA024624EA074C02FB3C
:101C100007F106FB07F70CFB06F402FB0CFC14EBC8
:101C2000074441EB17414FEA154714EB0C4441EBD5
:101C30001C4125EA074C02FB07F506FB07F70CFBE6
:101C400006F602FB0CFC16EB074645EB174516EBB8
:101C50000C4645EB1C42121951F1000148BF704778
:101C6000B619524141EB0101A3F1010370474FEA5C
:101C700014454FEA114724EA054621EA074C05FBC3
:101C800007F106FB07F70CFB06F24FF0000605FB19
:101C90000CFC12EB074241EB174112EB0C4251EBEB
:101CA0001C4148BF7047921841EB0101A3F10103A9
:101CB0007047000070B5044600251BE004F00100E9
:101CC00028B14FF400710D4800F0A0F904E04FF482
:101CD00000710A4800F098F94FF48061074800F05D
:101CE00093F900BF4FF48061044800F08FF964104D
:101CF000681CC5B2082DE1DB70BD00000018014072
:101D000010B504464FF48071064800F07FF900BF1B
:101D10004FF48071034800F077F900BF2046FFF7C9
:101D2000C9FF10BD001801401CB500200A21034660
:101D30008022CDE9001002A1064801F013FD1CBD70
:101D40007653797374656D44656275675374617217
:101D500074000000753400080FB430B5C1B01548E8
:101D6000007818B3002445A800904FF4807101A8B2
:101D7000009B449AFEF7FCFAC5B20EE02046621CB6
:101D8000D4B201AA115C0C4800F04DFF00BF402105
:101D9000094800F07BFE0028F9D0FF2C03DAAC42A2
:101DA00001DA002DEADC0020009000BF41B030BC19
:101DB0005DF814FB140000200038014010B586B017
:101DC0000446254800F014FE0121042000F0D8FB51
:101DD0000121880300F0D4FB0121042000F0CCF89D
:101DE0004FF4C060ADF8140018208DF817000320E0
:101DF0008DF8160005A9194800F032F8019400206A
:101E0000ADF80800ADF80A00ADF80C00ADF8100010
:101E10000C20ADF80E0001A90F4800F093FE01213F
:101E20000D4800F0D8FD012240F225510A4800F08B
:101E300064FE4021084800F0C5FD25208DF8000013
:101E40000A208DF8010001208DF80300684600F09B
:101E500009F906B010BD000000380140000801403B
:101E60002DE9F04102460025002600200023002431
:101E7000002791F803C00CF00F0591F803C00CF097
:101E8000100CBCF1000F03D091F802C04CEA05051C
:101E900091F800C0BCF1000F31D0146800202BE095
:101EA0004FF0010C0CFA00F3B1F800C00CEA030685
:101EB0009E4220D183004FF00F0C0CFA03F7BC4375
:101EC00005FA03FC4CEA040491F803C0BCF1280FA6
:101ED00006D14FF0010C0CFA00FCC2F814C00AE065
:101EE00091F803C0BCF1480F05D14FF0010C0CFA7A
:101EF00000FCC2F810C0401C0828D1D31460B1F80F
:101F000000C0BCF1FF0F34DD546800202EE000F16A
:101F1000080C4FF0010808FA0CF3B1F800C00CEA05
:101F200003069E4221D183004FF00F0C0CFA03F7F9
:101F3000BC4305FA03FC4CEA040491F803C0BCF16D
:101F4000280F05D100F1080C08FA0CF8C2F814802B
:101F500091F803C0BCF1480F07D100F1080C4FF015
:101F6000010808FA0CF8C2F81080401C0828CED3EB
:101F70005460BDE8F0810000F0B50A46002300245B
:101F80000021002500F00046B6F1004F02D11D4EA1
:101F9000F16901E01B4E7168C0F3034583B200F4A0
:101FA0004016B6F5401F08D121F07061154E7668D5
:101FB00026F07066134F7E6012E000F48016B6F5CE
:101FC000801F06D1032606FA05F4A14341F0706193
:101FD00006E0460D360103FA06F6B14341F07061A2
:101FE00022B1460D360103FA06F6314300F00046F1
:101FF000B6F1004F02D1034EF16101E0014E716074
:10200000F0BD000000000140416170470161704770
:102010002DE9F84305460E46174698468DF80050C0
:102020008DF801608DF802708DF80380C020FFF7F5
:1020300067FE002408E01DF80400FFF73BFE0020C7
:10204000FFF738FE601CC4B2042CF4DB8B20FFF7D2
:1020500057FE4FF480710248FFF7D8FFBDE8F883C0
:102060000018014070B5002100230F22C47804B38A
:10207000154C246804F4E064C4F5E064210AC1F15D
:102080000403CA40447804FA03F1847814402143DD
:1020900009010E4C0678A155047804F01F050124AF
:1020A000AC4005786D11AD0005F1E025C5F80041A3
:1020B00009E0047804F01F050124AC40044D0678C3
:1020C000761145F8264070BD0CED00E000E400E01C
:1020D00080E100E008B50121402000F051FA4FF402
:1020E000E060ADF8000010208DF8030003208DF8AB
:1020F000020069460348FFF7B3FE0320FFF700FE26
:1021000008BD00000018014070B500240CE0002557
:1021100006E00020074901EBC5010855681CC5B25F
:10212000802DF6DB601CC4B2082CF0DB00F0FAF85E
:1021300070BD000078000020F0B5144600267F280E
:1021400001DC3F2900DDF0BD0B46CF1701EB5777CF
:10215000FF10C7F10707FAB2CF1701EB5777FF104F
:10216000A1EBC707FDB2C5F107070123BB40DEB2F3
:102170004CB10A4B03EBC0039B5C3343074F07EBA7
:10218000C007BB5408E0054B03EBC0039B5CB343A3
:10219000024F07EBC007BB5400BFD4E77800002014
:1021A00008B50121182000F0EBF94FF47040ADF8AC
:1021B000000010208DF8030003208DF8020069460E
:1021C0005348FFF74DFE0820ADF8000010208DF8B1
:1021D000030003208DF8020069464E48FFF740FED9
:1021E0004FF400514A48FFF711FF08214948FFF713
:1021F0000DFF4FF480414648FFF708FF4FF4805130
:102200004348FFF701FF4FF400414148FFF7FCFE50
:10221000002005E000BF00BF00BF00BF411C88B226
:1022200042F210718842F5DB4FF400413848FFF765
:10223000EDFE0021AE2000F051F90021D52000F084
:102240004DF90021502000F049F90021A82000F0AC
:1022500045F900213F2000F041F90021D32000F092
:102260003DF90021084600F039F90021402000F036
:1022700035F900218D2000F031F90021142000F003
:102280002DF90021202000F029F90021022000F082
:1022900025F90021A02000F021F90021C82000F03C
:1022A0001DF90021DA2000F019F90021122000F0B8
:1022B00015F90021812000F011F90021EF2000F034
:1022C0000DF90021D92000F009F90021F12000F0DA
:1022D00005F90021DB2000F001F90021302000F099
:1022E000FDF80021A42000F0F9F80021A62000F05C
:1022F000F5F80021AF2000F0F1F8FFF705FF1023FB
:1023000005A20221084600F0B9F800F00BF808BD5C
:10231000000C01400010014052706920657874651E
:102320006E64000070B500241CE004F1B001C8B276
:10233000002100F0D3F80021084600F0CFF800217A
:10234000102000F0CBF8002508E0084901EBC5019A
:10235000085D012100F0C2F8681CC5B2802DF4DBD5
:10236000601CC4B2082CE0DB70BD000078000020C7
:102370002DE9F84F80460F4616461C46BA462046C1
:10238000E31704EB5373DB1021464FEAE47C04EBC4
:102390005C7C4FEAEC0CA4EBCC0CBCF1000F02D03F
:1023A0004FF0010C01E04FF0000C6344224604EBB7
:1023B000D27C4FEA6C0C03FB0CF303F0FF0BA6F18D
:1023C0002000C6B200254EE00C2C07D106EB4600DB
:1023D000274901EB8000405D009013E0102C05D1EF
:1023E000244800EB0610405D00900BE0182C07D14C
:1023F00006EBC600204901EB8000405D009001E043
:10240000BDE8F88F4FF0000927E0009800F0800049
:1024100028B1394640460A9AFFF78EFE09E00A982D
:1024200008B9012000E00020024639464046FFF787
:1024300083FE00984006000E0090781CC7B2A7EB00
:102440000A00A04205D1574608F1010000F0FF083C
:1024500006E009F1010000F0FF09B9F1080FD4DB33
:1024600000BF681CC5B25D45AEDB00BFC8E7000019
:102470007A3A0008EE3E0008DE440008F8B5064649
:102480000F4615461C4621E004EBD4714910C1F1FA
:102490008001B14202DA00263819C7B2C4F1400007
:1024A000B84204DA002006460746FFF72DFE012059
:1024B00000902A78234639463046FFF759FF2046D8
:1024C00004EBD07106EB6101CEB26D1C28787E283A
:1024D00002DC28782028D7DAF8BD000070B5044661
:1024E0000E46002E05DD4FF480411B48FFF78EFDA0
:1024F00004E04FF480411848FFF786FD00BF00BF9D
:102500004FF400511448FFF77FFD00251BE004F055
:10251000800020B108211148FFF778FD03E0082171
:102520000E48FFF771FD4FF400510B48FFF76EFDA9
:1025300000BF00BF4FF400510748FFF765FD60067C
:10254000040E681CC5B2082DE1DB4FF4804102483F
:10255000FFF75CFD70BD0000000C01400010014061
:1025600029B1064A12690243044B1A6104E0034A86
:1025700012698243014B1A6170470000001002404B
:1025800029B1064A92690243044B9A6104E0034A66
:1025900092698243014B9A6170470000001002402B
:1025A00029B1064AD2680243044BDA6004E0034AC8
:1025B000D2688243014BDA6070470000001002408D
:1025C0002DE9F041002100220025002300260024EF
:1025D00000278C46DFF86081D8F8048008F00C01F1
:1025E00021B1042907D0082959D109E0DFF84C812D
:1025F000C0F8008058E0DFF84881C0F8008053E060
:10260000DFF83481D8F8048008F47012DFF82881EC
:10261000D8F8048008F48035920C0D2A01D0921C61
:1026200000E0062235B9DFF81C8102FB08F8C0F88B
:10263000008033E0DFF80081D8F82C8008F4803681
:10264000DFF8F480D8F82C8008F00F0808F10104B6
:1026500046B9DFF8EC80B8FBF4F808FB02F8C0F8E4
:1026600000801BE0DFF8D080D8F82C80C8F3031876
:1026700008F10107DFF8C080D8F82C80C8F30328E0
:1026800008F1020CDFF8B880B8FBF7F808FB0CF88B
:10269000B8FBF4F808FB02F8C0F8008004E0DFF8AB
:1026A0009C80C0F8008000BF00BFDFF88C80D8F8A5
:1026B000048008F0F0010909DFF88C8018F8013077
:1026C000D0F8008028FA03F8C0F80480DFF86880AA
:1026D000D8F8048008F4E061090ADFF86C8018F883
:1026E0000130D0F8048028FA03F8C0F80880DFF839
:1026F0004880D8F8048008F46051C90ADFF848809F
:1027000018F80130D0F8048028FA03F8C0F80C80DB
:10271000DFF82480D8F8048008F44041890BDFF802
:102720002C8018F80130D0F80C80B8FBF3F8C0F812
:102730001080BDE8F08100000010024000127A0015
:1027400040787D0100093D000000002010000020BD
:1027500070B506460C461546002E05DD4FF40051B7
:102760001148FFF751FC04E04FF400510E48FFF709
:102770004DFC002C05DD4FF480410B48FFF744FC75
:1027800004E04FF480410848FFF740FC002D05DDD0
:102790004FF400610448FFF737FC04E04FF4006198
:1027A0000148FFF733FC70BD0018014008B5002058
:1027B000009001214020FFF7E3FE4FF4D040ADF838
:1027C000000010208DF8030003208DF802006946F8
:1027D0000148FFF745FB08BD0018014010B500F0A7
:1027E00001F810BD0CB50020019000903F48006832
:1027F00040F480303D49086000BF3C48006800F468
:10280000003000900198401C0190009818B9019880
:10281000B0F5A06FF1D13548006800F4003010B178
:102820000120009001E000200090009801285CD178
:102830002F48006840F010002D49086008460068E5
:1028400020F0030008600846006840F002000860BD
:102850002648406825494860084640684860084660
:10286000406840F4806048600846C06A21490840DA
:102870001E49C8620846C06A1F4908431B49C8620E
:102880000846006840F08060086000BF1748006894
:1028900000F000600028F9D01448406820F47C1053
:1028A000124948600846406840F4E810486008460D
:1028B000006840F08070086000BF0C48006800F0BD
:1028C00000700028F9D00948406820F0030007494B
:1028D00048600846406840F00200486000BF034876
:1028E000406800F00C000828F9D10CBD001002402F
:1028F0000020024000F0FEFF4406010010B500BFBA
:10290000BF2080F31188BFF34F8FBFF36F8F00BFDD
:1029100000F058FF18B14FF080500449086000BF24
:10292000002080F3118800BF10BD000004ED00E01E
:1029300010B51648006840F00100144908600846C8
:102940004068134908401149486008460068114929
:1029500008400E4908600846006820F4802008609E
:102960000846406820F4FE0048600846006820F0F1
:10297000A05008604FF47F0088600020C862FFF715
:102980002DFF4FF000600449086010BD00100240A8
:102990000000FFF0FFFFF6FE08ED00E010B540F28A
:1029A0002551074800F07FF840B1054800F036F99E
:1029B000C4B240F22551024800F004F810BD0000F6
:1029C0000038014001F40072B2F5007F00D100BF71
:1029D000CA430280704721B1828942F40052828149
:1029E00004E082894DF6FF731A408281704700002F
:1029F00010B504462048844209D101218803FFF71D
:102A0000CFFD00214FF48040FFF7CAFD32E01B48A4
:102A1000844209D101214804FFF7A2FD00214FF4AF
:102A20000030FFF79DFD25E01548844209D10121C2
:102A30008804FFF795FD00214FF48020FFF790FDFB
:102A400018E01048844209D10121C804FFF788FD2D
:102A500000214FF40020FFF783FD0BE00A48844279
:102A600008D101210805FFF77BFD00214FF48010FC
:102A7000FFF776FD10BD0000003801400044004023
:102A800000480040004C004000500040024600203A
:102A9000B1F5007F00D100BF13880B400BB10120BE
:102AA00000E00020704770B5024600240023002596
:102AB000002040F66A16B14200D100BFC1F34215B2
:102AC00001F01F03012606FA03F3012D02D19689B6
:102AD000334006E0022D02D1168A334001E0968A87
:102AE00033400C12012606FA04F41688344013B160
:102AF0000CB1012000E0002070BDF0B503460024B9
:102B000000260025002040F66A17B94200D100BF18
:102B10001846C1F3421401F01F06012707FA06F513
:102B2000012C01D10C3004E0022C01D1103000E066
:102B300014301AB107682F43076002E00768AF43FB
:102B40000760F0BD2DE9F04786B005460E4600242B
:102B5000A24600BFA1460027B08900B100BF2F46A2
:102B60002C8A4CF6FF700440F08804432C82AC8918
:102B70004EF6F3100440B088318908437189084348
:102B80000443AC81AC8A4FF6FF400440B089044353
:102B9000AC8201A8FFF714FD1F48874202D1DDF87F
:102BA00010A001E0DDF80CA0A88900F4004040B1BD
:102BB0000AEBCA0000EB0A1031684900B0FBF1F8DB
:102BC00007E00AEBCA0000EB0A1031688900B0FB8D
:102BD000F1F86420B8FBF0F004012009642101FB46
:102BE0001089A88900F4004040B1322000EBC900F0
:102BF000B0FBF1F000F00700044308E0322000EBE6
:102C000009106421B0FBF1F000F00F0004432C81A7
:102C100006B0BDE8F0870000003801400146888812
:102C2000C0F308007047C1F3080282807047490072
:102C300050EAC12018BF04204A0D18BF40F001001F
:102C400040F2FF72B2EB515F08BF40F00200012872
:102C500008BF0520704730380A2801D2012070478C
:102C60000020704710B5044C63792279E178A07890
:102C7000FFF7CEF910BD0000703A0008FFF758FECC
:102C8000012080F3108800BFFFF74EF800F072FCBF
:102C900000BFFEE72DE9F04105460E461C480768D7
:102CA0001C480068001D00F0CFFA50B919480068B0
:102CB00090F82C1001208840174909688143164874
:102CC0000160681C38B936B112480168091D134803
:102CD00000F0F8FA1AE07C190E4800684460BC4223
:102CE00007D20C480168091D0D48006800F0D0FAB1
:102CF0000CE008480168091D0A48006800F0C8FA9D
:102D000009480068844201D207480460BDE8F081A8
:102D10002C00002018000020300000204807002070
:102D2000200000201C0000204800002010B50446B0
:102D300000F0D4FA24480068401C23490860234866
:102D4000006840B9214804600846006801280DD198
:102D500000F028F90AE01E48006838B91B480068EE
:102D6000C06AE16A884201D81848046019480068BE
:102D7000401C1849086008460068206494F82C102C
:102D80000120884014490968084313490860E16A32
:102D900001EB8101114A02EB8100211D00F092FA42
:102DA00000F0C6FA0A48006868B108480068C06ABE
:102DB000E16A884207D24FF0805009490860BFF3AA
:102DC0004F8FBFF36F8F10BD280000201800002028
:102DD000340000204400002030000020780400204F
:102DE00004ED00E010B516E000F078FA0C48C06879
:102DF000C468201D00F028FA0A480068401E0949EE
:102E0000086009480068401E0749086000F090FA11
:102E1000204600F00BF8044800680028E4D110BDFB
:102E200034070020280000202400002010B50446AC
:102E3000206B00F09BFA204600F098FA10BD0000CD
:102E400030B54FF40043174800F007042CB1C01D03
:102E500020F00700134C041B1B1B0246124C22607F
:102E60000024114D6C60D018083820F007000F4C7A
:102E7000206000240D4D2D686C600C4D2D682C6079
:102E80001146441A4C60094C24680C60084D4C688B
:102E90002C60084D4C682C604FF00044064D2C60AF
:102EA00030BD00005C0700206000002068000020AA
:102EB000700000206C0000207400002000BFFFF7AD
:102EC00091FF064800680128F9D94FF08050044965
:102ED0000860BFF34F8FBFF36F8FF0E778040020D7
:102EE00004ED00E02DE9F05F82460E4690469B46D9
:102EF0000A9F0C9C4FEA8801A522206BFDF752FA2D
:102F0000A8F10100216B01EB800929F0070909F004
:102F1000070008B9012000E0002050B900BFBF2021
:102F200080F31188BFF34F8FBFF36F8F00BF00BFD7
:102F3000FEE786B1002507E0715D04F134004155DC
:102F4000705D00B902E06D1C0A2DF5D300BF0021B1
:102F50003D20015502E0002084F83400202F00D3EA
:102F60001F27E762A7640020E064201D00F08DF9B0
:102F700004F1180000F089F92461C7F12000A06174
:102F800064620020206584F854005A465146484641
:102F900000F048F920600B9808B10B980460BDE878
:102FA000F09F000010B5002407E004EB84010F4AF5
:102FB00002EB810000F05CF9641C202CF5D30C4876
:102FC00000F056F90B4800F053F90B4800F050F9A7
:102FD0000A4800F04DF90A4800F04AF90448094946
:102FE000086004480849086010BD0000780400200B
:102FF000F80600200C0700202007002034070020DE
:10300000480700201C0000202000002010B50146C9
:10301000164800E0006803688B42FBD30246436811
:1030200013448B4204D143684C68234443600146F7
:103030000A464B6813440468A34211D10C4C036840
:103040002468A34208D04B680468646823444B603A
:1030500003681B680B6005E0054B1B680B6001E013
:1030600003680B60884200D0016010BD6000002042
:10307000680000200A490968096809B9012100E0CF
:10308000002121B14FF0FF31064A116006E00449EA
:103090000968C968C868034A416811607047000040
:1030A0001C000020480000200E480068401C08B9A1
:1030B000012000E0002050B900BFBF2080F311883C
:1030C000BFF34F8FBFF36F8F00BF00BFFEE700BF9E
:1030D000BF2080F31188BFF34F8FBFF36F8F00BF06
:1030E00000BFFEE7540000202DE9F04104464FF0F8
:1030F000000800F083FA4648006808B9FFF7A0FE10
:1031000044480068204000286BD1D4B1083404F052
:103110000700B0B104F00700C0F10800044404F057
:10312000070008B9012000E0002050B900BFBF200F
:1031300080F31188BFF34F8FBFF36F8F00BF00BFC5
:10314000FEE7002C4DD034480068844249D8334E05
:103150003046056801E02E462D686868A04202D21C
:1031600028680028F7D12A480068854239D030689D
:1031700000F10808286830606868001B102819D919
:103180002F1907F0070008B9012000E0002050B90E
:1031900000BFBF2080F31188BFF34F8FBFF36F8F45
:1031A00000BF00BFFEE76868001B78606C603846AF
:1031B000FFF72CFF184968680968081A1649086063
:1031C0000846006816490968884203D21248006818
:1031D000134908600F49686809680843686000205F
:1031E000286000F093FB08F0070008B9012000E018
:1031F000002050B900BFBF2080F31188BFF34F8F6C
:10320000BFF36F8F00BF00BFFEE74046BDE8F0810F
:1032100068000020740000206C0000206000002086
:1032200070000020001F4FF080730360001F21F02A
:1032300001030360001F034B036014380260203851
:1032400070470000A930000801460A69D1E9013041
:103250009860D1E9010358605068884201D18868BC
:103260005060002008611068401E106010687047B0
:1032700000F1080141604FF0FF31816000F1080169
:10328000C160016100210160704700210161704748
:1032900010B502460B685C1C0CB9106907E002F11E
:1032A000080000E04068446824689C42FAD94468F9
:1032B0004C604C68A160886041600A611468641CBD
:1032C000146010BD42684A6093688B6093685960CF
:1032D0009160086103685B1C0360704700BFBF20FA
:1032E00080F31188BFF34F8FBFF36F8F00BF0E487D
:1032F0000068401C0C49086008460068012812D18B
:103300000A480068C0B208B9012000E0002050B9A6
:1033100000BFBF2080F31188BFF34F8FBFF36F8FC3
:1033200000BF00BFFEE770475400002004ED00E03E
:103330000D48006850B900BFBF2080F31188BFF36B
:103340004F8FBFF36F8F00BF00BFFEE706480068D6
:10335000401E054908600846006820B9002080F337
:10336000118800BF00BF70475400002070B50646AA
:103370003546002E3FD0083D2C461F49606809683D
:10338000084008B1012000E0002050B900BFBF2074
:1033900080F31188BFF34F8FBFF36F8F00BF00BF63
:1033A000FEE7206808B9012000E0002050B900BF06
:1033B000BF2080F31188BFF34F8FBFF36F8F00BF23
:1033C00000BFFEE70C4960680968084098B12068B2
:1033D00088B90949606809688843606000F00EF99F
:1033E0000649606809680844044908602046FFF7F8
:1033F0000DFE00F08BFA70BD740000206C00002000
:1034000000204FF0E02108618861024848610720F0
:10341000086170473F19010070B504460025D4B11A
:103420001248006808B9012000E0002050B900BF30
:10343000BF2080F31188BFF34F8FBFF36F8F00BFA2
:1034400000BFFEE700F0DAF800212046FFF722FC7B
:1034500000F05CFA05463DB94FF080500449086021
:10346000BFF34F8FBFF36F8F70BD0000500000207F
:1034700004ED00E04FF4E130FEF7A0FCFFF796F911
:10348000002211461046FFF763F9002427A0FEF73B
:1034900063FCFEF71FFEFFF7E5FBFEF781FE43E04E
:1034A0004FF4FA60FFF7B8FF641C0320B4FBF0F19F
:1034B00000FB114020B101280ED0022824D117E0D2
:1034C000002211460120FFF743F910231AA202211E
:1034D0000846FEF7D3FF24E0002201211046FFF743
:1034E00037F9102318A202210846FEF7C7FF18E09B
:1034F000012200210846FFF72BF9102316A2022112
:103500000846FEF7BBFF0CE00024002211461046DF
:10351000FFF71EF9102314A202210846FEF7AEFFA2
:1035200000BF00BFFEF7FEFEBAE7000048656C6C06
:103530006F205250490A00005354205247422052F3
:1035400020202020000000005354205247422047F2
:1035500020202020000000005354205247422042E7
:103560002020202000000000535420524742204FCA
:10357000464620001CB51A4800210B468022CDE9A2
:10358000001018A1194800F0EDF80446012C15D1DF
:1035900000BFBF2080F31188BFF34F8FBFF36F8F41
:1035A00000BF4FF0FF301249086001201149086048
:1035B00000201149086000F06FF810E0601C08B1AD
:1035C000012000E0002050B900BFBF2080F3118827
:1035D000BFF34F8FBFF36F8F00BF00BFFEE71CBD6F
:1035E0004C00002049444C4500000000BD2E00085E
:1035F00048000020340000202C0000200248006811
:10360000401C014908607047500000201D480068B8
:1036100018B101201C49086032E000201A490860F6
:103620001A480068B0FA80F0C0F11F0101EB810078
:10363000174A52F8200008B1012000E0002050B9DC
:1036400000BFBF2080F31188BFF34F8FBFF36F8F90
:1036500000BF00BFFEE701EB81020D4B03EB8200D0
:1036600042685268426000F108024368934202D106
:103670004268526842604268D268064B1A6000BFD6
:1036800070470000500000203C0000203000002067
:1036900078040020180000201CB52D490846007849
:1036A0000190FF200A4610700846007800909DF8AF
:1036B00000009DF80020904201D1012000E0002090
:1036C00050B900BFBF2080F31188BFF34F8FBFF305
:1036D0006F8F00BF00BFFEE79DF8000000F0BF0045
:1036E0001C4A107007201C4A106009E01A48006844
:1036F000401E194A10609DF800004006000E009020
:103700009DF8000000F080008028EFD0124800688B
:103710000002114A10601046008800F4E06010605A
:103720000B4A019810700D48006840F47F000B4967
:1037300008600846006840F07F400860FFF760FEC0
:10374000002007490860FCF7B9FD00201CBD0000FF
:1037500000E400E0580000205C00002020ED00E0C4
:10376000540000202DE9FF4F85B08046894617465A
:10377000DDE912ABB800FFF7B7FC064656B158209A
:10378000FFF7B2FC04460CB1266304E03046FFF7B5
:10379000EDFD00E000247CB10020CDE900ABCDE9D7
:1037A00002403A4649464046089BFFF79BFB2046AD
:1037B000FFF7BCFA012501E04FF0FF35284609B0BC
:1037C000BDE8F08F2DE9F0414FF000084448006853
:1037D000002877D143480068451C4248056015BB66
:1037E00041480068006808B9012000E0002050B995
:1037F00000BFBF2080F31188BFF34F8FBFF36F8FDF
:1038000000BF00BFFEE738480768384800683649FF
:1038100008603648076036480068401C3449086034
:10382000FFF728FC00BF3348006885423CD300BF47
:103830002D480068006808B9012000E0002020B190
:103840004FF0FF302B4908602DE027480068C06822
:10385000C4686668B54202D22648066023E0201D8F
:10386000FFF7F2FCA06A18B104F11800FFF7ECFCB6
:1038700094F82C10012088401F49096808431E490C
:103880000860E16A01EB81011C4A02EB8100211D05
:10389000FFF718FD1A49E06A0968C96A8842C7D368
:1038A0004FF00108C4E700BF15480068C06A00EB8C
:1038B0008000124951F82000012801D94FF0010879
:1038C00005E0FFE70F480068401C0E4908600E48FD
:1038D000006808B14FF001084046BDE8F0810000E3
:1038E000500000202C0000201C00002020000020A0
:1038F0004000002048000020300000207804002014
:1039000018000020380000203C00002070B5002482
:1039100000263648006850B900BFBF2080F31188E8
:10392000BFF34F8FBFF36F8F00BF00BFFEE7FFF7FE
:10393000D5FC2E480068401E2C49086008460068E7
:1039400000284FD12A48006800284BD024E029489D
:10395000C068C46804F11800FFF776FC201DFFF76B
:1039600073FC94F82C10012088402349096808430F
:1039700021490860E16A01EB8101204A02EB8100E4
:10398000211DFFF79FFC1E49E06A0968C96A884249
:1039900002D301201B4908601648006808B90120BD
:1039A00000E000200028D2D00CB1FFF763FB1648DE
:1039B000056865B100BFFFF705FF10B1012011498F
:1039C00008606D1E002DF6D100200F4908600D48DB
:1039D000006838B1012630070C490860BFF34F8FEB
:1039E000BFF36F8FFFF7A4FC304670BD500000207E
:1039F000280000202007002030000020780400204C
:103A0000180000203C0000203800002004ED00E0F9
:103A100010B500290AD00878002807D00548784456
:103A2000FDF738FD002801D0002010BD0248784481
:103A300010BD00003A1900003219000010B500292D
:103A40000AD00878002807D005487844FDF722FD01
:103A5000002801D0002010BD0248784410BD0000AD
:103A60002A19000022190000FDF721B9FDF756BA06
:103A70003F065B4F666D7D077F6F00000000000012
:103A8000000000000000000000003F4000000000B7
:103A9000000000003000400030004000000009003D
:103AA0000BC03D000BC03D00090018C024407FE062
:103AB000224031800000180024C01B000D803240DD
:103AC000018003801C4027401C80074000401000FC
:103AD0006000000000000000000000000000000086
:103AE0001F80204040200000402020401F80000018
:103AF0000000090006001F80060009000000040005
:103B000004003F800400040000000010006000007A
:103B10000000000000000400040004000400040091
:103B20000000000000400000000000000000002035
:103B300001C006003800400000001F8020402040E7
:103B400020401F800000000010403FC000400000E7
:103B5000000018C02140224024401840000010807E
:103B60002040244024401B80000002000D00110072
:103B70003FC0014000003C8024402440244023807A
:103B800000001F80244024403440038000003000A7
:103B9000200027C03800200000001B802440244063
:103BA00024401B8000001C0022C0224022401F80B5
:103BB00000000000000008400000000000000000BD
:103BC00000000460000000000000000004000A0083
:103BD0001100208040400900090009000900090087
:103BE000000000004040208011000A00040018007E
:103BF000200023402400180000001F8020402740A0
:103C000029401F400000004007C039000F0001C0DC
:103C1000004020403FC0244024401B8000001F8003
:103C20002040204020403080000020403FC0204005
:103C300020401F80000020403FC024402E4030C064
:103C4000000020403FC024402E00300000000F0044
:103C50001080204022403380020020403FC00400FA
:103C600004003FC02040204020403FC02040204072
:103C700000000060202020203FC0200020002040C5
:103C80003FC024400B0030C0204020403FC02040B7
:103C90000040004000C03FC03C0003C03C003FC0AB
:103CA000000020403FC00C4023003FC020001F8088
:103CB0002040204020401F80000020403FC0244082
:103CC0002400180000001F802140214020E01FA098
:103CD000000020403FC02440260019C0004018C00A
:103CE00024402440224031800000300020403FC06A
:103CF00020403000000020003F80004000403F8016
:103D0000200020003E0001C00700380020003800DD
:103D100007C03C0007C038000000204039C0060042
:103D200039C0204000002000384007C03840200043
:103D30000000304021C02640384020C00000000074
:103D400000007FE0402040200000000070000C00D8
:103D50000380004000000000402040207FE0000081
:103D600000000000200040002000000000000010C3
:103D700000100010001000100010000000004000B3
:103D8000000000000000000002800540054003C064
:103D9000004020003FC004400440038000000000B9
:103DA00003800440044006400000000003800440FB
:103DB00024403FC000400000038005400540034010
:103DC0000000000004401FC02440244020000000E8
:103DD00002E0055005500650042020403FC004403A
:103DE000040003C000400000044027C00040000061
:103DF000000000100010041027E000000000204028
:103E00003FC00140070004C00440204020403FC0A4
:103E100000400040000007C0040007C0040003C0C9
:103E20000000044007C00440040003C0004000003C
:103E300003800440044003800000041007F0045095
:103E4000044003800000000003800440045007F099
:103E50000010044007C002400400040000000000FD
:103E600006400540054004C00000000004001F801B
:103E7000044000400000040007800040044007C0E8
:103E800000400400070004C0018006000400060092
:103E900001C0070001C006000000044006C0010088
:103EA00006C0044000000410071004E00180060072
:103EB00004000000044005C006400440000000006B
:103EC000000004007BE04020000000000000000033
:103ED000FFF000000000000040207BE00400000034
:103EE0000000400080004000200020004000000052
:103EF00000000000000000000000000000000000C2
:103F0000000000001FCC000C0000000000000000BA
:103F1000080030006000080030006000000002204F
:103F200003FC1E20022003FC1E20022000000000D3
:103F30000E1811043FFF10840C78000000000F00E1
:103F400010840F3800C007781884007800000078CB
:103F50000F8410C411240E9800E4008400080800A7
:103F60006800700000000000000000000000000079
:103F70000000000007E018182004400200000000C4
:103F800040022004181807E0000000000000024072
:103F9000024001800FF001800240024000000080DA
:103FA000008000800FF80080008000800000000189
:103FB000000D000E000000000000000000000000E6
:103FC0000080008000800080008000800080000071
:103FD000000C000C000000000000000000000000C9
:103FE0000006001800600180060018002000000094
:103FF00007F0080810041004080807F0000000008B
:10400000080408041FFC0004000400000000000075
:104010000E0C10141024104411840E0C000000002B
:104020000C1810041104110412880C700000000018
:1040300000E00320042408241FFC002400000000EA
:104040001F981084110411041088107000000000E3
:1040500007F008881104110418880070000000009F
:104060001C00100010FC13001C00100000000000D9
:104070000E3811441084108411440E3800000000E2
:104080000700088C10441044088807F00000000066
:1040900000000000030C030C000000000000000002
:1040A0000000000101060000000000000000000008
:1040B00000800140022004100808100400000220C3
:1040C0000220022002200220022002200000000024
:1040D00010040808041002200140008000000000C5
:1040E0000E001200100C106C10800F00000003E096
:1040F0000C1813E4142417C4082807D00000000487
:10410000003C03C41C40074000E4001C00041004F1
:104110001FFC1104110411040E880070000003E05C
:104120000C1810041004100410081C1000001004D7
:104130001FFC100410041004080807F0000010040D
:104140001FFC1104110417C4100408180000100407
:104150001FFC1104110017C010000800000003E04C
:104160000C181004100410441C78004000001004C7
:104170001FFC10840080008010841FFC10040000CD
:10418000100410041FFC10041004000000000003C1
:104190000001100110011FFE1000100000001004AB
:1041A0001FFC110403801464181C10040000100488
:1041B0001FFC1004000400040004000C00001004A4
:1041C0001FFC1F0000FC1F001FFC10040000100457
:1041D0001FFC0C04030000E010181FFC100007F087
:1041E0000808100410041004080807F00000100468
:1041F0001FFC10841080108010800F00000007F05A
:10420000081810241024101C080A07F200001004DB
:104210001FFC1104110011C011300E0C000400002D
:104220000E1C11041084108410441C380000180067
:10423000100010041FFC10041000180000001000F3
:104240001FF810040004000410041FF810001000F0
:104250001E0011E0001C007013801C0010001FC025
:10426000103C00E01F0000E0103C1FC000001004E4
:10427000180C163401C001C01634180C10041000BC
:104280001C00130400FC13041C00100000000804B0
:10429000101C1064108413041C041018000000008B
:1042A000000000007FFE40024002400200000000CB
:1042B00030000C0003800060001C000300000000C0
:1042C0004002400240027FFE0000000000000000AB
:1042D00000002000400040004000200000000001DD
:1042E00000010001000100010001000100010000C7
:1042F000400040002000000000000000000000001E
:104300000098012401440144014400FC0004100011
:104310001FFC0088010401040088007000000000F8
:1043200000700088010401040104008800000000FE
:10433000007000880104010411081FFC0004000043
:1043400000F8014401440144014400C80000000099
:10435000010401040FFC11041104110018000000F5
:1043600000D601290129012901C901060000100414
:104370001FFC008401000100010400FC0004000097
:104380000104190419FC00040004000000000000EE
:10439000000300010101190119FE000000001004D2
:1043A0001FFC0024004001B4010C010400000000C7
:1043B000100410041FFC00040004000000000104AD
:1043C00001FC0104010001FC0104010000FC0104E6
:1043D00001FC008401000100010400FC0004000055
:1043E00000F8010401040104010400F800000101C7
:1043F00001FF008501040104008800700000000036
:104400000070008801040104010501FF000101049E
:10441000010401FC0084010401000180000000008F
:1044200000CC012401240124012401980000000093
:104430000100010007F80104010400000000010070
:1044400001F8000400040004010801FC000401005C
:1044500001800170000C001001600180010001F07A
:10446000010C003001C00030010C01F0010000001F
:104470000104018C00740170018C01040000010131
:1044800001810171000E001801600180010000002F
:104490000184010C013401440184010C000000007E
:1044A00000000000000001003EFC4002400200004D
:1044B000000000000000FFFF0000000000000000FE
:1044C000400240023EFC010000000000000000002D
:1044D00060008000800040004000200020000000BC
:1044E00000000000000000000000000000000000CC
:1044F00000000000000000000000000000000000BC
:1045000000000000000000000000000000000000AB
:10451000000F80380FFE380F8038000000000000C8
:104520000000000000000000000000000100000684
:1045300000000C00003800003100000600000C00F4
:104540000038000030000000000000000000618022
:104550000067F807F98000618000618000618000D9
:1045600061800067F807F9800061800000000000AA
:104570000000000001C0E003E0F006300804180865
:104580001FFFFE040E080787F00381E00000000013
:10459000000001F000060C00040408060C7001F98C
:1045A000C0000E00003BE000EC18070808040C18DF
:1045B0000003E00000000001E00007F003F8180429
:1045C0001C0804170807E1D003C0E00023B0003C3A
:1045D000080020080000100000000000000100009A
:1045E0003100003200001C0000000000000000004C
:1045F00000000000000000000000000000000000BB
:1046000000000000000000000000000000007F002B
:1046100001FFC00780F00C00181000042000020009
:1046200000000000002000021000040C00180780A9
:10463000F001FFC0007F000000000000000000004B
:1046400000000000000000000000420000660000C2
:104650006600003C0000180003FFC0001800003C8A
:104660000000660000660000420000000000080034
:1046700000080000080000080000080001FFC0005A
:104680000800000800000800000800000800000002
:104690000000000100003100003200001C0000009A
:1046A000000000000000000000000000000000000A
:1046B00000000000000008000008000008000008DA
:1046C00000000800000800000800000800000800C2
:1046D000000800000000000000000000000038009A
:1046E000003800003800000000000000000000005A
:1046F00000000000000000000000000000000006B4
:1047000000001C000070000180000E000038000056
:10471000C0000700001C0000300000000000000086
:1047200000007F8001FFE00380700600180400088D
:1047300004000806001803807001FFE0007F80007D
:104740000000000000000000010008010008010056
:104750000803FFF807FFF800000800000800000841
:1047600000000000000000000001C03802C0580432
:104770000098040118040218040418061C1803F811
:104780001801E0F800000000000000000001C0E097
:1047900003C0F00400080408080408080618080309
:1047A000F41801E7F00001E0000000000000000044
:1047B00000000300000D00001100006100008108EE
:1047C00003010807FFF80FFFF800010800010800C7
:1047D00000000000000000E007FCD00608080610FA
:1047E00008061008061008061838060FF00607C05D
:1047F000000000000000000000003F8001FFE00317
:10480000843002081804100804100804100807185F
:1048100010030FF00007C0000000000000000000BF
:1048200003C0000700000600000600F80607F806AF
:10483000180006E00007000006000000000000006D
:104840000001E1E003F7F00634100418080418082A
:10485000040C08040C0806161803F3F001C1E0006C
:10486000000000000000F80003FC300306380402DA
:10487000080402080402080404100308F001FFC041
:10488000007F0000000000000000000000000000A9
:104890000000000000007038007038007038000020
:1048A0000000000000000000000000000000000008
:1048B00000000000000000000000301A00301C0062
:1048C00000000000000000000000000000000000E8
:1048D0000000000000080000140000220000410059
:1048E0000080800100400200200400100800080041
:1048F0000000000000002100002100002100002134
:104900000000210000210000210000210000210002
:104910000021000000000000000000000800080462
:1049200000100200200100400080800041000022B1
:104930000000140000080000000000000003C00098
:1049400004C000040000080038080F3808083808C0
:1049500010000C300007E00003C000000000000061
:1049600000003F8000FFE0038070020F1006708897
:1049700004C088048308047F8802C09003012000DB
:10498000FE400000080000180001F8003E0801C2C7
:104990000007020007E20000FE00001FC80001F847
:1049A00000003800000804000807FFF807FFF804BB
:1049B000080804080804080804080806180803F48E
:1049C0001801E7F00001E0000000000000003F8057
:1049D00001FFE003807002001804000804000804CE
:1049E00000080400100600200780C000000004003A
:1049F0000807FFF807FFF80400080400080400088F
:104A000004001802001003807001FFE0007F8000A6
:104A1000000004000807FFF807FFF804080804086E
:104A200008040808040808043E08040008060018E2
:104A300001006000000004000807FFF807FFF80409
:104A40000808040800040800040800043E000600EA
:104A500000060000018000000000000000003F8010
:104A600001FFE00380700600180400080402080437
:104A700002080203F00783F00002000002000400B5
:104A80000807FFF807FFF8040808000800000800FE
:104A900000080000080004080807FFF807FFF804F2
:104AA00000080000000000000400080400080400E2
:104AB0000807FFF807FFF8040008040008040008CE
:104AC00000000000000000000000000600000700D9
:104AD000000104000104000104000307FFFE07FFBA
:104AE000FC04000004000004000004000807FFF8B4
:104AF00007FFF8040C08001800003E0004C78005FA
:104B000003C80600F8040038040018000008040078
:104B10000807FFF807FFF804000800000800000875
:104B200000000800000800000800001800006000F5
:104B3000000004000807FFF807800807FC00007F5A
:104B4000C00003F80007C000780007800807FFF8DE
:104B500007FFF804000804000807FFF8070008032F
:104B6000C00000E000003800001E00000700000147
:104B7000C00400F007FFF8040000000000007F8080
:104B800001FFE00380700600180400080400080616
:104B9000001803003001FFE0007F800000000400E7
:104BA0000807FFF807FFF8040408040400040400E1
:104BB000040400040400060C0003F80001F00000E7
:104BC0000000000000007F8001FFE003807006000D
:104BD000880400880400C806003C03003E01FFE68C
:104BE000007F8400000004000807FFF807FFF804B6
:104BF0000808040800040C00040F00040BC0061091
:104C0000F003F03801E00800000800000001E0F8BF
:104C100003F030063010041808041808040C0804C7
:104C20000C080206180207F00781E000000001806E
:104C30000006000004000004000004000807FFF85C
:104C400007FFF8040008040000040000060000014B
:104C5000800004000007FFE007FFF00400180000D8
:104C60000800000800000800000800000804001008
:104C700007FFE004000004000006000007E0000752
:104C8000FE00041FE00001F80000380001E0043ECF
:104C90000007C00006000004000004000007E00058
:104CA00007FFC0041FF80007C007F80007FF8004D3
:104CB0003FF80007C004F8000700000400000000EF
:104CC0000004000806001807C07805F1C8003E007F
:104CD000001F800463E80780F8060018040008003D
:104CE000000004000006000007800007E008047CC4
:104CF00008001FF80007F800180804E00807000083
:104D0000060000040000000000010008060038044E
:104D100000F80403E8040F08047C0805F00807C045
:104D200008070018040060000000000000000000F8
:104D30000000000000000000003FFFFE20000220F5
:104D400000022000022000022000020000000000FB
:104D50000000000008000007000000C0000038004C
:104D60000006000001C000003000000E000001003D
:104D700000000000000000002000022000022000CF
:104D8000022000022000023FFFFE000000000000A1
:104D9000000000000000000000000000000000080B
:104DA0000000100000300000200000300000100063
:104DB00000080000000000000000000001000001E9
:104DC00000000100000100000100000100000100DE
:104DD00000010000010000010000010000010000CE
:104DE0000000000000000020000020000010000073
:104DF00010000000000000000000000000000000A3
:104E000000000000000000F00019F8001B1800224C
:104E100008002608002408002410003FF8001FF8AE
:104E200000000800001800000004000007FFF80F51
:104E3000FFF00018180010080020080020080030BB
:104E400018001FF0000FC00000000000000007C0A5
:104E5000001FF00018300020080020080020080083
:104E60003C08001C10000060000000000000000072
:104E7000000007C0001FF0003818002008002008BC
:104E800000200804101007FFF80FFFF000001000CA
:104E900000000000000000000007C0001FF000122A
:104EA00030002218002208002208003208001E10DC
:104EB000000E20000000000000002000002008007C
:104EC000200801FFF803FFF806200804200804204A
:104ED0000807200003000000000000000000000E92
:104EE000000E6E001FF30031B10020B10020B100B0
:104EF0003191001F13002E1E00200E003000000014
:104F00000004000807FFF80FFFF800100800200059
:104F1000002000002008003FF8001FF800000800F3
:104F20000000000000000000002008002008002011
:104F300008063FF8063FF8000008000008000008D7
:104F4000000000000000000000000000000003005E
:104F50000003002001002001002003063FFE063F61
:104F6000FC00000000000000000000000004000839
:104F700007FFF80FFFF8000188000300002FC000B2
:104F800038F8002038002008000008000000000069
:104F90000000000004000804000804000807FFF8EF
:104FA0000FFFF800000800000800000800000000E3
:104FB0000000002008003FF8003FF8001008002023
:104FC00000003FF8003FF8001008002000003FF804
:104FD000003FF8000008000000002008003FF80033
:104FE0003FF8001008001000002000002008003FDB
:104FF000F8001FF80000080000000000000007C0D3
:10500000000FF000183000300800200800200800D1
:105010003008001830000FF00007C000000000004A
:1050200000002001003FFF003FFF00101100200999
:10503000002008002008003038001FF0000FC000DA
:1050400000000000000007C0001FF000381800201A
:1050500008002008002009001011001FFF003FFF7A
:1050600000000100000000200800200800200800C7
:105070003FF8003FF8000808001008002008002052
:1050800000003000003000000000000000000000C0
:10509000000C78001E1800330800230800210800C7
:1050A00021880021980030F00038600000000000E6
:1050B0000000200000200000200000FFF003FFF8A7
:1050C0000020080020080020080000300000000038
:1050D0000000000000002000003FF0007FF800000A
:1050E00018000008000008002010003FF8007FF0C2
:1050F0000000100000000000000020000030000050
:105100003C00003F800023F0000078000070002386
:1051100080003C00003000002000002000003C0027
:10512000003FE00023F80000E0002700003E000000
:105130003FE00021F80001E0003E000020000000F8
:1051400000002008002008003838003E6800278052
:105150000003C8002CF80038380020180020080090
:105160000000000000002000003003003C01003F70
:10517000830023EC000070002380003C000020002E
:1051800000200000000000000000000000380800BF
:1051900020380020F80023E8002F88003E0800385F
:1051A000080020180000700000000000000000004F
:1051B0000000000000000000000008000014001FB4
:1051C000F7FC300006200002000000000000000094
:1051D00000000000000000000000000000000000CF
:1051E000FFFFFF00000000000000000000000000C2
:1051F00000000000000000002000023000061FF741
:10520000FC00140000080000000000000000000086
:1052100000000000000000000018000060000040D6
:105220000000400000200000100000080000040002
:10523000000400000C00001000000000000000004E
:1052400000000000303132333435363738394142CE
:1052500043444546403058003031323334353637D8
:105260003839616263646566403078000400000884
:105270000000000000000002000100001030313288
:105280003334353637383961626364656678700067
:10529000303132333435363738394142434445466C
:1052A0005850000002400000000000A00000000074
:1052B00005400000000000C8000000000C40000095
:1052C0000000409C00000000194000000020BCBE0F
:1052D0000000000034400000BFC91B8E0000000425
:1052E000B5400000504BCFD06607E2CF0100000070
:1052F0006C4100003E8251AADFEEA734010000009D
:10530000D9420000DCB5A0E23A301F97FFFFFFFF53
:10531000B4450000FD25A0C8E9A3C14FFFFFFFFF72
:10532000FF3F00000000008000000000FF3F000081
:1053300000000080000000008454000800000020ED
:10534000780000008C010008FC5400087800002060
:10535000488D0000A80100081C0000004300000068
:10536000F8FFFFFF0C0000000E0000000F0000001F
:105370002E0000001001000043000000F8FFFFFFB6
:105380000040404040404040404041414141414058
:10539000404040404040404040404040404040400D
:1053A000400502020202020202020202020202029C
:1053B00002202020202020202020200202020202A1
:1053C00002029090909090901010101010101010F9
:1053D0001010101010101010101010100202020205
:1053E0000202888888888888080808080808080849
:1053F0000808080808080808080808080202020245
:10540000400000000000000000000000000000005C
:10541000000000000000000000000000000000008C
:10542000000000000000000000000000000000007C
:10543000000000000000000000000000000000006C
:10544000000000000000000000000000000000005C
:10545000000000000000000000000000000000004C
:10546000000000000000000000000000000000003C
:10547000000000000000000000000000000000002C
:105480000000000000000000010203040102030408
:1054900006070809020406080100000000000000D9
:1054A00000000000000000000000000000000000FC
:1054B00000000000000000000000000000000000EC
:1054C00000000000000000000000000000000000DC
:1054D0000000000000000000AAAAAAAA0000000024
:1054E00000000000000000000000000000000000BC
:0C54F000000000000000000000000000B0
:04000005080001519D
:00000001FF
